:020000040800F2
:10000000E80500209D010008B71100081F0F000837
:10001000B5110008A30700088F1A000800000000AF
:10002000000000000000000000000000C5130008F0
:10003000510E0008000000009912000895140008F5
:10004000C1010008C1010008C1010008C101000888
:10005000C1010008C1010008C1010008C101000878
:10006000C1010008C1010008C1010008C101000868
:10007000C1010008C1010008C1010008C101000858
:10008000C1010008C1010008C1010008C101000848
:10009000A5070008C1010008C1010008C10100084E
:1000A000C1010008C1010008C1010008C101000828
:1000B000C101000815150008C1010008C1010008B0
:1000C000C1010008C1010008C1010008C101000808
:1000D000C101000845170008C1010008C10100085E
:1000E000C1010008C1010008C1010008C1010008E8
:1000F000C1010008C1010008C1010008C1010008D8
:10010000C1010008C1010008C1010008C1010008C7
:10011000C1010008C1010008C1010008C1010008B7
:10012000C1010008C1010008C1010008C1010008A7
:10013000C1010008C1010008C1010008C101000897
:10014000C1010008C1010008C1010008C101000887
:10015000C1010008C1010008C1010008C101000877
:10016000C1010008C1010008C1010008C101000867
:10017000C1010008C1010008C1010008C101000857
:10018000C1010008C1010008DFF80CD000F0EAFA54
:100190000048004749270008E80500200948016891
:1001A00041F4700101600848804708480047FEE7B5
:1001B000FEE7FEE7FEE7FEE7FEE7FEE7FEE7FEE717
:1001C000FEE7000088ED00E0B9140008890100088E
:1001D000421C10F8011B0029FBD1801A70472DE941
:1001E000FE4F804681EA0300C00F0C46009021F0CC
:1001F000004123F00045B8EB0200A94105D240467A
:10020000214690461C460B46024623F00040104310
:1002100047D0270DC7F30A00C3F30A510290401AD2
:10022000019040286BDAC3F3130040F4801B009860
:10023000924620B10023D2EB030A63EB0B0B01982B
:100240005946C0F14002504600F0C6F906460D4638
:1002500050465946019A00F0DEF910EB0800614162
:10026000002487EA115284EAE7731A4340D0009AC7
:1002700062B3019A012A4FEA075215DC001B61EBB9
:1002800002014FF0004202EA0752CDE90042001C91
:1002900041F5801132462B4600F015FA03B0BDE857
:1002A000F08F40462146F9E7001B61EB0201001C7C
:1002B00041F5801300185B412018A2F5001747EBA9
:1002C000030140EAD570B6196D4111E06D084FEA9F
:1002D000360645EAC0754FEA0752001B61EB020182
:1002E000001C41F5801149084FEA300000195141C6
:1002F00032462B4603B0BDE8F04F00F0D5B9009868
:10030000012240000023D0EB020263EBE07300986F
:1003100021464FEAE074B8EB000061EB0401E9E725
:1003200083F000435BE781F0004158E72DE9FE4F81
:1003300081EA030404F0004421F0004100944FF0EE
:10034000000B23F0004350EA01045ED052EA03049C
:100350005BD0C3F30A54C1F30A552C44A4F2F3341E
:100360000194A0FB0254C1F3130141F48011C3F3C3
:10037000130343F4801301FB024400FB034E840A81
:10038000970A44EA815447EA8357A4FB0768029519
:100390008D0A05FB07854FEA932C04FB0C542705B7
:1003A000029D4FEA065847EA1637B5EB08056EEB93
:1003B000070C870E920E47EA811742EA8312A7FBC9
:1003C0000201B6EB0B0164EB00042B0D43EA0C3386
:1003D0005E1844EB1C50DA465146E7FB0201C5F3B8
:1003E00013044FEA0B3343EA14534FEA0432019CDF
:1003F00043EA0603A4F10C040294009CCDE900B486
:1004000000F061F903B0BDE8F08F00200146F9E784
:100410002DE9F04D81EA030404F0004B21F0004582
:1004200014464FF0000A23F0004150EA050220D0A4
:1004300054EA01021DD0C5F30A570246C5F313035F
:10044000C1F31300C1F30A5640F4801543F480133E
:10045000A7EB0608101BD64608F2FD3873EB050023
:1004600002D308F1010801E092185B41B8F1000FD6
:1004700003DA00200146BDE8F08D00204FF4801122
:10048000064684460EE0171B73EB050705D3121BC7
:1004900063EB050306434CEA010C49084FEA3000C0
:1004A00092185B4150EA0107EDD152EA030012D0E5
:1004B00082EA040083EA0501084305D0101BAB4122
:1004C00006D20122002306E000224FF0004302E0A2
:1004D0006FF0010253101AEB06004CEB085110EBC1
:1004E0000A0041EB0B01BDE8F04D00F0DDB80EB5A0
:1004F000C10F80EAE0700844CA07002140F233438C
:100500008DE80E000A460B4600F0DDF803B000BD92
:1005100070B5C1F30A5201F000450024C1F3130184
:1005200040F2FF3341F480119A4201DA002070BD9D
:1005300040F233439A42A2F2334203DC524200F0CB
:100540005AF800E090402C43F1D0404270BD00F0DA
:10055000004230F000400AD0C10D01F56071C0F3D7
:10056000160042EA0151C2084007114370470020BB
:100570000146704701F0004330B421F0004150EAD9
:10058000010206D00A0DA2F56072C1F31301002A20
:1005900002DC30BC00207047440F44EAC104C100B3
:1005A000E01830BC00EBC25000F047B830B50B4645
:1005B000014600202022012409E021FA02F59D4293
:1005C00005D303FA02F5491B04FA02F52844151E67
:1005D000A2F10102F1DC30BD202A04DB203A00FA4E
:1005E00002F1002070479140C2F1200320FA03F38A
:1005F000194390407047202A04DB203A21FA02F088
:100600000021704721FA02F3D040C2F1200291404C
:10061000084319467047202A06DBCB17203A41FAD7
:1006200002F043EAE07306E041FA02F3D040C2F17F
:10063000200291400843194670470029A8BF70471F
:10064000401C490008BF20F00100704710B4B0FA08
:1006500080FC00FA0CF050EA010404BF10BC7047A3
:1006600049B1CCF1200421FA04F411FA0CF118BFBD
:10067000012121430843A3EB0C01CB1D4FEA00618C
:100680004FEA102042BF002010BC704700EBC3505F
:1006900010440029A4BF10BC7047401C490008BF8B
:1006A00020F0010010BC704710B5141E73F1000457
:1006B00008DA401C41F1000192185B411A4301D154
:1006C00020F0010010BD2DE9F04D92469B4611B17E
:1006D000B1FA81F202E0B0FA80F220329046FFF7E0
:1006E0007BFF04460F4640EA0A0041EA0B015346ED
:1006F0005A46084313D0114653EA010019D0C8F1F5
:1007000040025046FFF777FF05460E4650465946D1
:100710004246FFF761FF084305D0012004E0204670
:100720003946BDE8F08D0020054346EAE0762C43CB
:1007300037430A986305E40AA0EB08000022FD0A8B
:1007400044EA47540A3002D500200146E9E7010592
:1007500010196941DDE9084500196941BDE8F04D0E
:10076000A2E70000064C074D06E0E06840F00103F8
:1007700094E8070098471034AC42F6D3FFF708FD21
:1007800038330008583300080EB540F23341029167
:100790000021CDE900110A460B46FFF794FF03B094
:1007A00000BDFEE770B5464C00210846216061603F
:1007B0002172A172E1746218491CD0720829FAD31F
:1007C000404900202218D27A0A54401C0828F9D344
:1007D0003D4D3B4A0021284600F05AFA2068C0F3FC
:1007E0000711582961D1E17BA27C237C01EB0261D6
:1007F000627C120402EB0322114400F00F03334821
:10080000334A012B06D00C2B17D0042B28D0022BF7
:1008100039D04AE0E37A432B47D1237B692B02D0BE
:10082000402B05D041E0627B602A3ED101603CE074
:10083000607B222839D1116037E0E37A432B34D131
:10084000237B692B02D0402B05D02EE0627B602AEF
:100850002BD1416029E0607B222826D1516024E021
:10086000E37A432B21D1237B692B02D0402B05D087
:100870001BE0627B602A18D1816016E0607B222831
:1008800013D1916011E0E37A432B0ED1237B692BC6
:1008900002D0402B05D008E0627B602A05D1C16000
:1008A00003E0607B222800D1D16006490120491E67
:1008B00008702846BDE87040022100F051B80000E1
:1008C000CC00002001000020006400404401002012
:1008D00088010020F0B585B0009000208DF8080058
:1008E0008DF8090004468DF80A2068460A5D031950
:1008F000641CDA72082CF9D3094E0146304600F028
:100900001FFA05464FF6FF7700E0641C2946304683
:1009100000F068FA012801D0BC42F6D105B0F0BD64
:100920000064004010B50D4B002200BF02EB8204B2
:1009300053F8244084420CD102EB820003EB800088
:100940000279CA70027A0A71027B4A71008A0880B1
:1009500010BD521C122AE9D310BD0000AC300008B3
:1009600030B5082310240422B1F5007F1DD010DC1F
:10097000202929D007DC012921D0042922D00829E7
:1009800000D1C46030BD402920D0B1F5807FF9D1BD
:100990000BE00025B1F5004F06D008DCB1F5806F03
:1009A00003D0B1F5006FEDD18561426030BDB1F586
:1009B000803F0DD0B1F5003FF8D1446030BD05490E
:1009C000816030BDC36030BD036130BD046130BDA6
:1009D000436030BD0101010070B58AB001210820DB
:1009E00000F05CFC0320079002208DF820008DF8B9
:1009F00021000024284E8DF8224001258DF8235037
:100A000007A9304600F025FA09220021304600F0FF
:100A100071FA09220121304600F06CFA01214806E2
:100A200000F048FC1D4E304600F03AF8684600F0F1
:100A300077F98DF808408DF809508DF806408DF84B
:100A40000A408DF807408DF80B408DF8024069464A
:100A50004FF4FA70FFF766FF6946304600F0A4F8DD
:100A60008DF816408DF817408DF81850ADF80C40F1
:100A7000ADF81040ADF80E40ADF81240ADF814409E
:100A80008DF8195003A800F021F801220221304608
:100A900000F082F80AB070BD000C02400064004013
:100AA000094910B588424FF0010101D14C0601E01F
:100AB0004FF08064204600F009FC2046BDE810405D
:100AC000002100F003BC000000640040F0B5827A11
:100AD000012191402E4A136843F0010313602C4B0F
:100AE0001C331C688C431C60294D067B294C0C353B
:100AF000A6B92E688E432E604688C78846EA074608
:100B0000877A04EBC707C7F840660688878846EAF5
:100B10000746877A04EBC707C7F84466067B012EB1
:100B200012D12E680E432E60867A056804EBC60645
:100B30004FEA3545C6F84056867A456804EBC60448
:100B40004FEA3545C4F84456114CC57A241D002D92
:100B5000256806D00D4325600D4C0589143415B168
:100B600004E08D43F7E725688D4325600589012D55
:100B700002D125680D432560407B012802D1186809
:100B800008431860106820F001001060F0BD0000FC
:100B90000066004000600040002A426901D00A431C
:100BA00000E08A434261704710B50368002223F0D9
:100BB00002030360036843F0010303604FF6FF7311
:100BC00000E0521C4468E40701D19A42F9D142681E
:100BD000D2073ED08A79012A02683CD022F08002F6
:100BE0000260CA79012A026838D022F0400202600D
:100BF0000A7A012A026834D022F0200202604A7A7E
:100C0000012A026830D022F0100202608A7A012A9A
:100C100002682CD022F008020260CA7A012A026817
:100C200028D022F0040202608A78CC78920742EA47
:100C300004620C7942EA04424C79098842EA04527F
:100C4000491E0A43C261016821F0010101600021CF
:100C500014E0002010BD42F08002C1E742F04002E3
:100C6000C5E742F02002C9E742F01002CDE742F0AA
:100C70000802D1E742F00402D5E7491C4268D207D6
:100C800001D09942F9D14068C007E2D1012010BDDE
:100C900010B500EB0113D3F8B04114F00404147242
:100CA000D3F8B04134D0E408C2F80440D3F8B041DE
:100CB00004F002045472D3F8B44104F00F049472A7
:100CC000D3F8B441240AD474D3F8B841D472D3F819
:100CD000B841240A1473D3F8B841240C5473D3F8E0
:100CE000B841240E9473D3F8BC41D473D3F8BC41FB
:100CF000240A1474D3F8BC41240C5474D3F8BC31C6
:100D00001B0E937439B1016941F02001016110BDDE
:100D1000640D1460CAE7C16841F02001C16010BDD4
:100D200000218171C171017241728172C172817041
:100D3000C1700321017102214171012101807047BD
:100D400030B50246002093685B0108D4906800012A
:100D500001D5012003E09068C00037D5022002EBE6
:100D60000012D2F8803103F00103C2F880310B7A0F
:100D700073B3D2F880414D681C434B7A43EAC503F4
:100D80001C43C2F880418B7A03F00F038B72D2F8B8
:100D9000843123F00F03C2F88431D2F884318C7A85
:100DA0002343C2F88431CB7ACC6843EA0423C2F8E7
:100DB0008831CB7B096943EA0121C2F88C11D2F852
:100DC000801141F00101C2F8801130BD042030BD16
:100DD000D2F880314C7A23430C8843EA4453C2F85A
:100DE0008031D0E7002221B1012905D0022906D1A6
:100DF00012E08268114801E08268114802401149FE
:100E0000501A8A4214D00ADCA2B16FF08060101828
:100E10000FD002280CD10FE082680B48EEE7B0F546
:100E2000007F09D00949401803D0B0F5003F03D036
:100E30000020704702207047012070470300000423
:100E40000003000800010008000003100001FFF784
:100E50007047F0B50023012403270D6804FA03F25C
:100E60001540954242D1D0F800C05E0007FA06F561
:100E70002CEA050CC0F800C091F804C0D0F800E0DE
:100E80000CFA06FC4CEA0E0CC0F800C091F804C045
:100E9000BCF1010F02D0BCF1020F1FD1D0F808C085
:100EA0002CEA050CC0F808C091F805C0D0F808E09D
:100EB0000CFA06FC4CEA0E0CC0F808C0D0F804C0CE
:100EC0002CEA020CC0F804C0426891F806C00CFA83
:100ED00003FC1FFA8CFC42EA0C024260C268AA437F
:100EE000C260CA79C568B2402A43C2605B1C102B3D
:100EF000B3D3F0BD4B07DB0E9A40C90810B500EB29
:100F00008100016A0F249C40A1430162016A1143E0
:100F1000016210BD0AB10183704741837047FEE74B
:100F20001CB50121022000F0B9F9C0200124009075
:100F30008DF8044000208DF8060002208DF8050091
:100F40008DF8074069460448FFF783FF0348C0F85F
:100F50009842C0F89C421CBD000402400080404200
:100F60002DE9FC470121102000F098F94FF4F060C2
:100F70000124DFF8609100908DF8044002278DF87D
:100F8000057069464846FFF764FF0121202000F004
:100F900085F9E002DFF8408100908DF804408DF87B
:100FA000057069464046FFF754FF0121202000F0FC
:100FB00075F98DF80440A0038DF8064003250090D4
:100FC0008DF8055000268DF8076069464046FFF70A
:100FD00040FF0121202000F061F98DF80440E0037A
:100FE0008DF8064000908DF805508DF80760694631
:100FF0004046FFF72EFF0121402000F04FF98DF809
:1010000004408DF80640DFF8D4808DF80550009438
:101010008DF8076069464046FFF71BFF012140201D
:1010200000F03CF98DF804408DF806408DF805502D
:1010300000978DF8076069464046FFF70AFF0121D7
:10104000102000F02BF98DF8044080208DF8064028
:1010500000908DF805508DF8076069464846FFF707
:10106000F8FE0121102000F019F98DF8044020024B
:101070008DF8064000908DF805508DF807606946A0
:101080004846FFF7E6FE0121102000F007F98DF831
:10109000044060028DF8064000908DF805508DF8F0
:1010A000076069464846FFF7D4FE0121102000F092
:1010B000F5F88DF80440A0028DF8064000908DF8F8
:1010C00005508DF8076069464846FFF7C2FEBDE847
:1010D000FC8700000010024000140240001802408B
:1010E00010B5164C012291032046FFF713FF012291
:1010F000D1032046FFF70EFF114C01221146204676
:10110000FFF708FF012202212046FFF703FF0D4CE5
:10111000012280212046FFF7FDFE01221102204618
:10112000FFF7F8FE012251022046FFF7F3FE2046AA
:101130000122BDE810409102FFF7ECBE001402400E
:10114000001802400010024010B5174C00224FF466
:1011500080412046FFF7DEFE00224FF4004120468A
:10116000FFF7D8FE114C002201212046FFF7D2FEE6
:10117000002202212046FFF7CDFE0D4C00228021E7
:101180002046FFF7C7FE0022A1152046FFF7C2FE4A
:10119000002261152046FFF7BDFE002221152046E2
:1011A000BDE81040FFF7B6BE001402400018024030
:1011B00000100240FEE77047F8B500214FF00060D4
:1011C00000F060F84FF4A066304600F051F825209A
:1011D0008DF8000000248DF801408DF802400125B3
:1011E0008DF80350684600F011F814208DF80000C7
:1011F000304600F03DF88DF801408DF802408DF842
:101200000350684600F002F8F8BD000030B50F2228
:10121000C47801780123FCB1144C246801F1E02169
:1012200004F4E064C4F5E064C4F30724C4F10405E5
:10123000E2404478AC408578154025432A0181F886
:101240000024007800F01F018B404009800000F16D
:10125000E020C0F8003130BD01F01F008340480994
:10126000800000F1E020C0F8803130BD0CED00E0DE
:101270000249084302490860704700000000FA056F
:101280000CED00E0024A1140014302480160704742
:1012900080FFFF1F08ED00E070470000044A0029AE
:1012A000116801D0014300E08143116070470000E4
:1012B00030380240044A0029116801D0014300E09F
:1012C000814311607047000040380240044A002901
:1012D000116801D0014300E08143116070470000B4
:1012E00020380240044A0029116801D0014300E07F
:1012F000814311607047000044380240044A0029CD
:10130000116801D0014300E0814311607047000083
:101310002438024070B5204A1168204C11F00C01AD
:1013200004D06610042903D0082903D004601BE010
:10133000066019E01849091F0B68C3F380550B6854
:1013400003F03F0315B1B6FBF3F301E0B4FBF3F395
:101350000C680968C4F388146343C1F30141491C54
:101360004900B3FBF1F1016011680F2303EA111189
:101370000B4B5C5C0168E14041601468072505EA9D
:1013800094241C5D21FA04F48460126805EA523248
:101390009A5CD140C16070BD083802400024F4005E
:1013A000B800002010B50022054B05E0845C9C804D
:1013B0001C886406FCD5521C8A42F7D310BD00007D
:1013C00000100140704700000CB500202749019033
:1013D00000900A6842F480320A604FF4A0630A6801
:1013E00002F400320092019A521C0192009A12B942
:1013F000019A9A42F3D10A68920334D501200090F1
:101400001A484030026842F0805202601848026870
:1014100042F48042026015480830026802600268A7
:1014200042F400420260026842F4A0520260031FCC
:10143000104A1A600A6842F080720A600A689201D3
:10144000FCD50D4A40F205611160016821F00301ED
:101450000160016841F0020101600168C1F381018E
:101460000229FAD10CBD00900CBD000000380240EA
:101470000070004008544007003C02404FF0E0215B
:101480000428086903D020F004000861704740F088
:101490000400FAE700B500F04BF906484168491C22
:1014A0004160B1F5FA7F03D3012101700021416051
:1014B00000BD0000A0000020124810B5016841F4F2
:1014C000700101601048016841F0010101600E4A9D
:1014D00000210832116002680C4B1A400260031DA3
:1014E0000B4A1A60026822F48022026006480C301F
:1014F0000160FFF769FF03494FF000608039086021
:1015000010BD000088ED00E000380240FFFFF6FE4D
:101510001030002410B52F48DFED2F1A9FED2F2A31
:101520002F4C01212DED048B82B090ED000AF8EED6
:10153000C00A80EEA10A20EE029A90ED010AF8EEB0
:10154000C00A80EEA10A60EE028A90ED020AF8EE6F
:10155000C00A80EEA10A20EE028A90ED030A20461E
:10156000B8EEC00AC0EE210A60EE829A00F08DF853
:10157000012825D1F0EE691A9FED1A2AB0EE481A1B
:10158000F0EE680AB0EE490A01F02CFC1A2001F0D6
:1015900063F815491E4891ED020ABDEEC00A8DEDB3
:1015A000000A91ED010ABDEEC00A10EE103A91ED6D
:1015B000000A0EA1BDEEC00A10EE102A00F068FA73
:1015C00002B02046BDEC048B0121BDE8104000F0C4
:1015D0004FB800004401002025FF074900007A446D
:1015E000000400400000C842AC0000204F444F4DB2
:1015F00044545520782025642C2079202564202C03
:101600007A2025642C4454554F444F4D0D0A000058
:10161000B10100207FB50C46054601210220FFF7ED
:1016200049FEADF800400020104CADF80200ADF8C6
:10163000080001956946204600F03CF80122114659
:10164000204600F02EF80121204600F014F81D205D
:101650008DF80C0001208DF80D0003218DF80E107F
:101660008DF80F0003A8FFF7D1FD7FBD00040040F7
:10167000C943018270470029018802D041F001016D
:1016800001E021F001010180704702460020138A29
:1016900092890B4202EA010202D0002A00D0012006
:1016A0007047002A828901D00A4300E08A43828180
:1016B0007047000030B50288164B174C98420DD089
:1016C000A0420BD0B0F1804F08D0144DA84205D0F5
:1016D000134DA84202D0134DA84203D122F0700549
:1016E0004A882A43104DA84206D0104DA84203D084
:1016F00022F440750A892A4302804A68C2620A8835
:101700000285984201D0A04201D1897A0186012147
:10171000818230BD0000014000040140000400400F
:1017200000080040000C0040001000400014004081
:1017300003488168002902D08168491E8160704792
:10174000A000002070B51C4C40F2255529462046CB
:1017500000F004F900B3A3882046194A17495668D7
:101760008B5553685B1C53605368022B0CD3536832
:101770000B4413F8013C012B06D15368194411F8AE
:10178000011C012900D111705168192901D90021CA
:101790005160294600F016F840F227752946204688
:1017A00000F0DCF8002805D029462046BDE870404E
:1017B00000F008B870BD0000001001409801002042
:1017C000980000200A0A01219140C9430180704716
:1017D00010B5028A4C8822F470630A8822438C88F0
:1017E000C9880C4322431A43028210BD00210180A4
:1017F00041808180C18070470029818902D041F4F5
:10180000005101E021F400518181704770B588B02A
:1018100001210920FFF742FD01211020FFF762FDA1
:10182000294D284600F054F8684600F025F906A82E
:10183000FFF7DCFF02218DF814108DF8151000243D
:101840008DF8164001208DF8170040021F4E0490BD
:1018500004A93046FFF7FDFA072209213046FFF7B9
:1018600049FB2815049004A93046FFF7F2FA072235
:101870000A213046FFF73EFB06A92846FFF7A8FFDE
:101880004FF4E1300090ADF808400C20ADF8044072
:10189000ADF80A00ADF80640ADF80C4069462846A0
:1018A00000F094F8012240F22551284600F075F826
:1018B00040F226612846FFF785FF01212846FFF701
:1018C0009BFF08B070BD0000001001400000024006
:1018D0001C4910B5884206D101211020FFF70EFDEA
:1018E0000021102028E01849884202D101214C042F
:1018F00010E01649884202D101218C040AE0144903
:10190000884202D10121CC0404E0124988420AD164
:1019100001210C052046FFF7D9FC2046BDE8104008
:101920000021FFF7D3BC0C49884209D101212020B6
:10193000FFF7E4FC00212020BDE81040FFF7DEBCEB
:1019400010BD00000010014000440040004800406D
:10195000004C0040005000400014014030B501F040
:101960001F0201240025C1F3421304FA02F2012BE5
:101970000FD0022B0FD0838A4FEA11210088134227
:1019800004FA01F400EA040001D000B10125284660
:1019900030BD8389F0E7038AEEE710B5C1F3421347
:1019A00001F01F040121A140012B07D0022B07D019
:1019B0001430002A026805D00A4304E00C30F8E72E
:1019C0001030F6E78A43026010BD00007FB5044680
:1019D000008A0D4620F44051E88808432082A089FF
:1019E00041F20C618843A9882A8911436A8902431C
:1019F0001143A181A08A20F44071A8890843A082E4
:101A00006846FFF787FC1A48844202D0194884428E
:101A100001D1039800E00298A189090400EBC001FC
:101A200001EB0010296801D5490000E08900B0FBF6
:101A3000F1F26420B2FBF0F109010B096FF0180517
:101A40006B4302EB8302A3891D044FF0320306D5DA
:101A500003EBC202B2FBF0F000F0070005E003EB7D
:101A60000212B2FBF0F000F00F00084320817FBDAE
:101A700000100140001401404FF416510160002194
:101A80008180C18001810C22428181817047FEE703
:101A90000FB4084B10B504A902AA039800F016FD74
:101AA000044602A9002000F0BBFD204610BC5DF8F2
:101AB00014FB00002126000803B40198410000989F
:101AC00050EAC12018BF04204A0D18BF40F00100A1
:101AD00040F2FF72B2EB515F08BF40F002000128F4
:101AE00008BF052002B0704710B52F499FED2C1B91
:101AF0002DED020B84B0059820F000408842D8BF3D
:101B00009DED040B2DDD2949884209D1049840B987
:101B10004FF0010000F0D4FC00F0A2FC06B010BDB4
:101B200005DB9DED040B00F08FFC06B010BD684690
:101B30009DED040B00F0A0F810F0030004BF9DED34
:101B4000021B9DED000B0CD001280ED09DED021B59
:101B50009DED000B022817D0012000F0DDFB06B040
:101B600010BD00F0A5FA06B010BD9DED021B9DED65
:101B7000000B012000F0D0FB51EC100B81F0004174
:101B800006B041EC100B10BD00F092FA51EC100BB6
:101B900081F0004106B041EC100B10BD00000000C8
:101BA0000000000000000000FB21E93F0000F07F82
:101BB00010B52F499FED2C1B2DED020B84B005981D
:101BC00020F000408842DCBF00209DED040B32DD98
:101BD0002849884209D1049840B94FF0010000F02B
:101BE0006FFC00F03DFC06B010BD05DB9DED040B65
:101BF00000F02AFC06B010BD68469DED040B00F015
:101C00003BF810F0030011D0012818D09DED021B05
:101C10009DED000B02281AD000F04AFA51EC100B8F
:101C200081F0004106B041EC100B10BD9DED021B90
:101C30009DED000B012000F06FFB06B010BD9DED87
:101C4000021B9DED000B00F033FA06B010BD012021
:101C500000F062FB51EC100B81F0004106B041EC4A
:101C6000100B10BD0000000000000000000000008C
:101C7000FB21E93F0000F07F2DE9F14F04462DEDF7
:101C8000020B2DED088B8AB09FEDE70B80ED020B68
:101C9000139EE74826F0004585420ADC9DED120BB5
:101CA000002084ED000B0AB0BDEC088B03B0BDE84A
:101CB000F08FE0489FEDE0AB9FEDE1BBA84247DD30
:101CC000E14F9FEDE39B9FEDE48B9DED120B53ECF9
:101CD0001A2B51EC100B002E1CDDFEF721FB41EC02
:101CE000100BBD4208D053EC1B2B51EC100BFEF730
:101CF00017FBC4E900010BE053EC192B51EC100B5E
:101D0000FEF70EFB53EC182BFEF70AFBC4E90001AB
:101D10000120C8E7FEF763FA41EC100BBD4208D082
:101D200053EC1B2B51EC100BFEF759FAC4E90001E0
:101D30000BE053EC192B51EC100BFEF750FA53EC5F
:101D4000182BFEF74CFAC4E900014FF0FF30AAE768
:101D5000C348A84279DB9DED120B51EC100B00F04B
:101D6000AFFC41EC180B9FEDC00B53EC102BFEF7B2
:101D7000DDFA9FEDBF1B53EC112BFEF730FAFEF797
:101D8000C7FB0746FEF7B3FB41EC190B53EC1A2BCC
:101D9000FEF7CCFA53EC182BFEF7C5FA41EC180B02
:101DA00053EC1B2B51EC190BFEF7C0FADFF8C8A25D
:101DB00041EC100B4FEA15580125FA4453EC102B57
:101DC00051EC180BFEF7ACFA032DC4E900013DD02D
:101DD000C1F30A5005EB4511A8EB0000113981420F
:101DE00034DA0AEB051BB0EE48AA9BED000BF0EECF
:101DF00068AA53EC102B51EC190BFEF797FA41EC43
:101E00001B0B51EC1A0B53EC1B2BFEF789FA41EC20
:101E1000180B51EC1A0B53EC182BFEF781FA53EC0C
:101E20001B2BFEF77DFA9BED020B41EC1A0B53ECDA
:101E3000102B51EC190BFEF779FA53EC1A2BFEF725
:101E40006FFA41EC100B6D1CB8E70EE0002EA8BF36
:101E50003846BFF628AF94ED000B51EC100B81F023
:101E60000041C4E9000178421DE7C6F3130040F4C5
:101E7000801EC6F30A50A0F2F530471100F01F058E
:101E8000C5F12000DDF848B00890002006900790CA
:101E90000520EC467949002D07EB0002794408BF84
:101EA00051F8221009D051F8223001EB8201AB40E9
:101EB0004A68089922FA01F11943A1FB0E26A1FBF9
:101EC0000B131A449A4234BF0123002303EB060884
:101ED0000CEB8003D3E901A60E448E4234BF0121EE
:101EE000002192448A4411B1924502D903E09245FF
:101EF00001D2012100E00021C3E901A641444CF8D0
:101F00002010011EA0F10100C4DC029800F1005075
:101F1000850F0298DDE903678000DDF81480FEF785
:101F2000E6FA41EC1A0B3046FEF72EFC9FED541BEF
:101F300053EC112BFEF7FAF941EC1B0B3846FEF778
:101F400023FC9FED511B53EC112BFEF7EFF941ECF5
:101F5000180B4046FEF718FC9FED4D1B53EC112B60
:101F6000FEF7E4F941EC190B51EC180B53EC192B6B
:101F7000FEF735F953EC1B2BFEF731F953EC1A2B16
:101F8000FEF72DF9CDE90801002008909DED080B22
:101F900053EC1A2B51EC100BFEF7C2F953EC1B2B30
:101FA000FEF7BEF953EC182BFEF7BAF953EC192BD8
:101FB000FEF7B9F99FED381B53EC112BFEF7B6F97C
:101FC0009FED370B41EC180B53EC102B9DED080BDC
:101FD00051EC100BFEF7AAF953EC182BFEF7FFF8A3
:101FE0009FED310B41EC180B53EC102B9DED080BC2
:101FF00051EC100BFEF79AF953EC182BFEF7EFF8A3
:1020000041EC100B139810F0004F06D06D4251ECCC
:10201000100B81F0004141EC100B284684ED000BC1
:1020200041E6000000000000000000000000000089
:10203000FB21E93F7CD9024000004054FB21F93FDD
:102040003163621A61B4D03DFB21F93F000000000A
:102050000000601A61B4D03D7370032E8A19A33B4F
:10206000FB2139410000000083C8C96D305FE43FA7
:10207000000000000000E03F8A140000D8130000B8
:10208000000000000000103E000000000000103CB6
:10209000000000000000103A182D4454FB21F93DC7
:1020A0003326A611460B113C00000054FB21F93DDC
:1020B00010B52DED040B2DED088B82B0B0EE419ADA
:1020C000F0EE619A0B9820F000449FED4BABB4F119
:1020D000795F11DA9DED0A0B51EC100BFEF718FA3F
:1020E000002801BFB0EE4A0AF0EE6A0A02B0BDEC69
:1020F000088B04BF04B010BD9DED0A0B53EC102BF0
:1021000051EC100BFEF712F941EC180B3C4806217C
:10211000B0EE480AF0EE680A784400F081F853EC1B
:10212000182B51EC100BFEF701F99DED0A0B41EC59
:102130001B0B53EC192B51EC100BFEF7F7F841EC8D
:10214000190B53EC1B2B51EC180BFEF7EFF853EC6B
:10215000192BFEF7E5F89FED2C0B41EC190B53EC16
:10216000102B51EC180BFEF7E1F841EC100B28484E
:10217000844210DA53EC192B51EC100BFEF7D0F817
:1021800053EC1A2BFEF7CFF841EC100B02B0BDEC6C
:10219000088B04B010BD1F48A042BCBF9FED1E1BA2
:1021A0008DED001B06DBA4F50010019000200090CF
:1021B0009DED001B51EC100B53EC112BFEF7B0F80A
:1021C0009DED000B41EC180B53EC102B51EC1A0B4E
:1021D000FEF7A6F841EC1A0B53EC192B51EC180B37
:1021E000FEF79EF853EC1A2BFEF79DF841EC100B0E
:1021F000CCE7000000000000000000000000F03FFD
:10220000FC10000000000000000000000000E03FA3
:102210003333D33F0000E93F000000000000D23F0D
:1022200070B504462DED028B4D1E00EBC500B0EEDF
:10223000408AF0EE608A90ED000B35F0060017D072
:1022400053EC182B51EC100BFEF770F841EC100B0F
:102250006D1E04EBC50090ED001B51EC100B53EC10
:10226000112BFDF7BCFF41EC100B35F00600E7D158
:10227000022D36D0042D1CD0062D1CBFBDEC028BC8
:1022800070BD53EC182B51EC100BFEF74FF894ED8A
:102290000A1B53EC112BFDF7A2FF53EC182BFEF792
:1022A00045F894ED081B53EC112BFDF798FF41EC1A
:1022B000100B53EC182B51EC100BFEF737F894ED84
:1022C000061B53EC112BFDF78AFF53EC182BFEF77E
:1022D0002DF894ED040B53EC102BFDF780FF41EC2F
:1022E000100B53EC182B51EC100BFEF71FF894ED6C
:1022F000021B53EC112BFDF772FF53EC182BFEF76A
:1023000015F894ED001B53EC112BFDF768FFBDECA5
:10231000028B41EC100B70BD31B504462DED040B62
:102320002DED0A8BB0EE41BAF0EE61BA0B989DED3F
:102330000A0B20F00040B0F1795F0DDA51EC100B80
:10234000FFF7BAFB042808BF00F09AF89DED0A0BCE
:10235000BDEC0A8B05B030BD53EC102B51EC100BCB
:10236000FDF7E4FF41EC180B9DED0A0B53EC182B25
:1023700051EC100BFDF7DAFF41EC190B2C48B0EED5
:10238000480AF0EE680A05217844FFF749FF9FEDFF
:102390002ACBB0EE40AAF0EE60AA9CB353EC1C2B03
:1023A00051EC190BFDF7C2FF41EC1C0B53EC1A2B3F
:1023B00051EC190BFDF7BAFF9FED210B41EC190B06
:1023C00053EC102B51EC1B0BFDF7B0FF53EC192B0A
:1023D000FDF7A6FF53EC182BFDF7A8FF53EC1B2BC2
:1023E000FDF79EFF53EC1C2BFDF79AFF9DED0A1B9A
:1023F00053EC112BFDF797FFBDEC0A8B05B041ECB8
:10240000100B30BDFFE753EC1A2B51EC180BFDF706
:102410008DFF53EC1C2BFDF7E2FE53EC192BFDF75F
:1024200085FF9DED0A1B53EC112BFDF7D8FEE3E76A
:10243000840F000000000000495555555555C5BF93
:10244000000000000000E03F10B553EC102B51ECF1
:10245000100BFDF7C4FE41EC100B10BD0000000096
:102460009FED050B10B553EC102B51EC100BFDF745
:10247000CFFF41EC100B10BD000000000000000079
:102480009FED050B10B553EC102B51EC100BFDF725
:102490004DFF41EC100B10BD0000000000000010CB
:1024A00002E008C8121F08C1002AFAD1704770471D
:1024B000002001E001C1121F002AFBD1704700007B
:1024C0000149086070470000C80000202DE9FF4F57
:1024D00089B09B460446002506E025280BD05A46C5
:1024E0000B999047641C6D1C20780028F5D10DB025
:1024F0002846BDE8F08F0027B8460122474900E092
:10250000074314F8013F203B02FA03F00842F7D1D9
:1025100020782E2819D114F8010F47F004072A2833
:102520000ED06FF02F022078A0F1300109290CD8CD
:1025300008EB880102EB410100EB0108641CF2E7A3
:102540000A98641C50F8048B0A9020780028CED09A
:10255000642808D0692806D075281ED05A460B99E1
:1025600090476D1C58E00A994FF00A0901C90A9179
:10257000002802DA40422D2102E0390504D52B2142
:102580008DF82010012103E0F90704D02021F7E79E
:102590008A4608AE0DE00021FAE70A994FF00A09D1
:1025A00001C90A91F7E74946FEF700F8303106F80D
:1025B000011D0028F7D1ADEB060000F120097807D6
:1025C00001D44FF00108C84502DDA8EB090000E086
:1025D00000208046002706E008A85A46C05D0B99F7
:1025E00090476D1C7F1C5745F6DB04E030205A46AF
:1025F0000B9990476D1CB8F10001A8F10108F5DCBA
:1026000005E016F8010B5A460B9990476D1CB9F17D
:102610000001A9F10109F4DC641C65E70928010047
:102620000A68531C0B6010707047000010B5044618
:102630006FF00400FEF722FF0648E10801EB4102BB
:102640000170C2EBC1114FF6FF7202EAC101418075
:1026500010BD00000A00002070B54FF40775B0FBF4
:10266000F5F1CCB2B0FBF5F105FB110604E028460C
:1026700000F00CF8641EE4B2002CF8D1002E04D057
:102680003046BDE8704000F001B870BD0B49498884
:1026900048434FF0E021486100228A61086940F018
:1026A000010008610869C30701D0C003FAD50869B1
:1026B00020F0010008618A61704700000A000020D4
:1026C00082B0CDE9000121F0004001909DED000BAA
:1026D00002B051EC100B704710B5022204490020E3
:1026E000FEF7F8F8BDE810400220FFF7B5BF000084
:1026F0001500002010B504462820FFF7ADFF114853
:102700000222014644700020FEF7E4F82820FFF77B
:10271000A3FF4FF4C0600B49201804464FF0080295
:1027200001F14501FEF7D6F82820FFF795FF05498E
:10273000204608224D31FEF7CDF8BDE81040282094
:10274000FFF78ABF130000202DED0A8B82B0FFF740
:102750005DF8FEF731FDFEF73FF9FEF7E1FBFEF70E
:10276000FFFBA820FFF762FF0220FFF775FF40F68E
:10277000B830FFF771FF01200021FFF7BBFF0C20ED
:102780000021FFF7B7FF04200021FFF7B3FF02206D
:102790000021FFF7AFFFFF490F20887108318871D2
:1027A00008318871083188710220FFF755FF08222F
:1027B000F84940F20160FEF78DF80220FFF74CFF68
:1027C000F44940F20C6A0822083154465046FEF79C
:1027D00081F80220FFF740FFEE4940F2046B082227
:1027E00010315D465846FEF775F80220FFF734FFBA
:1027F000E84940F20266082218313046FEF76AF8CE
:102800000220FFF729FFE34908222831701EFEF756
:1028100061F80220FFF720FFDE4908222831204618
:10282000FEF758F80220FFF717FFDA49082228318F
:102830002846FEF74FF80220FFF70EFFD549082281
:1028400028313046FEF746F80220FFF705FF42F236
:10285000CF0140F2E730FEF7DDFE9FEDCFBAB3EED9
:10286000049AB0EE4B8AFEF76FFCF7EE009A4FF039
:102870000008DFEDCABA9FEDCACADFEDCACADFF8A9
:102880001493A9F1580900BF38EE698AB5EEC08AE1
:10289000F1EE10FA05D2A9F80A80A9F80E80A9F87D
:1028A0001280B5EEC09AF1EE10FA02DD39EE699AA7
:1028B00001E0FEF715FCBC480178012963D14346CD
:1028C00080F800800020B94AB94DBA4903E0145C91
:1028D0002C54401CC0B20C68A042F8D308684C4687
:1028E000C2B289F800200B2A4DD3A370501E0EE00F
:1028F0006B5C532B09D16B185E784A2E05D19E78FC
:10290000542E02D1DB78552B04D0491CA170A1783C
:102910008142EDDBC8B20B30904234D86818807A1F
:10292000012830D1607810B1012814D029E0FFF7D8
:10293000D3FE01200021FFF7DDFE0C200021FFF770
:10294000D9FE04200021FFF7D5FE02200021FFF769
:10295000D1FE01206070A07828444179027901EB12
:10296000022121816181C179827901EB0221A1815A
:10297000E181417A007A01EB002080B220826082FE
:102980006063B0EE4B8A8B49C1F80080B9F90A1038
:102990004FF496624846914200DD4281B0F90A3018
:1029A00085498B4200DA4181B0F90E30934200DD57
:1029B000C281B0F90E208A4200DAC18190ED080A86
:1029C000B0F91210CBEE800A01EE101AB8EEC11A5F
:1029D000F4EEC10AF1EE10FA04D2FDEEE00A10EEB8
:1029E000901A4182CCEE000AB0F9121001EE101AD2
:1029F000B8EEC11AF4EEC10AF1EE10FA04DDFDEEF4
:102A0000E00A10EE901A4182B0F90A20B0F91430B1
:102A1000D11A01F16404C82C1BD9002901D40A463B
:102A200000E09A1A6424624300EE902AF8EEE01A5D
:102A300000EE901AF8EEE00A81EEA01A00EE903A4D
:102A4000F8EEE00A71EE200AFDEEE00A10EE901AB0
:102A50004181B0F90E30B0F91620991A01F16404E1
:102A6000C82C1BD9002901D40B4600E0D31A6424DA
:102A7000634300EE903AB8EEE01A00EE901AF8EEDA
:102A8000E00AC1EE201A00EE902AF8EEE00A71EE9C
:102A9000A00AFDEEE00A10EE901AC181CCEE800A89
:102AA000B0F91240B0F91820A11A01D40B4600E089
:102AB000131B01EE103AB8EEC11AF4EEC10AF1EEA2
:102AC00010FA1BD2002901D40B4600E0131B01EEC3
:102AD000103AB8EEC11A60EE811A00EE901AF8EEC4
:102AE000E00A81EEA01A00EE902AF8EEE00A71EEFC
:102AF000200AFDEEE00A10EE901A4182B0F90A3089
:102B00008382B0F90E40C4821A1900EE902AB0F9FF
:102B100012100183B8EEE01A00EE901A1B1BF8EEBB
:102B2000E00A00EE201AD0ED070A61EE201A01EE4D
:102B3000103AB8EEC12A01EE101AB8EEC11A00EE32
:102B4000012A01EE102AF8EEC12A01EE101A22EE37
:102B5000202AB8EEC11A40EE412A01EE103AB8EE32
:102B6000C13A01EE101A62EEA02A00F12401B8EE7B
:102B7000C11A00EE413ABDEEE10A10EE103ABDEE88
:102B8000C20A63EE200A10EE102AC0ED0C0AC1EC56
:102B9000031A13E0680000200000FA440000964485
:102BA000000096C40000C842980000209801002050
:102BB000E00000209C00002050FBFFFFB1EE620A05
:102BC0008363BDEEC00A1D0A10EE101AB1EE600A52
:102BD000C0E90F21BDEEC00A754810EE104AC9F8D1
:102BE0004440037145711D0C85711B0EC371083083
:102BF000130A02714371130C8371120EC2710830F3
:102C00000A0A017142710A0C8271090EC171083001
:102C1000210A04714171210C8171210EC1710220C0
:102C2000FFF71AFD40F20165082261492846FDF7C9
:102C300051FE0220FFF710FD5D490822083157467A
:102C40005046FDF747FE0220FFF706FD58490822CF
:102C500010315E465846FDF73DFE0220FFF7FCFCB2
:102C600053496C1C082218312046FDF733FE022020
:102C7000FFF7F2FC4E49082220312846FDF72AFED4
:102C80000220FFF7E9FC4A49082220313846FDF7C7
:102C900021FE0220FFF7E0FC4549082220313046A2
:102CA000FDF718FE0220FFF7D7FC4149082220312A
:102CB0002046FDF70FFE0220FFF7CEFC3C4908221C
:102CC00028312846FDF706FE0220FFF7C5FC3849EB
:102CD000082228313846FDF7FDFD0220FFF7BCFC35
:102CE0003349082228313046FDF7F4FD0220FFF772
:102CF000B3FC2F49082228312046FDF7EBFD0220C6
:102D0000FFF7AAFC1A20FFF7A7FC2A4CDFED2A8A5E
:102D100094ED030AF8EEC00A80EEA80A10EE100A3D
:102D2000FDF715FC9FED25AB53EC1A2BFDF7FEFAD2
:102D3000FDF7EEFB94ED020A0746F8EEC00A80EEBE
:102D4000A80A10EE100AFDF702FC53EC1A2BFDF74F
:102D5000EDFAFDF7DDFB94ED010A0646F8EEC00A38
:102D600080EEA80A10EE100AFDF7F1FB53EC1A2BC7
:102D7000FDF7DCFAFDF7CCFB94ED000A0546F8EE12
:102D8000C00A80EEA80A10EE100AFDF7E0FB53EC33
:102D90001A2BFDF7CBFAFDF7BBFB02462B4609A128
:102DA00004F11000CDE90067FEF772FE6CE500004B
:102DB000680000204401002025FF074900000000B2
:102DC00000408F40535045454444545525642C25BC
:102DD000642C25642C256444545553504545440DBA
:102DE0000A0000002DE9F0432DED0C8BB0EE41BA46
:102DF000BDEEC08AB1EE4B0AF0EE61AABDEEC00A8C
:102E0000FDEEE08A4A4810EE105AB1EE6A0A0068F8
:102E1000BDEEC00A83B0F0EE42BA18EE107A18EE9A
:102E2000906A10EE104A8046FDF791FB9FED41CB72
:102E300053EC1C2BFDF77AFA41EC190B07EB060952
:102E400009EB05002044FDF752FB53EC192BFDF76D
:102E5000DFFAFDF78FFB0AEE100A4046FDF777FB1D
:102E600053EC1C2BFDF762FA41EC190BB81B2844FC
:102E7000001BFDF73CFB53EC192BFDF7C9FAFDF7DE
:102E800079FB09EE900A2D480068FDF760FB41ECE4
:102E90001D0B4046FDF75BFB53EC1C2BFDF746FA80
:102EA00053EC1D2BFDF742FA41EC1C0BA9EB05007E
:102EB000001BFDF71CFB53EC1C2BFDF7A9FAFDF7DB
:102EC00059FB09EE100A1EA12648BDEEC90A8DED78
:102ED000000ABDEEE90A10EE103ABDEECA0A10EE85
:102EE000102AFEF7D5FDFDEEEA0ABDEECB0A18EE7C
:102EF000903A18EE102A1CA11A488DEC020AFEF72F
:102F0000C7FD1848FDF764F901461648FEF74AFA6E
:102F100003B0F0EE6B1AB0EE491AF0EE690AB0EEAB
:102F20004A0ABDEC0C8BBDE8F04300F035B8000058
:102F30002C000020000000000000104030000020A5
:102F40004F444F4D44545520782025642C2079203F
:102F50002564202C7A2025642C4454554F444F4D31
:102F60000D0A0000B10100204F444F4D445455203C
:102F700077312025642C207732202564202C77336C
:102F80002025642C2077342025642C4454554F444C
:102F90004F4D0D0A0000000010B52DED088BF0EE2E
:102FA000618AB0EE60AA21EE288AF0EE40AA18EEFF
:102FB000100AFDF7CCFA41EC100BFEF7F9FD3A4C84
:102FC000B0EE409AF0EE609A6068FDF7C0FA53ECFC
:102FD000192BFDF7ABF941EC190B18EE100AFDF7B0
:102FE000B6FA41EC100BFEF77FFDB0EE40BAF0EE02
:102FF00060BA2068FDF7ABFA53EC1B2BFDF796F98E
:103000002AEEA80A41EC1B0B10EE100AFDF79FFAFE
:1030100053EC1B2BFDF7E3F853EC192BFDF780F96C
:10302000FDF7A8FA206018EE100AFDF790FA41ECBF
:10303000100BFEF7BDFDB0EE409AF0EE609A6068AE
:10304000FDF785FA53EC192BFDF770F941EC190BDC
:1030500018EE100AFDF77BFA41EC100BFEF744FD69
:10306000B0EE40BAF0EE60BA2068FDF770FA53ECAB
:103070001B2BFDF75BF92AEE280A41EC1B0B10EE27
:10308000100AFDF764FA53EC1B2BFDF7A8F853EC7C
:10309000192BFDF7A4F8FDF76DFA606084ED028A44
:1030A000BDEC088B10BD0000AC0000200500000046
:1030B000000000000C00000001000000C201000040
:1030C0000A000000000000000500000001000000F0
:1030D000900100000F000000000000000C00000044
:1030E0000100000096000000140000000000000035
:1030F0000500000001000000C800000019000000E9
:103100000000000005000000070000007000000043
:103110002800000000000000050000000100000081
:103120006400000032000000000000000500000004
:1031300007000000380000003E0000000000000012
:103140000C000000010000002400000050000000FE
:103150000000000005000000010000003200000037
:1031600064000000000000000500000007000000EF
:103170001C0000007D000000000000000C000000AA
:103180000100000012000000C80000000000000064
:1031900005000000070000000E000000FA0000001B
:1031A000000000000E000000040000000800000005
:1031B00090010000000000000E000000040000006C
:1031C00005000000F4010000000000000E000000F7
:1031D00004000000040000009A020000000000004B
:1031E00004000000010000000800000020030000AF
:1031F0000000000007000000020000000E000000B8
:10320000E8030000000000000E00000004000000C1
:1032100002000000000000004C5555555555A53FD3
:103220007751C1166CC156BF9015CB19A001FA3E5B
:10323000AD529C804F7E92BEC4B1B4BD9EEE213E85
:10324000D43888BEE9FAA8BD00004054FB21F93FFC
:103250003163621A61B4D03D0000601A61B4D03DA0
:103260007370032E8A19A33B0000002E8A19A33B1A
:10327000C14920259A837B3900000000000000002E
:103280006E83F9A22915444ED15727FCC0DD34F5D1
:10329000999562DB4190433CAB6351FE61C5BBDE57
:1032A0003A6E24B7E0D24D42EA2E49061C92D1096B
:1032B0001CEB1DFE3EA729B1F53582E88444BB2EE8
:1032C00026709CE9417E5FB439D69139F439538335
:1032D0008B5F849C3B28F9BDFF97F81F0F9805DE94
:1032E0008B112FEF1F6D0A5ACF7E366DB709CB2792
:1032F000663F464F2DEA5F9EC7BA27757BF1E5EB27
:10330000F739073DEA92528AB15FFB6B085D8D1F6A
:10331000A6F810111111813FD561C119A0012ABF72
:103320007DFEB157E31DC73EEB9C2B8AE6E55ABEF6
:103330007CD5CF5A3AD9E53D58330008000000202B
:10334000CC000000A024000824340008CC00002099
:103350001C050000B0240008000000000000000070
:103360000000000000000000000000010F010F003D
:10337000000000000000000000000000000000004D
:1033800000000000D4247145B81E153F0000000065
:10339000000000000000000000000000000000002D
:1033A000000000000000000000000000000000001D
:1033B0002F606000030000002B4060001F00000031
:1033C00023FF60000000000023FF600000000000F9
:1033D00023FF60000000000023FF600000000000E9
:1033E000A04022007F0E0000A06960007F0E000058
:1033F00000000000000000000000000000000000CD
:1034000000000000000000000000000000000000BC
:10341000000000000102030401020304060708097A
:0434200000000000A8
:040000050800018965
:00000001FF
