:020000040800F2
:10000000180600209D010008B71100081F0F000806
:10001000B5110008A30700086B1A000800000000D3
:10002000000000000000000000000000C5130008F0
:10003000510E0008000000009912000895140008F5
:10004000C1010008C1010008C1010008C101000888
:10005000C1010008C1010008C1010008C101000878
:10006000C1010008C1010008C1010008C101000868
:10007000C1010008C1010008C1010008C101000858
:10008000C1010008C1010008C1010008C101000848
:10009000A5070008C1010008C1010008C10100084E
:1000A000C1010008C1010008C1010008C101000828
:1000B000C101000815150008C1010008C1010008B0
:1000C000C1010008C1010008C1010008C101000808
:1000D000C101000821170008C1010008C101000882
:1000E000C1010008C1010008C1010008C1010008E8
:1000F000C1010008C1010008C1010008C1010008D8
:10010000C1010008C1010008C1010008C1010008C7
:10011000C1010008C1010008C1010008C1010008B7
:10012000C1010008C1010008C1010008C1010008A7
:10013000C1010008C1010008C1010008C101000897
:10014000C1010008C1010008C1010008C101000887
:10015000C1010008C1010008C1010008C101000877
:10016000C1010008C1010008C1010008C101000867
:10017000C1010008C1010008C1010008C101000857
:10018000C1010008C1010008DFF80CD000F0EAFA54
:100190000048004729270008180600200948016880
:1001A00041F4700101600848804708480047FEE7B5
:1001B000FEE7FEE7FEE7FEE7FEE7FEE7FEE7FEE717
:1001C000FEE7000088ED00E0B9140008890100088E
:1001D000421C10F8011B0029FBD1801A70472DE941
:1001E000FE4F804681EA0300C00F0C46009021F0CC
:1001F000004123F00045B8EB0200A94105D240467A
:10020000214690461C460B46024623F00040104310
:1002100047D0270DC7F30A00C3F30A510290401AD2
:10022000019040286BDAC3F3130040F4801B009860
:10023000924620B10023D2EB030A63EB0B0B01982B
:100240005946C0F14002504600F0C6F906460D4638
:1002500050465946019A00F0DEF910EB0800614162
:10026000002487EA115284EAE7731A4340D0009AC7
:1002700062B3019A012A4FEA075215DC001B61EBB9
:1002800002014FF0004202EA0752CDE90042001C91
:1002900041F5801132462B4600F015FA03B0BDE857
:1002A000F08F40462146F9E7001B61EB0201001C7C
:1002B00041F5801300185B412018A2F5001747EBA9
:1002C000030140EAD570B6196D4111E06D084FEA9F
:1002D000360645EAC0754FEA0752001B61EB020182
:1002E000001C41F5801149084FEA300000195141C6
:1002F00032462B4603B0BDE8F04F00F0D5B9009868
:10030000012240000023D0EB020263EBE07300986F
:1003100021464FEAE074B8EB000061EB0401E9E725
:1003200083F000435BE781F0004158E72DE9FE4F81
:1003300081EA030404F0004421F0004100944FF0EE
:10034000000B23F0004350EA01045ED052EA03049C
:100350005BD0C3F30A54C1F30A552C44A4F2F3341E
:100360000194A0FB0254C1F3130141F48011C3F3C3
:10037000130343F4801301FB024400FB034E840A81
:10038000970A44EA815447EA8357A4FB0768029519
:100390008D0A05FB07854FEA932C04FB0C542705B7
:1003A000029D4FEA065847EA1637B5EB08056EEB93
:1003B000070C870E920E47EA811742EA8312A7FBC9
:1003C0000201B6EB0B0164EB00042B0D43EA0C3386
:1003D0005E1844EB1C50DA465146E7FB0201C5F3B8
:1003E00013044FEA0B3343EA14534FEA0432019CDF
:1003F00043EA0603A4F10C040294009CCDE900B486
:1004000000F061F903B0BDE8F08F00200146F9E784
:100410002DE9F04D81EA030404F0004B21F0004582
:1004200014464FF0000A23F0004150EA050220D0A4
:1004300054EA01021DD0C5F30A570246C5F313035F
:10044000C1F31300C1F30A5640F4801543F480133E
:10045000A7EB0608101BD64608F2FD3873EB050023
:1004600002D308F1010801E092185B41B8F1000FD6
:1004700003DA00200146BDE8F08D00204FF4801122
:10048000064684460EE0171B73EB050705D3121BC7
:1004900063EB050306434CEA010C49084FEA3000C0
:1004A00092185B4150EA0107EDD152EA030012D0E5
:1004B00082EA040083EA0501084305D0101BAB4122
:1004C00006D20122002306E000224FF0004302E0A2
:1004D0006FF0010253101AEB06004CEB085110EBC1
:1004E0000A0041EB0B01BDE8F04D00F0DDB80EB5A0
:1004F000C10F80EAE0700844CA07002140F233438C
:100500008DE80E000A460B4600F0DDF803B000BD92
:1005100070B5C1F30A5201F000450024C1F3130184
:1005200040F2FF3341F480119A4201DA002070BD9D
:1005300040F233439A42A2F2334203DC524200F0CB
:100540005AF800E090402C43F1D0404270BD00F0DA
:10055000004230F000400AD0C10D01F56071C0F3D7
:10056000160042EA0151C2084007114370470020BB
:100570000146704701F0004330B421F0004150EAD9
:10058000010206D00A0DA2F56072C1F31301002A20
:1005900002DC30BC00207047440F44EAC104C100B3
:1005A000E01830BC00EBC25000F047B830B50B4645
:1005B000014600202022012409E021FA02F59D4293
:1005C00005D303FA02F5491B04FA02F52844151E67
:1005D000A2F10102F1DC30BD202A04DB203A00FA4E
:1005E00002F1002070479140C2F1200320FA03F38A
:1005F000194390407047202A04DB203A21FA02F088
:100600000021704721FA02F3D040C2F1200291404C
:10061000084319467047202A06DBCB17203A41FAD7
:1006200002F043EAE07306E041FA02F3D040C2F17F
:10063000200291400843194670470029A8BF70471F
:10064000401C490008BF20F00100704710B4B0FA08
:1006500080FC00FA0CF050EA010404BF10BC7047A3
:1006600049B1CCF1200421FA04F411FA0CF118BFBD
:10067000012121430843A3EB0C01CB1D4FEA00618C
:100680004FEA102042BF002010BC704700EBC3505F
:1006900010440029A4BF10BC7047401C490008BF8B
:1006A00020F0010010BC704710B5141E73F1000457
:1006B00008DA401C41F1000192185B411A4301D154
:1006C00020F0010010BD2DE9F04D92469B4611B17E
:1006D000B1FA81F202E0B0FA80F220329046FFF7E0
:1006E0007BFF04460F4640EA0A0041EA0B015346ED
:1006F0005A46084313D0114653EA010019D0C8F1F5
:1007000040025046FFF777FF05460E4650465946D1
:100710004246FFF761FF084305D0012004E0204670
:100720003946BDE8F08D0020054346EAE0762C43CB
:1007300037430A986305E40AA0EB08000022FD0A8B
:1007400044EA47540A3002D500200146E9E7010592
:1007500010196941DDE9084500196941BDE8F04D0E
:10076000A2E70000064C074D06E0E06840F00103F8
:1007700094E8070098471034AC42F6D3FFF708FD21
:1007800030330008503300080EB540F23341029177
:100790000021CDE900110A460B46FFF794FF03B094
:1007A00000BDFEE770B5464C00210846216061603F
:1007B0002172A172E1746218491CD0720829FAD31F
:1007C000404900202218D27A0A54401C0828F9D344
:1007D0003D4D3B4A0021284600F05AFA2068C0F3FC
:1007E0000711582961D1E17BA27C237C01EB0261D6
:1007F000627C120402EB0322114400F00F03334821
:10080000334A012B06D00C2B17D0042B28D0022BF7
:1008100039D04AE0E37A432B47D1237B692B02D0BE
:10082000402B05D041E0627B602A3ED101603CE074
:10083000607B222839D1116037E0E37A432B34D131
:10084000237B692B02D0402B05D02EE0627B602AEF
:100850002BD1416029E0607B222826D1516024E021
:10086000E37A432B21D1237B692B02D0402B05D087
:100870001BE0627B602A18D1816016E0607B222831
:1008800013D1916011E0E37A432B0ED1237B692BC6
:1008900002D0402B05D008E0627B602A05D1C16000
:1008A00003E0607B222800D1D16006490120491E67
:1008B00008702846BDE87040022100F051B80000E1
:1008C000CC00002001000020006400404401002012
:1008D00088010020F0B585B0009000208DF8080058
:1008E0008DF8090004468DF80A2068460A5D031950
:1008F000641CDA72082CF9D3094E0146304600F028
:100900001FFA05464FF6FF7700E0641C2946304683
:1009100000F068FA012801D0BC42F6D105B0F0BD64
:100920000064004010B50D4B002200BF02EB8204B2
:1009300053F8244084420CD102EB820003EB800088
:100940000279CA70027A0A71027B4A71008A0880B1
:1009500010BD521C122AE9D310BD0000A8300008B7
:1009600030B5082310240422B1F5007F1DD010DC1F
:10097000202929D007DC012921D0042922D00829E7
:1009800000D1C46030BD402920D0B1F5807FF9D1BD
:100990000BE00025B1F5004F06D008DCB1F5806F03
:1009A00003D0B1F5006FEDD18561426030BDB1F586
:1009B000803F0DD0B1F5003FF8D1446030BD05490E
:1009C000816030BDC36030BD036130BD046130BDA6
:1009D000436030BD0101010070B58AB001210820DB
:1009E00000F05CFC0320079002208DF820008DF8B9
:1009F00021000024284E8DF8224001258DF8235037
:100A000007A9304600F025FA09220021304600F0FF
:100A100071FA09220121304600F06CFA01214806E2
:100A200000F048FC1D4E304600F03AF8684600F0F1
:100A300077F98DF808408DF809508DF806408DF84B
:100A40000A408DF807408DF80B408DF8024069464A
:100A50004FF4FA70FFF766FF6946304600F0A4F8DD
:100A60008DF816408DF817408DF81850ADF80C40F1
:100A7000ADF81040ADF80E40ADF81240ADF814409E
:100A80008DF8195003A800F021F801220221304608
:100A900000F082F80AB070BD000C02400064004013
:100AA000094910B588424FF0010101D14C0601E01F
:100AB0004FF08064204600F009FC2046BDE810405D
:100AC000002100F003BC000000640040F0B5827A11
:100AD000012191402E4A136843F0010313602C4B0F
:100AE0001C331C688C431C60294D067B294C0C353B
:100AF000A6B92E688E432E604688C78846EA074608
:100B0000877A04EBC707C7F840660688878846EAF5
:100B10000746877A04EBC707C7F84466067B012EB1
:100B200012D12E680E432E60867A056804EBC60645
:100B30004FEA3545C6F84056867A456804EBC60448
:100B40004FEA3545C4F84456114CC57A241D002D92
:100B5000256806D00D4325600D4C0589143415B168
:100B600004E08D43F7E725688D4325600589012D55
:100B700002D125680D432560407B012802D1186809
:100B800008431860106820F001001060F0BD0000FC
:100B90000066004000600040002A426901D00A431C
:100BA00000E08A434261704710B50368002223F0D9
:100BB00002030360036843F0010303604FF6FF7311
:100BC00000E0521C4468E40701D19A42F9D142681E
:100BD000D2073ED08A79012A02683CD022F08002F6
:100BE0000260CA79012A026838D022F0400202600D
:100BF0000A7A012A026834D022F0200202604A7A7E
:100C0000012A026830D022F0100202608A7A012A9A
:100C100002682CD022F008020260CA7A012A026817
:100C200028D022F0040202608A78CC78920742EA47
:100C300004620C7942EA04424C79098842EA04527F
:100C4000491E0A43C261016821F0010101600021CF
:100C500014E0002010BD42F08002C1E742F04002E3
:100C6000C5E742F02002C9E742F01002CDE742F0AA
:100C70000802D1E742F00402D5E7491C4268D207D6
:100C800001D09942F9D14068C007E2D1012010BDDE
:100C900010B500EB0113D3F8B04114F00404147242
:100CA000D3F8B04134D0E408C2F80440D3F8B041DE
:100CB00004F002045472D3F8B44104F00F049472A7
:100CC000D3F8B441240AD474D3F8B841D472D3F819
:100CD000B841240A1473D3F8B841240C5473D3F8E0
:100CE000B841240E9473D3F8BC41D473D3F8BC41FB
:100CF000240A1474D3F8BC41240C5474D3F8BC31C6
:100D00001B0E937439B1016941F02001016110BDDE
:100D1000640D1460CAE7C16841F02001C16010BDD4
:100D200000218171C171017241728172C172817041
:100D3000C1700321017102214171012101807047BD
:100D400030B50246002093685B0108D4906800012A
:100D500001D5012003E09068C00037D5022002EBE6
:100D60000012D2F8803103F00103C2F880310B7A0F
:100D700073B3D2F880414D681C434B7A43EAC503F4
:100D80001C43C2F880418B7A03F00F038B72D2F8B8
:100D9000843123F00F03C2F88431D2F884318C7A85
:100DA0002343C2F88431CB7ACC6843EA0423C2F8E7
:100DB0008831CB7B096943EA0121C2F88C11D2F852
:100DC000801141F00101C2F8801130BD042030BD16
:100DD000D2F880314C7A23430C8843EA4453C2F85A
:100DE0008031D0E7002221B1012905D0022906D1A6
:100DF00012E08268114801E08268114802401149FE
:100E0000501A8A4214D00ADCA2B16FF08060101828
:100E10000FD002280CD10FE082680B48EEE7B0F546
:100E2000007F09D00949401803D0B0F5003F03D036
:100E30000020704702207047012070470300000423
:100E40000003000800010008000003100001FFF784
:100E50007047F0B50023012403270D6804FA03F25C
:100E60001540954242D1D0F800C05E0007FA06F561
:100E70002CEA050CC0F800C091F804C0D0F800E0DE
:100E80000CFA06FC4CEA0E0CC0F800C091F804C045
:100E9000BCF1010F02D0BCF1020F1FD1D0F808C085
:100EA0002CEA050CC0F808C091F805C0D0F808E09D
:100EB0000CFA06FC4CEA0E0CC0F808C0D0F804C0CE
:100EC0002CEA020CC0F804C0426891F806C00CFA83
:100ED00003FC1FFA8CFC42EA0C024260C268AA437F
:100EE000C260CA79C568B2402A43C2605B1C102B3D
:100EF000B3D3F0BD4B07DB0E9A40C90810B500EB29
:100F00008100016A0F249C40A1430162016A1143E0
:100F1000016210BD0AB10183704741837047FEE74B
:100F20001CB50121022000F0B9F9C0200124009075
:100F30008DF8044000208DF8060002208DF8050091
:100F40008DF8074069460448FFF783FF0348C0F85F
:100F50009842C0F89C421CBD000402400080404200
:100F60002DE9FC470121102000F098F94FF4F060C2
:100F70000124DFF8609100908DF8044002278DF87D
:100F8000057069464846FFF764FF0121202000F004
:100F900085F9E002DFF8408100908DF804408DF87B
:100FA000057069464046FFF754FF0121202000F0FC
:100FB00075F98DF80440A0038DF8064003250090D4
:100FC0008DF8055000268DF8076069464046FFF70A
:100FD00040FF0121202000F061F98DF80440E0037A
:100FE0008DF8064000908DF805508DF80760694631
:100FF0004046FFF72EFF0121402000F04FF98DF809
:1010000004408DF80640DFF8D4808DF80550009438
:101010008DF8076069464046FFF71BFF012140201D
:1010200000F03CF98DF804408DF806408DF805502D
:1010300000978DF8076069464046FFF70AFF0121D7
:10104000102000F02BF98DF8044080208DF8064028
:1010500000908DF805508DF8076069464846FFF707
:10106000F8FE0121102000F019F98DF8044020024B
:101070008DF8064000908DF805508DF807606946A0
:101080004846FFF7E6FE0121102000F007F98DF831
:10109000044060028DF8064000908DF805508DF8F0
:1010A000076069464846FFF7D4FE0121102000F092
:1010B000F5F88DF80440A0028DF8064000908DF8F8
:1010C00005508DF8076069464846FFF7C2FEBDE847
:1010D000FC8700000010024000140240001802408B
:1010E00010B5164C012291032046FFF713FF012291
:1010F000D1032046FFF70EFF114C01221146204676
:10110000FFF708FF012202212046FFF703FF0D4CE5
:10111000012280212046FFF7FDFE01221102204618
:10112000FFF7F8FE012251022046FFF7F3FE2046AA
:101130000122BDE810409102FFF7ECBE001402400E
:10114000001802400010024010B5174C00224FF466
:1011500080412046FFF7DEFE00224FF4004120468A
:10116000FFF7D8FE114C002201212046FFF7D2FEE6
:10117000002202212046FFF7CDFE0D4C00228021E7
:101180002046FFF7C7FE0022A1152046FFF7C2FE4A
:10119000002261152046FFF7BDFE002221152046E2
:1011A000BDE81040FFF7B6BE001402400018024030
:1011B00000100240FEE77047F8B500214FF00060D4
:1011C00000F060F84FF4A066304600F051F825209A
:1011D0008DF8000000248DF801408DF802400125B3
:1011E0008DF80350684600F011F814208DF80000C7
:1011F000304600F03DF88DF801408DF802408DF842
:101200000350684600F002F8F8BD000030B50F2228
:10121000C47801780123FCB1144C246801F1E02169
:1012200004F4E064C4F5E064C4F30724C4F10405E5
:10123000E2404478AC408578154025432A0181F886
:101240000024007800F01F018B404009800000F16D
:10125000E020C0F8003130BD01F01F008340480994
:10126000800000F1E020C0F8803130BD0CED00E0DE
:101270000249084302490860704700000000FA056F
:101280000CED00E0024A1140014302480160704742
:1012900080FFFF1F08ED00E070470000044A0029AE
:1012A000116801D0014300E08143116070470000E4
:1012B00030380240044A0029116801D0014300E09F
:1012C000814311607047000040380240044A002901
:1012D000116801D0014300E08143116070470000B4
:1012E00020380240044A0029116801D0014300E07F
:1012F000814311607047000044380240044A0029CD
:10130000116801D0014300E0814311607047000083
:101310002438024070B5204A1168204C11F00C01AD
:1013200004D06610042903D0082903D004601BE010
:10133000066019E01849091F0B68C3F380550B6854
:1013400003F03F0315B1B6FBF3F301E0B4FBF3F395
:101350000C680968C4F388146343C1F30141491C54
:101360004900B3FBF1F1016011680F2303EA111189
:101370000B4B5C5C0168E14041601468072505EA9D
:1013800094241C5D21FA04F48460126805EA523248
:101390009A5CD140C16070BD083802400024F4005E
:1013A000B800002010B50022054B05E0845C9C804D
:1013B0001C886406FCD5521C8A42F7D310BD00007D
:1013C00000100140704700000CB500202749019033
:1013D00000900A6842F480320A604FF4A0630A6801
:1013E00002F400320092019A521C0192009A12B942
:1013F000019A9A42F3D10A68920334D501200090F1
:101400001A484030026842F0805202601848026870
:1014100042F48042026015480830026802600268A7
:1014200042F400420260026842F4A0520260031FCC
:10143000104A1A600A6842F080720A600A689201D3
:10144000FCD50D4A40F205611160016821F00301ED
:101450000160016841F0020101600168C1F381018E
:101460000229FAD10CBD00900CBD000000380240EA
:101470000070004008544007003C02404FF0E0215B
:101480000428086903D020F004000861704740F088
:101490000400FAE700B500F039F906484168491C34
:1014A0004160B1F5FA7F03D3012101700021416051
:1014B00000BD0000A0000020124810B5016841F4F2
:1014C000700101601048016841F0010101600E4A9D
:1014D00000210832116002680C4B1A400260031DA3
:1014E0000B4A1A60026822F48022026006480C301F
:1014F0000160FFF769FF03494FF000608039086021
:1015000010BD000088ED00E000380240FFFFF6FE4D
:101510001030002410B52848284C01212DED048BF3
:1015200082B090ED000AF8EEC09A90ED010AB8EE94
:10153000C09A90ED020AF8EEC08A90ED030A2046A8
:10154000B8EEC08A00F08FF801282CD1F0EE481ACE
:101550009FED1B2AB0EE681AF0EE490AB0EE690A58
:1015600001F052FC1A2001F067F8164816A190ED20
:10157000020ABDEEC00A8DED000A90ED010ABDEE33
:10158000C00A10EE103A90ED000A1848BDEEC00AED
:1015900010EE102A00F06AFA1448FEF719FE014610
:1015A0001248FFF7FFFE02B02046BDEC048B01217C
:1015B000BDE8104000F04AB844010020000400409B
:1015C000CDCC4C3EAC0000204F444F4D44545520F0
:1015D000782025642C2079202564202C7A2025640D
:1015E0002C4454554F444F4D0D0A0000B1010020CA
:1015F0007FB50C46054601210220FFF75BFEADF8E2
:1016000000400020104CADF80200ADF80800019534
:101610006946204600F03CF801221146204600F0C1
:101620002EF80121204600F014F81D208DF80C0042
:1016300001208DF80D0003218DF80E108DF80F009C
:1016400003A8FFF7E3FD7FBD00040040C94301820A
:1016500070470029018802D041F0010101E021F02A
:1016600001010180704702460020138A92890B42D3
:1016700002EA010202D0002A00D001207047002AAD
:10168000828901D00A4300E08A43828170470000CA
:1016900030B50288164B174C98420DD0A0420BD0A3
:1016A000B0F1804F08D0144DA84205D0134DA84288
:1016B00002D0134DA84203D122F070054A882A4374
:1016C000104DA84206D0104DA84203D022F4407518
:1016D0000A892A4302804A68C2620A8802859842BF
:1016E00001D0A04201D1897A01860121818230BDD9
:1016F00000000140000401400004004000080040D8
:10170000000C0040001000400014004003488168B5
:10171000002902D08168491E81607047A000002026
:1017200070B51C4C40F225552946204600F004F9BE
:1017300000B3A3882046194A174956688B55536849
:101740005B1C53605368022B0CD353680B4413F893
:10175000013C012B06D15368194411F8011C0129E1
:1017600000D111705168192901D900215160294611
:1017700000F016F840F227752946204600F0DCF804
:10178000002805D029462046BDE8704000F008B882
:1017900070BD00000010014098010020980000205A
:1017A0000A0A01219140C9430180704710B5028A9D
:1017B0004C8822F470630A8822438C88C9880C43C1
:1017C00022431A43028210BD0021018041808180A2
:1017D000C18070470029818902D041F4005101E0A5
:1017E00021F400518181704770B588B00121092032
:1017F000FFF754FD01211020FFF774FD294D284605
:1018000000F054F8684600F025F906A8FFF7DCFF61
:1018100002218DF814108DF8151000248DF8164053
:1018200001208DF8170040021F4E049004A9304695
:10183000FFF70FFB072209213046FFF75BFB281556
:10184000049004A93046FFF704FB07220A21304622
:10185000FFF750FB06A92846FFF7A8FF4FF4E13039
:101860000090ADF808400C20ADF80440ADF80A0037
:10187000ADF80640ADF80C406946284600F094F8F3
:10188000012240F22551284600F075F840F2266109
:101890002846FFF785FF01212846FFF79BFF08B088
:1018A00070BD000000100140000002401C4910B54E
:1018B000884206D101211020FFF720FD00211020D1
:1018C00028E01849884202D101214C0410E0164951
:1018D000884202D101218C040AE01449884202D1D5
:1018E0000121CC0404E0124988420AD101210C05EF
:1018F0002046FFF7EBFC2046BDE810400021FFF733
:10190000E5BC0C49884209D101212020FFF7F6FCF3
:1019100000212020BDE81040FFF7F0BC10BD000002
:10192000001001400044004000480040004C0040CE
:10193000005000400014014030B501F01F020124A6
:101940000025C1F3421304FA02F2012B0FD0022B3F
:101950000FD0838A4FEA11210088134204FA01F460
:1019600000EA040001D000B10125284630BD83897A
:10197000F0E7038AEEE710B5C1F3421301F01F044C
:101980000121A140012B07D0022B07D01430002ADF
:10199000026805D00A4304E00C30F8E71030F6E79F
:1019A0008A43026010BD00007FB50446008A0D46E0
:1019B00020F44051E88808432082A08941F20C615C
:1019C0008843A9882A8911436A8902431143A18166
:1019D000A08A20F44071A8890843A0826846FFF7D6
:1019E00099FC1A48844202D01948844201D10398D4
:1019F00000E00298A189090400EBC00101EB00108E
:101A0000296801D5490000E08900B0FBF1F26420AB
:101A1000B2FBF0F109010B096FF018056B4302EB03
:101A20008302A3891D044FF0320306D503EBC202E3
:101A3000B2FBF0F000F0070005E003EB0212B2FB8E
:101A4000F0F000F00F00084320817FBD001001403E
:101A5000001401404FF41651016000218180C180C3
:101A600001810C22428181817047FEE70FB4084B4F
:101A700010B504A902AA039800F018FD044602A9B3
:101A8000002000F0BDFD204610BC5DF814FB0000F6
:101A90000126000803B401984100009850EAC120D3
:101AA00018BF04204A0D18BF40F0010040F2FF7239
:101AB000B2EB515F08BF40F00200012808BF0520CB
:101AC00002B070470000000010B52F499FED2C1B9D
:101AD0002DED020B84B0059820F000408842D8BF5D
:101AE0009DED040B2DDD2949884209D1049840B9A8
:101AF0004FF0010000F0D4FC00F0A2FC06B010BDD5
:101B000005DB9DED040B00F08FFC06B010BD6846B0
:101B10009DED040B00F0A0F810F0030004BF9DED54
:101B2000021B9DED000B0CD001280ED09DED021B79
:101B30009DED000B022817D0012000F0DDFB06B060
:101B400010BD00F0A5FA06B010BD9DED021B9DED85
:101B5000000B012000F0D0FB51EC100B81F0004194
:101B600006B041EC100B10BD00F092FA51EC100BD6
:101B700081F0004106B041EC100B10BD00000000E8
:101B80000000000000000000FB21E93F0000F07FA2
:101B900010B52F499FED2C1B2DED020B84B005983D
:101BA00020F000408842DCBF00209DED040B32DDB8
:101BB0002849884209D1049840B94FF0010000F04B
:101BC0006FFC00F03DFC06B010BD05DB9DED040B85
:101BD00000F02AFC06B010BD68469DED040B00F035
:101BE0003BF810F0030011D0012818D09DED021B26
:101BF0009DED000B02281AD000F04AFA51EC100BB0
:101C000081F0004106B041EC100B10BD9DED021BB0
:101C10009DED000B012000F06FFB06B010BD9DEDA7
:101C2000021B9DED000B00F033FA06B010BD012041
:101C300000F062FB51EC100B81F0004106B041EC6A
:101C4000100B10BD000000000000000000000000AC
:101C5000FB21E93F0000F07F2DE9F14F04462DED17
:101C6000020B2DED088B8AB09FEDE70B80ED020B88
:101C7000139EE74826F0004585420ADC9DED120BD5
:101C8000002084ED000B0AB0BDEC088B03B0BDE86A
:101C9000F08FE0489FEDE0AB9FEDE1BBA84247DD50
:101CA000E14F9FEDE39B9FEDE48B9DED120B53EC19
:101CB0001A2B51EC100B002E1CDDFEF731FB41EC12
:101CC000100BBD4208D053EC1B2B51EC100BFEF750
:101CD00027FBC4E900010BE053EC192B51EC100B6E
:101CE000FEF71EFB53EC182BFEF71AFBC4E90001AC
:101CF0000120C8E7FEF773FA41EC100BBD4208D093
:101D000053EC1B2B51EC100BFEF769FAC4E90001F0
:101D10000BE053EC192B51EC100BFEF760FA53EC6F
:101D2000182BFEF75CFAC4E900014FF0FF30AAE778
:101D3000C348A84279DB9DED120B51EC100B00F06B
:101D4000AFFC41EC180B9FEDC00B53EC102BFEF7D2
:101D5000EDFA9FEDBF1B53EC112BFEF740FAFEF797
:101D6000D7FB0746FEF7C3FB41EC190B53EC1A2BCC
:101D7000FEF7DCFA53EC182BFEF7D5FA41EC180B02
:101D800053EC1B2B51EC190BFEF7D0FADFF8C8A26D
:101D900041EC100B4FEA15580125FA4453EC102B77
:101DA00051EC180BFEF7BCFA032DC4E900013DD03D
:101DB000C1F30A5005EB4511A8EB0000113981422F
:101DC00034DA0AEB051BB0EE48AA9BED000BF0EEEF
:101DD00068AA53EC102B51EC190BFEF7A7FA41EC53
:101DE0001B0B51EC1A0B53EC1B2BFEF799FA41EC31
:101DF000180B51EC1A0B53EC182BFEF791FA53EC1D
:101E00001B2BFEF78DFA9BED020B41EC1A0B53ECEA
:101E1000102B51EC190BFEF789FA53EC1A2BFEF735
:101E20007FFA41EC100B6D1CB8E70EE0002EA8BF46
:101E30003846BFF628AF94ED000B51EC100B81F043
:101E40000041C4E9000178421DE7C6F3130040F4E5
:101E5000801EC6F30A50A0F2F530471100F01F05AE
:101E6000C5F12000DDF848B00890002006900790EA
:101E70000520EC467949002D07EB0002794408BFA4
:101E800051F8221009D051F8223001EB8201AB4009
:101E90004A68089922FA01F11943A1FB0E26A1FB19
:101EA0000B131A449A4234BF0123002303EB0608A4
:101EB0000CEB8003D3E901A60E448E4234BF01210E
:101EC000002192448A4411B1924502D903E092451F
:101ED00001D2012100E00021C3E901A641444CF8F0
:101EE0002010011EA0F10100C4DC029800F1005096
:101EF000850F0298DDE903678000DDF81480FEF7A6
:101F0000F6FA41EC1A0B3046FEF73EFC9FED541BEF
:101F100053EC112BFEF70AFA41EC1B0B3846FEF787
:101F200033FC9FED511B53EC112BFEF7FFF941ECF5
:101F3000180B4046FEF728FC9FED4D1B53EC112B70
:101F4000FEF7F4F941EC190B51EC180B53EC192B7B
:101F5000FEF745F953EC1B2BFEF741F953EC1A2B16
:101F6000FEF73DF9CDE90801002008909DED080B32
:101F700053EC1A2B51EC100BFEF7D2F953EC1B2B40
:101F8000FEF7CEF953EC182BFEF7CAF953EC192BD8
:101F9000FEF7C9F99FED381B53EC112BFEF7C6F97C
:101FA0009FED370B41EC180B53EC102B9DED080BFC
:101FB00051EC100BFEF7BAF953EC182BFEF70FF9A2
:101FC0009FED310B41EC180B53EC102B9DED080BE2
:101FD00051EC100BFEF7AAF953EC182BFEF7FFF8A3
:101FE00041EC100B139810F0004F06D06D4251ECED
:101FF000100B81F0004141EC100B284684ED000BE2
:1020000041E60000000000000000000000000000A9
:10201000FB21E93F7CD9024000004054FB21F93FFD
:102020003163621A61B4D03DFB21F93F000000002A
:102030000000601A61B4D03D7370032E8A19A33B6F
:10204000FB2139410000000083C8C96D305FE43FC7
:10205000000000000000E03FA2140000F0130000A8
:10206000000000000000103E000000000000103CD6
:10207000000000000000103A182D4454FB21F93DE7
:102080003326A611460B113C00000054FB21F93DFC
:1020900010B52DED040B2DED088B82B0B0EE419AFA
:1020A000F0EE619A0B9820F000449FED4BABB4F139
:1020B000795F11DA9DED0A0B51EC100BFEF728FA4F
:1020C000002801BFB0EE4A0AF0EE6A0A02B0BDEC89
:1020D000088B04BF04B010BD9DED0A0B53EC102B10
:1020E00051EC100BFEF722F941EC180B3C4806218D
:1020F000B0EE480AF0EE680A784400F081F853EC3C
:10210000182B51EC100BFEF711F99DED0A0B41EC69
:102110001B0B53EC192B51EC100BFEF707F941EC9C
:10212000190B53EC1B2B51EC180BFEF7FFF853EC7B
:10213000192BFEF7F5F89FED2C0B41EC190B53EC26
:10214000102B51EC180BFEF7F1F841EC100B28485E
:10215000844210DA53EC192B51EC100BFEF7E0F827
:1021600053EC1A2BFEF7DFF841EC100B02B0BDEC7C
:10217000088B04B010BD1F48A042BCBF9FED1E1BC2
:102180008DED001B06DBA4F50010019000200090EF
:102190009DED001B51EC100B53EC112BFEF7C0F81A
:1021A0009DED000B41EC180B53EC102B51EC1A0B6E
:1021B000FEF7B6F841EC1A0B53EC192B51EC180B47
:1021C000FEF7AEF853EC1A2BFEF7ADF841EC100B0E
:1021D000CCE7000000000000000000000000F03F1D
:1021E0001411000000000000000000000000E03FAB
:1021F0003333D33F0000E93F000000000000D23F2E
:1022000070B504462DED028B4D1E00EBC500B0EEFF
:10221000408AF0EE608A90ED000B35F0060017D092
:1022200053EC182B51EC100BFEF780F841EC100B1F
:102230006D1E04EBC50090ED001B51EC100B53EC30
:10224000112BFDF7CCFF41EC100B35F00600E7D168
:10225000022D36D0042D1CD0062D1CBFBDEC028BE8
:1022600070BD53EC182B51EC100BFEF75FF894ED9A
:102270000A1B53EC112BFDF7B2FF53EC182BFEF7A2
:1022800055F894ED081B53EC112BFDF7A8FF41EC1A
:10229000100B53EC182B51EC100BFEF747F894ED94
:1022A000061B53EC112BFDF79AFF53EC182BFEF78E
:1022B0003DF894ED040B53EC102BFDF790FF41EC2F
:1022C000100B53EC182B51EC100BFEF72FF894ED7C
:1022D000021B53EC112BFDF782FF53EC182BFEF77A
:1022E00025F894ED001B53EC112BFDF778FFBDECA6
:1022F000028B41EC100B70BD31B504462DED040B83
:102300002DED0A8BB0EE41BAF0EE61BA0B989DED5F
:102310000A0B20F00040B0F1795F0DDA51EC100BA0
:10232000FFF7B8FB042808BF00F09AF89DED0A0BF0
:10233000BDEC0A8B05B030BD53EC102B51EC100BEB
:10234000FDF7F4FF41EC180B9DED0A0B53EC182B35
:1023500051EC100BFDF7EAFF41EC190B2C48B0EEE5
:10236000480AF0EE680A05217844FFF749FF9FED1F
:102370002ACBB0EE40AAF0EE60AA9CB353EC1C2B23
:1023800051EC190BFDF7D2FF41EC1C0B53EC1A2B4F
:1023900051EC190BFDF7CAFF9FED210B41EC190B16
:1023A00053EC102B51EC1B0BFDF7C0FF53EC192B1A
:1023B000FDF7B6FF53EC182BFDF7B8FF53EC1B2BC2
:1023C000FDF7AEFF53EC1C2BFDF7AAFF9DED0A1B9A
:1023D00053EC112BFDF7A7FFBDEC0A8B05B041ECC8
:1023E000100B30BDFFE753EC1A2B51EC180BFDF727
:1023F0009DFF53EC1C2BFDF7F2FE53EC192BFDF760
:1024000095FF9DED0A1B53EC112BFDF7E8FEE3E76A
:102410009C0F000000000000495555555555C5BF9B
:10242000000000000000E03F10B553EC102B51EC11
:10243000100BFDF7D4FE41EC100B10BD00000000A6
:102440009FED050B10B553EC102B51EC100BFDF765
:10245000DFFF41EC100B10BD000000000000000089
:102460009FED050B10B553EC102B51EC100BFDF745
:102470005DFF41EC100B10BD0000000000000010DB
:1024800002E008C8121F08C1002AFAD1704770473D
:10249000002001E001C1121F002AFBD1704700009B
:1024A0000149086070470000C80000202DE9FF4F77
:1024B00089B09B460446002506E025280BD05A46E5
:1024C0000B999047641C6D1C20780028F5D10DB045
:1024D0002846BDE8F08F0027B8460122474900E0B2
:1024E000074314F8013F203B02FA03F00842F7D1FA
:1024F00020782E2819D114F8010F47F004072A2854
:102500000ED06FF02F022078A0F1300109290CD8ED
:1025100008EB880102EB410100EB0108641CF2E7C3
:102520000A98641C50F8048B0A9020780028CED0BA
:10253000642808D0692806D075281ED05A460B9901
:1025400090476D1C58E00A994FF00A0901C90A9199
:10255000002802DA40422D2102E0390504D52B2162
:102560008DF82010012103E0F90704D02021F7E7BE
:102570008A4608AE0DE00021FAE70A994FF00A09F1
:1025800001C90A91F7E74946FEF710F8303106F81D
:10259000011D0028F7D1ADEB060000F120097807F6
:1025A00001D44FF00108C84502DDA8EB090000E0A6
:1025B00000208046002706E008A85A46C05D0B9917
:1025C00090476D1C7F1C5745F6DB04E030205A46CF
:1025D0000B9990476D1CB8F10001A8F10108F5DCDA
:1025E00005E016F8010B5A460B9990476D1CB9F19E
:1025F0000001A9F10109F4DC641C65E70928010068
:102600000A68531C0B6010707047000010B5044638
:102610006FF00400FEF732FF0648E10801EB4102CB
:102620000170C2EBC1114FF6FF7202EAC101418095
:1026300010BD00000A00002070B54FF40775B0FB14
:10264000F5F1CCB2B0FBF5F105FB110604E028462C
:1026500000F00CF8641EE4B2002CF8D1002E04D077
:102660003046BDE8704000F001B870BD0B494988A4
:1026700048434FF0E021486100228A61086940F038
:10268000010008610869C30701D0C003FAD50869D1
:1026900020F0010008618A61704700000A000020F4
:1026A00082B0CDE9000121F0004001909DED000BCA
:1026B00002B051EC100B704710B502220449002003
:1026C000FEF708F9BDE810400220FFF7B5BF000093
:1026D0001500002010B504462820FFF7ADFF114873
:1026E0000222014644700020FEF7F4F82820FFF78C
:1026F000A3FF4FF4C0600B49201804464FF00802B6
:1027000001F14501FEF7E6F82820FFF795FF05499E
:10271000204608224D31FEF7DDF8BDE810402820A4
:10272000FFF78ABF130000202DED0A8B82B0FFF760
:102730005BF8FEF741FDFEF74FF9FEF7F1FBFEF700
:102740000FFCA820FFF762FF0220FFF775FF40F69D
:10275000B830FFF771FF01200021FFF7BBFF0C200D
:102760000021FFF7B7FF04200021FFF7B3FF02208D
:102770000021FFF7AFFFFF490F20887108318871F2
:1027800008318871083188710220FFF755FF08224F
:10279000F84940F20160FEF79DF80220FFF74CFF78
:1027A000F44940F20C6A0822083155465046FEF7BB
:1027B00091F80220FFF740FFEE4940F2046B082237
:1027C00010315C465846FEF785F80220FFF734FFCB
:1027D000E84940F20266082218313046FEF77AF8DE
:1027E0000220FFF729FFE34908222831701EFEF777
:1027F00071F80220FFF720FFDE4908222831284621
:10280000FEF768F80220FFF717FFDA49082228319F
:102810002046FEF75FF80220FFF70EFFD549082299
:1028200028313046FEF756F80220FFF705FF42F246
:10283000CF0140F2CF70FEF7DBFEDFEDCFAAF3EE63
:10284000048AB0EE6A8AFEF77FFCB7EE00AA4FF06A
:1028500000089FEDCABADFEDCABA9FEDCACADFF819
:102860001493A9F1580900BF38EE4A8AB5EEC08A20
:10287000F1EE10FA05D2A9F80A80A9F80E80A9F89D
:102880001280F5EEC08AF1EE10FA02DD78EECA8A07
:1028900001E0FEF725FCBC480178012963D14246DE
:1028A00080F800800020B94CB94DBA4B03E0215CA0
:1028B0002954401CC0B219688842F8D318684C46A5
:1028C000C0B289F800000B284DD3A270411E0EE063
:1028D000AB5C532B09D1AB185E784A2E05D19E789C
:1028E000542E02D1DB78552B04D0521CA270D2B2E8
:1028F0008A42EDDBD1B20B31814234D8A818807AFC
:10290000012830D1607810B1012814D029E0FFF7F8
:10291000D3FE01200021FFF7DDFE0C200021FFF790
:10292000D9FE04200021FFF7D5FE02200021FFF789
:10293000D1FE01206070A07828444179027901EB32
:10294000022121816181C179827901EB0221A1817A
:10295000E181417A007A01EB002080B2208260821E
:102960006063B0EE6A8A8B49C1F80080B9F90A1039
:102970004FF496604C46814200DD6081B4F90A2034
:1029800085498A4200DA6181B4F90E20824200DD75
:10299000E081B4F90E00884200DAE18194ED080A82
:1029A000B4F91200CBEE000A01EE100AB8EEC11A1B
:1029B000F4EEC10AF1EE10FA04D2FDEEE00A10EED8
:1029C000900A6082CBEE800AB4F9120001EE100A80
:1029D000B8EEC11AF4EEC10AF1EE10FA04DDFDEE14
:1029E000E00A10EE900A6082B4F90A10B4F91420DB
:1029F000881A00F16403C82B1BD9002801D40146B2
:102A000000E0511A6423594300EE901AF8EEE01AE0
:102A100000EE900AF8EEE00A81EEA01A00EE902A8D
:102A2000F8EEE00A71EE200AFDEEE00A10EE900AE0
:102A30006081B4F90E10B4F91620881A00F164030D
:102A4000C82B1BD9002801D4014600E0511A642389
:102A5000594300EE901AF8EEE01A00EE900AF8EEF4
:102A6000E00A81EEA01A00EE902AF8EEE00A71EE7C
:102A7000200AFDEEE00A10EE900AE081CCEE000A9A
:102A8000B4F91230B4F91810581A01D4024600E013
:102A9000CA1A01EE102AB8EEC11AF4EEC10AF1EE1C
:102AA00010FA1BD2002801D4024600E0CA1A01EE37
:102AB000102AB8EEC11A20EE811A00EE900AF8EE44
:102AC000E00AC1EE201A00EE901AF8EEE00A71EE6C
:102AD000A00AFDEEE00A10EE900A6082B4F90A2026
:102AE000A282B4F90E30E382D11800EE901AB4F944
:102AF00012002083B8EEE01A00EE900AD21AF8EE27
:102B0000E00A00EE601AD4ED070A61EE202A01EE19
:102B1000102AC4ED092AF8EEC11A01EE100AB8EE27
:102B2000C11A40EE411A01EE101AB8EEC12A01EEA8
:102B3000100A61EEA01AB8EEC11AC4ED0A1A00EE2E
:102B4000012A01EE102AB8EEC13A01EE100A22EE77
:102B5000202AB8EEC11A84ED0B2A00EE013ABDEE30
:102B6000E20A10EE102ABDEEE10A63EE200AC4ED7F
:102B70000C0A13E0680000200000FA4400009644AC
:102B8000000096C40000C842980000209801002070
:102B9000E00000209C00002050FBFFFF10EE103AE8
:102BA000B1EE420AF1EE600ABDEEC00AFDEEE00AA7
:102BB000C4E90E2384ED100AC4ED110A79A18548F9
:102BC0008DEC020AFEF752FF8348A16B01710A0ADD
:102BD00042710A0C8271090EC1717F49E06B0831A4
:102BE000020A08714A71020C8A71000EC87108311C
:102BF000206C0871020A4A71020C8A71000EC871B9
:102C00007548616C18300A0A017142710A0C8271B0
:102C1000090EC1710220FFF70FFD40F20166082284
:102C20006D493046FDF756FE0220FFF705FD6A4963
:102C30000822083157465046FDF74CFE0220FFF7A8
:102C4000FBFC6549082210315C465846FDF742FE00
:102C50000220FFF7F1FC6049751C08221831284654
:102C6000FDF738FE0220FFF7E7FC5B490822203120
:102C70003046FDF72FFE0220FFF7DEFC5649082202
:102C800020313846FDF726FE0220FFF7D5FC5249D9
:102C9000082220312046FDF71DFE0220FFF7CCFC64
:102CA0004D49082220312846FDF714FE0220FFF787
:102CB000C3FC4949082228313046FDF70BFE0220AB
:102CC000FFF7BAFC4449082228313846FDF702FED6
:102CD0000220FFF7B1FC4049082228312046FDF7C9
:102CE000F9FD0220FFF7A8FC3B49082228312846BD
:102CF000FDF7F0FD0220FFF79FFC1A20FFF79CFC78
:102D0000344CDFED36CA103C94ED030AF8EEC00AED
:102D100080EEAC0A10EE100AFDF719FC9FED309B17
:102D200053EC192BFDF702FBFDF7F2FB94ED020AC1
:102D30000746F8EEC00A80EEAC0A10EE100AFDF766
:102D400006FC53EC192BFDF7F1FAFDF7E1FB94EDCE
:102D5000010A0646F8EEC00A80EEAC0A10EE100A30
:102D6000FDF7F5FB53EC192BFDF7E0FAFDF7D0FB6F
:102D700094ED000A0546F8EEC00A80EEAC0A10EEAB
:102D8000100AFDF7E4FB53EC192BFDF7CFFAFDF722
:102D9000BFFB02462B4614A10E48CDE90067FEF7A3
:102DA00065FE61E54F444F4D445455207731202551
:102DB000642C207732202564202C77332025642C46
:102DC0002077342025642C4454554F444F4D0D0A30
:102DD00000000000540100206800002025FF074982
:102DE0000000000000408F40535045454444545576
:102DF00025642C25642C25642C256444545553509B
:102E00004545440D0A0000002DE9F043BDEEC00A1F
:102E10002DED088B81B010EE108ABDEEE00AF0EEC9
:102E2000429A404810EE107AB1EE410A0068BDEEB9
:102E3000C00A064610EE105AB1EE610ABDEEC00A95
:102E400010EE104AFDF783FB9FED37AB53EC1A2BC6
:102E5000FDF76CFA41EC180B08EB070909EB0500CC
:102E60002044FDF744FB53EC182BFDF7D1FAFDF796
:102E700081FB09EE100A3046FDF769FB53EC1A2B73
:102E8000FDF754FA41EC180BA8EB07002844001B8F
:102E9000FDF72DFB53EC182BFDF7BAFAFDF76AFB93
:102EA00008EE900A22480068FDF751FB41EC1B0B2D
:102EB0003046FDF74CFB53EC1A2BFDF737FA53EC79
:102EC0001B2BFDF733FA41EC1A0BA9EB0500201A76
:102ED000FDF70DFB53EC1A2BFDF79AFAFDF74AFBB1
:102EE00008EE100A13A11C48BDEEC80A8DED000AB9
:102EF000BDEEE80A10EE103ABDEEC90A10EE102A37
:102F0000FEF7B4FD01B0F0EE691AB0EE481AF0EE2B
:102F1000680AB0EE490ABDEC088BBDE8F04300F04A
:102F20001DB800002C000020000000000000104030
:102F3000300000204F444F4D4454552078202564E4
:102F40002C2079202564202C7A2025642C4454558B
:102F50004F444F4D0D0A0000B101002010B52DED7A
:102F60000C8BF0EE618AB0EE41AAF0EE60AA2AEE78
:102F7000288AB0EE40DA18EE100AFDF7E8FA9FED65
:102F8000479B53EC192BFDF743FA41EC100BFEF76E
:102F9000FFFD444CB0EE40BAF0EE60BA6068FDF759
:102FA000D6FA53EC1B2BFDF7C1F941EC1B0B18EEC5
:102FB000100AFDF7CCFA53EC192BFDF729FA41EC76
:102FC000100BFEF781FDB0EE40CAF0EE60CA20683B
:102FD000FDF7BDFA53EC1C2BFDF7A8F92DEE280ADE
:102FE00041EC1C0B10EE100AFDF7B1FA53EC1C2B50
:102FF000FDF7F5F853EC1B2BFDF792F9FDF7BAFA44
:10300000206018EE100AFDF7A2FA53EC192BFDF719
:10301000FFF941EC100BFEF757FDB0EE40BAF0EEB1
:1030200060BA6068FDF793FA53EC1B2BFDF77EF94D
:1030300041EC1B0B18EE100AFDF789FA53EC192B23
:10304000FDF7E6F941EC100BFEF7A2FDB0EE409A59
:10305000F0EE609A2068FDF77AFA53EC192BFDF731
:1030600065F92AEEA80A41EC190B10EE100AFDF7DB
:103070006EFA53EC192BFDF7B2F853EC1B2BFDF74E
:10308000AEF8FDF777FA606094ED020A0AEE280ABE
:1030900084ED020ABDEC0C8B10BD000000000000A6
:1030A00000408F40AC000020050000000000000040
:1030B0000C00000001000000C20100000A00000036
:1030C0000000000005000000010000009001000069
:1030D0000F000000000000000C00000001000000D4
:1030E0009600000014000000000000000500000031
:1030F00001000000C80000001900000000000000EE
:10310000050000000700000070000000280000001B
:103110000000000005000000010000006400000045
:103120003200000000000000050000000700000061
:10313000380000003E000000000000000C0000000D
:10314000010000002400000050000000000000000A
:1031500005000000010000003200000064000000D3
:103160000000000005000000070000001C00000037
:103170007D000000000000000C00000001000000C5
:1031800012000000C8000000000000000500000060
:10319000070000000E000000FA0000000000000020
:1031A0000E00000004000000080000009001000074
:1031B000000000000E0000000400000005000000F8
:1031C000F4010000000000000E00000004000000F8
:1031D000040000009A02000000000000040000004B
:1031E00001000000080000002003000000000000B3
:1031F00007000000020000000E000000E8030000CD
:10320000000000000E0000000400000002000000AA
:103210004C5555555555A53F7751C1166CC156BFF4
:103220009015CB19A001FA3EAD529C804F7E92BE04
:10323000C4B1B4BD9EEE213ED43888BEE9FAA8BD23
:1032400000004054FB21F93F3163621A61B4D03D64
:103250000000601A61B4D03D7370032E8A19A33B3D
:103260000000002E8A19A33BC14920259A837B398F
:1032700000000000000000006E83F9A22915444EF2
:10328000D15727FCC0DD34F5999562DB4190433C72
:10329000AB6351FE61C5BBDE3A6E24B7E0D24D424E
:1032A000EA2E49061C92D1091CEB1DFE3EA729B14E
:1032B000F53582E88444BB2E26709CE9417E5FB4DC
:1032C00039D69139F43953838B5F849C3B28F9BDFF
:1032D000FF97F81F0F9805DE8B112FEF1F6D0A5A0D
:1032E000CF7E366DB709CB27663F464F2DEA5F9EEE
:1032F000C7BA27757BF1E5EBF739073DEA92528AA9
:10330000B15FFB6B085D8D1FA6F810111111813F95
:10331000D561C119A0012ABF7DFEB157E31DC73E8B
:10332000EB9C2B8AE6E55ABE7CD5CF5A3AD9E53DCF
:103330005033000800000020CC000000802400086A
:103340001C340008CC0000204C050000902400082C
:10335000000000000000000000000000000000006D
:10336000000000010F010F0000000000000000003D
:10337000000000000000000000000000D42471459F
:10338000B81E153F00000000000000000000000013
:10339000000000000000000000000000000000002D
:1033A00000000000000000002F606000030000002B
:1033B0002B4060001F00000023FF600000000000A1
:1033C00023FF60000000000023FF600000000000F9
:1033D00023FF600000000000A04022007F0E0000DC
:1033E000A06960007F0E00000000000000000000E7
:1033F00000000000000000000000000000000000CD
:1034000000000000000000000000000001020304B2
:0C34100001020304060708090000000088
:040000050800018965
:00000001FF
