:020000040800F2
:10000000A80500209D010008470C0008AF09000862
:10001000450C00083102000803130008000000002E
:10002000000000000000000000000000550E000865
:10003000E108000800000000290D0008250F000855
:10004000C1010008C1010008C1010008C101000888
:10005000C1010008C1010008C1010008C101000878
:10006000C1010008C1010008C1010008C101000868
:10007000C1010008C1010008C1010008C101000858
:10008000C1010008C1010008C1010008C101000848
:1000900035020008C1010008C1010008C1010008C3
:1000A000C1010008C1010008C1010008C101000828
:1000B000C1010008C1010008C1010008C101000818
:1000C000C1010008C1010008C1010008C101000808
:1000D000C1010008B90F0008C1010008C1010008F2
:1000E000C1010008C1010008C1010008C1010008E8
:1000F000C1010008C1010008C1010008C1010008D8
:10010000C1010008C1010008C1010008C1010008C7
:10011000C1010008C1010008C1010008C1010008B7
:10012000C1010008C1010008C1010008C1010008A7
:10013000C1010008C1010008C1010008C101000897
:10014000C1010008C1010008C1010008C101000887
:10015000C1010008C1010008C1010008C101000877
:10016000C1010008C1010008C1010008C101000867
:10017000C1010008C1010008C1010008C101000857
:10018000C1010008C1010008DFF80CD000F03EF802
:1001900000480047C9150008A80500200948016863
:1001A00041F4700101600848804708480047FEE7B5
:1001B000FEE7FEE7FEE7FEE7FEE7FEE7FEE7FEE717
:1001C000FEE7000088ED00E0490F00088901000803
:1001D000421C10F8011B0029FBD1801A704730B572
:1001E0000B46014600202022012409E021FA02F5F5
:1001F0009D4205D303FA02F5491B04FA02F528448F
:10020000151EA2F10102F1DC30BD0000064C074DC5
:1002100006E0E06840F0010394E8070098471034D6
:10022000AC42F6D3FFF7B4FF001D0008201D000804
:10023000FEE7000070B5464C002108462160616071
:100240002172A172E1746218491CD0720829FAD394
:10025000404900202218D27A0A54401C0828F9D3B9
:100260003D4D3B4A0021284600F05AFA2068C0F371
:100270000711582961D1E17BA27C237C01EB02614B
:10028000627C120402EB0322114400F00F03334896
:10029000334A012B06D00C2B17D0042B28D0022B6D
:1002A00039D04AE0E37A432B47D1237B692B02D034
:1002B000402B05D041E0627B602A3ED101603CE0EA
:1002C000607B222839D1116037E0E37A432B34D1A7
:1002D000237B692B02D0402B05D02EE0627B602A65
:1002E0002BD1416029E0607B222826D1516024E097
:1002F000E37A432B21D1237B692B02D0402B05D0FD
:100300001BE0627B602A18D1816016E0607B2228A6
:1003100013D1916011E0E37A432B0ED1237B692B3B
:1003200002D0402B05D008E0627B602A05D1C16075
:1003300003E0607B222800D1D16006490120491EDC
:1003400008702846BDE87040022100F051B8000056
:10035000C000002001000020006400406C0100206B
:100360007C010020F0B585B0009000208DF80800D9
:100370008DF8090004468DF80A2068460A5D0319C5
:10038000641CDA72082CF9D3094E0146304600F09D
:100390001FFA05464FF6FF7700E0641C29463046F9
:1003A00000F068FA012801D0BC42F6D105B0F0BDDA
:1003B0000064004010B50D4B002200BF02EB820428
:1003C00053F8244084420CD102EB820003EB8000FE
:1003D0000279CA70027A0A71027B4A71008A088027
:1003E00010BD521C122AE9D310BD0000981B000852
:1003F00030B5082310240422B1F5007F1DD010DC95
:10040000202929D007DC012921D0042922D008295C
:1004100000D1C46030BD402920D0B1F5807FF9D132
:100420000BE00025B1F5004F06D008DCB1F5806F78
:1004300003D0B1F5006FEDD18561426030BDB1F5FB
:10044000803F0DD0B1F5003FF8D1446030BD054983
:10045000816030BDC36030BD036130BD046130BD1B
:10046000436030BD0101010070B58AB00121082050
:1004700000F05CFC0320079002208DF820008DF82E
:1004800021000024284E8DF8224001258DF82350AC
:1004900007A9304600F025FA09220021304600F075
:1004A00071FA09220121304600F06CFA0121480658
:1004B00000F048FC1D4E304600F03AF8684600F067
:1004C00077F98DF808408DF809508DF806408DF8C1
:1004D0000A408DF807408DF80B408DF802406946C0
:1004E0004FF4FA70FFF766FF6946304600F0A4F853
:1004F0008DF816408DF817408DF81850ADF80C4067
:10050000ADF81040ADF80E40ADF81240ADF8144013
:100510008DF8195003A800F021F80122022130467D
:1005200000F082F80AB070BD000C02400064004088
:10053000094910B588424FF0010101D14C0601E094
:100540004FF08064204600F009FC2046BDE81040D2
:10055000002100F003BC000000640040F0B5827A86
:10056000012191402E4A136843F0010313602C4B84
:100570001C331C688C431C60294D067B294C0C35B0
:10058000A6B92E688E432E604688C78846EA07467D
:10059000877A04EBC707C7F840660688878846EA6B
:1005A0000746877A04EBC707C7F84466067B012E27
:1005B00012D12E680E432E60867A056804EBC606BB
:1005C0004FEA3545C6F84056867A456804EBC604BE
:1005D0004FEA3545C4F84456114CC57A241D002D08
:1005E000256806D00D4325600D4C0589143415B1DE
:1005F00004E08D43F7E725688D4325600589012DCB
:1006000002D125680D432560407B012802D118687E
:1006100008431860106820F001001060F0BD000071
:100620000066004000600040002A426901D00A4391
:1006300000E08A434261704710B50368002223F04E
:1006400002030360036843F0010303604FF6FF7386
:1006500000E0521C4468E40701D19A42F9D1426893
:10066000D2073ED08A79012A02683CD022F080026B
:100670000260CA79012A026838D022F04002026082
:100680000A7A012A026834D022F0200202604A7AF3
:10069000012A026830D022F0100202608A7A012A10
:1006A00002682CD022F008020260CA7A012A02688D
:1006B00028D022F0040202608A78CC78920742EABD
:1006C00004620C7942EA04424C79098842EA0452F5
:1006D000491E0A43C261016821F001010160002145
:1006E00014E0002010BD42F08002C1E742F0400259
:1006F000C5E742F02002C9E742F01002CDE742F020
:100700000802D1E742F00402D5E7491C4268D2074B
:1007100001D09942F9D14068C007E2D1012010BD53
:1007200010B500EB0113D3F8B04114F004041472B7
:10073000D3F8B04134D0E408C2F80440D3F8B04153
:1007400004F002045472D3F8B44104F00F0494721C
:10075000D3F8B441240AD474D3F8B841D472D3F88E
:10076000B841240A1473D3F8B841240C5473D3F855
:10077000B841240E9473D3F8BC41D473D3F8BC4170
:10078000240A1474D3F8BC41240C5474D3F8BC313B
:100790001B0E937439B1016941F02001016110BD54
:1007A000640D1460CAE7C16841F02001C16010BD4A
:1007B00000218171C171017241728172C1728170B7
:1007C000C170032101710221417101210180704733
:1007D00030B50246002093685B0108D490680001A0
:1007E00001D5012003E09068C00037D5022002EB5C
:1007F0000012D2F8803103F00103C2F880310B7A85
:1008000073B3D2F880414D681C434B7A43EAC50369
:100810001C43C2F880418B7A03F00F038B72D2F82D
:10082000843123F00F03C2F88431D2F884318C7AFA
:100830002343C2F88431CB7ACC6843EA0423C2F85C
:100840008831CB7B096943EA0121C2F88C11D2F8C7
:10085000801141F00101C2F8801130BD042030BD8B
:10086000D2F880314C7A23430C8843EA4453C2F8CF
:100870008031D0E7002221B1012905D0022906D11B
:1008800012E08268114801E0826811480240114973
:10089000501A8A4214D00ADCA2B16FF0806010189E
:1008A0000FD002280CD10FE082680B48EEE7B0F5BC
:1008B000007F09D00949401803D0B0F5003F03D0AC
:1008C0000020704702207047012070470300000499
:1008D0000003000800010008000003100001FFF7FA
:1008E0007047F0B50023012403270D6804FA03F2D2
:1008F0001540954242D1D0F800C05E0007FA06F5D7
:100900002CEA050CC0F800C091F804C0D0F800E053
:100910000CFA06FC4CEA0E0CC0F800C091F804C0BA
:10092000BCF1010F02D0BCF1020F1FD1D0F808C0FA
:100930002CEA050CC0F808C091F805C0D0F808E012
:100940000CFA06FC4CEA0E0CC0F808C0D0F804C043
:100950002CEA020CC0F804C0426891F806C00CFAF8
:1009600003FC1FFA8CFC42EA0C024260C268AA43F4
:10097000C260CA79C568B2402A43C2605B1C102BB2
:10098000B3D3F0BD4B07DB0E9A40C90810B500EB9E
:100990008100016A0F249C40A1430162016A114356
:1009A000016210BD0AB10183704741837047FEE7C1
:1009B0001CB50121022000F0B9F9C02001240090EB
:1009C0008DF8044000208DF8060002208DF8050007
:1009D0008DF8074069460448FFF783FF0348C0F8D5
:1009E0009842C0F89C421CBD000402400080404276
:1009F0002DE9FC470121102000F098F94FF4F06038
:100A00000124DFF8609100908DF8044002278DF8F2
:100A1000057069464846FFF764FF0121202000F079
:100A200085F9E002DFF8408100908DF804408DF8F0
:100A3000057069464046FFF754FF0121202000F071
:100A400075F98DF80440A0038DF806400325009049
:100A50008DF8055000268DF8076069464046FFF77F
:100A600040FF0121202000F061F98DF80440E003EF
:100A70008DF8064000908DF805508DF807606946A6
:100A80004046FFF72EFF0121402000F04FF98DF87E
:100A900004408DF80640DFF8D4808DF805500094AE
:100AA0008DF8076069464046FFF71BFF0121402093
:100AB00000F03CF98DF804408DF806408DF80550A3
:100AC00000978DF8076069464046FFF70AFF01214D
:100AD000102000F02BF98DF8044080208DF806409E
:100AE00000908DF805508DF8076069464846FFF77D
:100AF000F8FE0121102000F019F98DF804402002C1
:100B00008DF8064000908DF805508DF80760694615
:100B10004846FFF7E6FE0121102000F007F98DF8A6
:100B2000044060028DF8064000908DF805508DF865
:100B3000076069464846FFF7D4FE0121102000F007
:100B4000F5F88DF80440A0028DF8064000908DF86D
:100B500005508DF8076069464846FFF7C2FEBDE8BC
:100B6000FC87000000100240001402400018024000
:100B700010B5164C012291032046FFF713FF012206
:100B8000D1032046FFF70EFF114C012211462046EB
:100B9000FFF708FF012202212046FFF703FF0D4C5B
:100BA000012280212046FFF7FDFE0122110220468E
:100BB000FFF7F8FE012251022046FFF7F3FE204620
:100BC0000122BDE810409102FFF7ECBE0014024084
:100BD000001802400010024010B5174C00224FF4DC
:100BE00080412046FFF7DEFE00224FF40041204600
:100BF000FFF7D8FE114C002201212046FFF7D2FE5C
:100C0000002202212046FFF7CDFE0D4C002280215C
:100C10002046FFF7C7FE0022A1152046FFF7C2FEBF
:100C2000002261152046FFF7BDFE00222115204657
:100C3000BDE81040FFF7B6BE0014024000180240A5
:100C400000100240FEE77047F8B500214FF0006049
:100C500000F060F84FF4A066304600F051F825200F
:100C60008DF8000000248DF801408DF80240012528
:100C70008DF80350684600F011F814208DF800003C
:100C8000304600F03DF88DF801408DF802408DF8B7
:100C90000350684600F002F8F8BD000030B50F229E
:100CA000C47801780123FCB1144C246801F1E021DF
:100CB00004F4E064C4F5E064C4F30724C4F104055B
:100CC000E2404478AC408578154025432A0181F8FC
:100CD0000024007800F01F018B404009800000F1E3
:100CE000E020C0F8003130BD01F01F00834048090A
:100CF000800000F1E020C0F8803130BD0CED00E054
:100D00000249084302490860704700000000FA05E4
:100D10000CED00E0024A11400143024801607047B7
:100D200080FFFF1F08ED00E070470000044A002923
:100D3000116801D0014300E0814311607047000059
:100D400030380240044A0029116801D0014300E014
:100D5000814311607047000040380240044A002976
:100D6000116801D0014300E0814311607047000029
:100D700020380240044A0029116801D0014300E0F4
:100D8000814311607047000044380240044A002942
:100D9000116801D0014300E08143116070470000F9
:100DA0002438024070B5204A1168204C11F00C0123
:100DB00004D06610042903D0082903D004601BE086
:100DC000066019E01849091F0B68C3F380550B68CA
:100DD00003F03F0315B1B6FBF3F301E0B4FBF3F30B
:100DE0000C680968C4F388146343C1F30141491CCA
:100DF0004900B3FBF1F1016011680F2303EA1111FF
:100E00000B4B5C5C0168E14041601468072505EA12
:100E100094241C5D21FA04F48460126805EA5232BD
:100E20009A5CD140C16070BD083802400024F400D3
:100E3000B000002010B50022054B05E0845C9C80CA
:100E40001C886406FCD5521C8A42F7D310BD0000F2
:100E500000100140704700000CB5002027490190A8
:100E600000900A6842F480320A604FF4A0630A6876
:100E700002F400320092019A521C0192009A12B9B7
:100E8000019A9A42F3D10A68920334D50120009066
:100E90001A484030026842F08052026018480268E6
:100EA00042F480420260154808300268026002681D
:100EB00042F400420260026842F4A0520260031F42
:100EC000104A1A600A6842F080720A600A68920149
:100ED000FCD50D4A40F205611160016821F0030163
:100EE0000160016841F0020101600168C1F3810104
:100EF0000229FAD10CBD00900CBD00000038024060
:100F00000070004008544007003C02404FF0E021D0
:100F10000428086903D020F004000861704740F0FD
:100F20000400FAE700B500F03DF806484168491CA6
:100F30004160B1F5FA7F03D30121017000214160C6
:100F400000BD0000A4000020124810B5016841F463
:100F5000700101601048016841F0010101600E4A12
:100F600000210832116002680C4B1A400260031D18
:100F70000B4A1A60026822F48022026006480C3094
:100F80000160FFF769FF03494FF000608039086096
:100F900010BD000088ED00E000380240FFFFF6FEC3
:100FA0001030002403488168002902D08168491E5E
:100FB00081607047A400002070B51C4C40F225559C
:100FC0002946204600F004F900B3A3882046194AB8
:100FD000174956688B5553685B1C53605368022B46
:100FE0000CD353680B4413F8013C012B06D1536812
:100FF000194411F8011C012900D1117051681929F7
:1010000001D900215160294600F016F840F22775F9
:101010002946204600F0DCF8002805D02946204665
:10102000BDE8704000F008B870BD0000001001403D
:101030008C0100209C0000200A0A01219140C94334
:101040000180704710B5028A4C8822F470630A88C8
:1010500022438C88C9880C4322431A43028210BD64
:101060000021018041808180C180704700298189F1
:1010700002D041F4005101E021F400518181704718
:1010800070B588B001210920FFF750FE0121102022
:10109000FFF770FE294D284600F054F8684600F02E
:1010A00025F906A8FFF7DCFF02218DF814108DF852
:1010B000151000248DF8164001208DF8170040020D
:1010C0001F4E049004A93046FFF70BFC07220921AC
:1010D0003046FFF757FC2815049004A93046FFF767
:1010E00000FC07220A213046FFF74CFC06A92846DF
:1010F000FFF7A8FF4FF4E1300090ADF808400C2056
:10110000ADF80440ADF80A00ADF80640ADF80C406B
:101110006946284600F094F8012240F225512846FD
:1011200000F075F840F226612846FFF785FF01219F
:101130002846FFF79BFF08B070BD0000001001407B
:10114000000002401C4910B5884206D10121102040
:10115000FFF71CFE0021102028E01849884202D128
:1011600001214C0410E01649884202D101218C046F
:101170000AE01449884202D10121CC0404E012495A
:1011800088420AD101210C052046FFF7E7FD2046E1
:10119000BDE810400021FFF7E1BD0C49884209D1AC
:1011A00001212020FFF7F2FD00212020BDE81040A2
:1011B000FFF7ECBD10BD00000010014000440040EE
:1011C00000480040004C0040005000400014014026
:1011D00030B501F01F0201240025C1F3421304FAC7
:1011E00002F2012B0FD0022B0FD0838A4FEA11217C
:1011F0000088134204FA01F400EA040001D000B1AF
:101200000125284630BD8389F0E7038AEEE710B553
:10121000C1F3421301F01F040121A140012B07D0AB
:10122000022B07D01430002A026805D00A4304E0DC
:101230000C30F8E71030F6E78A43026010BD00007A
:101240007FB50446008A0D4620F44051E8880843E3
:101250002082A08941F20C618843A9882A89114320
:101260006A8902431143A181A08A20F44071A889B0
:101270000843A0826846FFF795FD1A48844202D0D1
:101280001948844201D1039800E00298A189090419
:1012900000EBC00101EB0010296801D5490000E016
:1012A0008900B0FBF1F26420B2FBF0F109010B09F7
:1012B0006FF018056B4302EB8302A3891D044FF006
:1012C000320306D503EBC202B2FBF0F000F00700D8
:1012D00005E003EB0212B2FBF0F000F00F00084350
:1012E00020817FBD00100140001401404FF41651D1
:1012F000016000218180C18001810C2242818181B5
:101300007047FEE70FB4084B10B504A902AA039872
:1013100000F01CF8044602A9002000F0C1F82046A5
:1013200010BC5DF814FB0000A114000802E008C81E
:10133000121F08C1002AFAD170477047002001E04F
:1013400001C1121F002AFBD1704700002DE9FF4F99
:1013500089B09B460446002506E025280BD05A4656
:101360000B999047641C6D1C20780028F5D10DB0B6
:101370002846BDE8F08F0027B8460122474900E023
:10138000074314F8013F203B02FA03F00842F7D16B
:1013900020782E2819D114F8010F47F004072A28C5
:1013A0000ED06FF02F022078A0F1300109290CD85F
:1013B00008EB880102EB410100EB0108641CF2E735
:1013C0000A98641C50F8048B0A9020780028CED02C
:1013D000642808D0692806D075281ED05A460B9973
:1013E00090476D1C58E00A994FF00A0901C90A910B
:1013F000002802DA40422D2102E0390504D52B21D4
:101400008DF82010012103E0F90704D02021F7E72F
:101410008A4608AE0DE00021FAE70A994FF00A0962
:1014200001C90A91F7E74946FEF7D9FE303106F8BF
:10143000011D0028F7D1ADEB060000F12009780767
:1014400001D44FF00108C84502DDA8EB090000E017
:1014500000208046002706E008A85A46C05D0B9988
:1014600090476D1C7F1C5745F6DB04E030205A4640
:101470000B9990476D1CB8F10001A8F10108F5DC4B
:1014800005E016F8010B5A460B9990476D1CB9F10F
:101490000001A9F10109F4DC641C65E709280100D9
:1014A0000A68531C0B6010707047002242F21073E0
:1014B00005E00021491C89B29942FBD3521C8242AB
:1014C000F7D3704710B504466FF00400FFF71EFD18
:1014D0000648E10801EB41020170C2EBC1114FF671
:1014E000FF7202EAC101418010BD00000A00002025
:1014F00070B54FF40775B0FBF5F1CCB2B0FBF5F168
:1015000005FB110604E0284600F00CF8641EE4B266
:10151000002CF8D1002E04D03046BDE8704000F019
:1015200001B870BD0B49498848434FF0E02148613C
:1015300000228A61086940F0010008610869C30758
:1015400001D0C003FAD5086920F0010008618A6162
:10155000704700000A00002010B502220449002054
:10156000FEF700FFBDE810400220FFF79EBF00001D
:101570001500002010B504462820FFF796FF1148FB
:101580000222014644700020FEF7ECFE2820FFF7FF
:101590008CFF4FF4C0600B49201804464FF008023E
:1015A00001F14901FEF7DEFE2820FFF77EFF054925
:1015B000204608225131FEF7D5FEBDE81040282014
:1015C000FFF773BF130000202DED088B82B0FFF7EB
:1015D00057FDFFF739FBFEF747FFFFF7E9F9FFF784
:1015E00007FAA820FFF76EFF0220FFF75EFF40F624
:1015F000B830FFF77DFF01200021FFF7BBFF0C2073
:101600000021FFF7B7FF04200021FFF7B3FF0220FE
:101610000021FFF7AFFFFF4E0F2006F10809B07160
:1016200006F1100A89F8060006F1180B8AF8060080
:101630008BF806000220FFF738FF0822314640F2FF
:101640000160FEF78FFE0220FFF72FFF08224946B8
:1016500040F20C60FEF786FE0220FFF726FF08220C
:10166000514640F20460FEF77DFE0220FFF71DFFA9
:101670000822594640F20260FEF774FEDFEDE69A5A
:10168000F3EE048AB0EE698AFFF7A6FAB7EE009A85
:1016900000259FEDE2AADFEDE2AA9FEDE2BAA6F1F6
:1016A0005C0400BF38EE498AB5EEC08AF1EE10FA4C
:1016B00002D26581E5816582F5EEC08AF1EE10FA0D
:1016C00002DD78EEC98A01E0FFF752FAD6480178C8
:1016D000012974D105700020D44AD54FD54903E0C3
:1016E000135C3B54401CC0B20B689842F8D30868A6
:1016F000C1B221700B2962D3A5704A1E12E03B5C77
:10170000532B0DD13B1893F801C0BCF14A0F07D100
:1017100093F802C0BCF1540F02D1DB78552B04D0F2
:10172000401CA070A0789042E9DBC2B20B328A4222
:1017300045D83844807A012841D16078A04610B15C
:10174000012815D039E0FFF707FF01200021FFF73E
:1017500011FF0C200021FFF70DFF04200021FFF7EF
:1017600009FF02200021FFF705FF012088F8010092
:1017700098F80200391848790A7900EB0220A8F895
:101780000800A8F80E00CA798B7902EB0322A8F8AA
:101790000C205242A8F80A204B7A097A03EB012167
:1017A00089B2A8F81010A8F81210C8F83810A8F8D4
:1017B0001420A8F81600A8F81810B0EE698A9D4801
:1017C0000560B4F90A0040F2DC51884200DD618115
:1017D000B4F90A209848824200DA6081B4F90E20F8
:1017E0008A4200DDE181B4F90E10814200DAE08125
:1017F00094ED090AB4F91200CAEE000A01EE100ACB
:10180000B8EEC11AF4EEC10AF1EE10FA04D2FDEE00
:10181000E00A10EE900A6082CAEE800AB4F9120063
:1018200001EE100AB8EEC11AF4EEC10AF1EE10FA98
:1018300004DDFDEEE00A10EE900A6082B4F90A10B1
:10184000B4F91A20881A00F16403C82B1BD90028A8
:1018500001D4014600E0511A6423594300EE901A66
:1018600001EE100AF8EEE00AF8EEC11A80EEA11AB5
:1018700000EE902AF8EEE00A71EE200AFDEEE00A92
:1018800010EE900A6081B4F90E10B4F91C20881A89
:1018900000F16403C82B1BD9002801D4014600E0E5
:1018A000511A6423594300EE901AB8EEE01A00EE84
:1018B000900AF8EEE00AC1EE201A00EE902AF8EE47
:1018C000E00A71EEA00AFDEEE00A10EE900AE08157
:1018D000CBEE000AB4F91230B4F91E10581A01D434
:1018E000024600E0CA1A01EE102AB8EEC11AF4EE60
:1018F000C10AF1EE10FA1BD2002801D4024600E022
:10190000CA1A01EE102AB8EEC11A60EE811A00EE72
:10191000900AF8EEE00A81EEA01A00EE901AF8EEB6
:10192000E00A71EE200AFDEEE00A10EE900A6082F5
:10193000B4F90A306383B4F90E10A183CA1A00EE19
:10194000902AB4F91200E083B8EEE01A00EE900A93
:101950001944F8EEE00A00EE201AD4ED080A61EE10
:10196000201A01EE101AB8EEC12A01EE100AB8EEE4
:10197000C11A00EE012A01EE102AF8EEC12A01EE8A
:10198000100A22EE202AB8EEC11A40EE412A01EEDA
:10199000101AB8EEC13A01EE100A62EEA02A04F164
:1019A0002800B8EEC11A00EE413ABDEEE10A10EE91
:1019B000103ABDEEC20A63EE200A1F0AC4ED0D0AFA
:1019C000C0EC031A10EE100AB1EE620AE363BDEE3A
:1019D000C00A10EE102AB1EE600ABDEEC00A10EE89
:1019E000101AA164C4E91002337177711F0CB7712A
:1019F0001B0EF37189F80400070A89F80570070CBB
:101A0000000E89F8067089F807008AF80420130A86
:101A100014E000006C0000200000FA440080BB4489
:101A20000080BBC40000C8429C0000208C01002044
:101A3000D4000020A000002024FAFFFF8AF805301F
:101A4000130C8AF80630120E8AF807208BF804105F
:101A50000A0A8BF805200A0C8BF80620090E8BF871
:101A600007100220FFF721FD40F2016708224149DB
:101A70003846FEF777FC0220FFF717FD3D4940F29C
:101A80000C68082208314046FEF76CFC0220FFF784
:101A90000CFD384908221031F81CFEF763FC0220C7
:101AA000FFF703FD334908221831781CFEF75AFC72
:101AB0000220FFF7FAFC2F49082220313846FEF7B2
:101AC00051FC0220FFF7F1FC2A4908222031404650
:101AD000FEF748FC0220FFF7E8FC264908222031E7
:101AE000F81CFEF73FFC0220FFF7DFFC214908222B
:101AF0002031781CFEF736FC0220FFF7D6FC1D498A
:101B0000082228313846FEF72DFC0220FFF7CDFCD5
:101B10001849082228314046FEF724FC0220FFF72E
:101B2000C4FC144908222831F81CFEF71BFC0220D3
:101B3000FFF7BBFC0F4908222831781CFEF712FC86
:101B40000220FFF7B2FC1A20FFF7AFFCB4F918002F
:101B50000090B4F91630B4F9142007A10D48FFF72E
:101B6000D1FB0C48FEF734FB01460A48FFF762F947
:101B700098E500006C0000205350454544445455FE
:101B800025642C25642C2564445455535045454404
:101B90000D0A0000380100200500000000000000D0
:101BA0000C00000001000000C20100000A0000005B
:101BB000000000000500000001000000900100008E
:101BC0000F000000000000000C00000001000000F9
:101BD0009600000014000000000000000500000056
:101BE00001000000C8000000190000000000000013
:101BF0000500000007000000700000002800000041
:101C0000000000000500000001000000640000006A
:101C10003200000000000000050000000700000086
:101C2000380000003E000000000000000C00000032
:101C3000010000002400000050000000000000002F
:101C400005000000010000003200000064000000F8
:101C50000000000005000000070000001C0000005C
:101C60007D000000000000000C00000001000000EA
:101C700012000000C8000000000000000500000085
:101C8000070000000E000000FA0000000000000045
:101C90000E00000004000000080000009001000099
:101CA000000000000E00000004000000050000001D
:101CB000F4010000000000000E000000040000001D
:101CC000040000009A020000000000000400000070
:101CD00001000000080000002003000000000000D8
:101CE00007000000020000000E000000E8030000F2
:101CF000000000000E0000000400000002000000D0
:101D0000201D000800000020C00000002C13000867
:101D1000E01D0008C0000020E80400003C1300089B
:101D200000000000000000000000000000000000B3
:101D3000000000010F010F00000000000000000083
:101D40000000000000000000000000000000000093
:101D5000D4247145B81E153F0000000000000000AB
:101D60000000000000000000000000000000000073
:101D70000000000000000000000000002F60600074
:101D8000030000002B4060001F00000023FF6000E4
:101D90000000000023FF60000000000023FF60003F
:101DA0000000000023FF600000000000A0402200AF
:101DB0007F0E0000A06960007F0E000000000000A0
:101DC0000000000000000000000000000000000013
:101DD00000000000010203040102030406070809D1
:040000050800018965
:00000001FF
