:020000040800F2
:10000000A80500209D010008730D0008B50C00082C
:10001000710D00083B0500080F14000800000000E7
:10002000000000000000000000000000610F000858
:10003000ED0B000800000000550E0008311000080C
:10004000C1010008C1010008C1010008C101000888
:10005000C1010008C1010008C1010008C101000878
:10006000C1010008C1010008C1010008C101000868
:10007000C1010008C1010008C1010008C101000858
:10008000C1010008C1010008C1010008C101000848
:100090003D050008C1010008C1010008C1010008B8
:1000A000C1010008C1010008C1010008C101000828
:1000B000C1010008C1010008C1010008C101000818
:1000C000C1010008C1010008C1010008C101000808
:1000D000C1010008C5100008C1010008C1010008E5
:1000E000C1010008C1010008C1010008C1010008E8
:1000F000C1010008C1010008C1010008C1010008D8
:10010000C1010008C1010008C1010008C1010008C7
:10011000C1010008C1010008C1010008C1010008B7
:10012000C1010008C1010008C1010008C1010008A7
:10013000C1010008C1010008C1010008C101000897
:10014000C1010008C1010008C1010008C101000887
:10015000C1010008C1010008C1010008C101000877
:10016000C1010008C1010008C1010008C101000867
:10017000C1010008C1010008C1010008C101000857
:10018000C1010008C1010008DFF80CD000F0B4F98B
:10019000004800476D160008A805002009480168BE
:1001A00041F4700101600848804708480047FEE7B5
:1001B000FEE7FEE7FEE7FEE7FEE7FEE7FEE7FEE717
:1001C000FEE7000088ED00E05510000889010008F6
:1001D0002DE9FE4F81EA030404F0004421F00041C0
:1001E00000944FF0000B23F0004350EA01045ED06E
:1001F00052EA03045BD0C3F30A54C1F30A552C44FA
:10020000A4F2F3340194A0FB0254C1F3130141F4AE
:100210008011C3F3130343F4801301FB024400FB7A
:10022000034E840A970A44EA815447EA8357A4FBA1
:10023000076802958D0A05FB07854FEA932C04FB9E
:100240000C542705029D4FEA065847EA1637B5EBCE
:1002500008056EEB070C870E920E47EA811742EAFB
:100260008312A7FB0201B6EB0B0164EB00042B0D1C
:1002700043EA0C335E1844EB1C50DA465146E7FB68
:100280000201C5F313044FEA0B3343EA14534FEA58
:100290000432019C43EA0603A4F10C040294009C7E
:1002A000CDE900B400F0DAF803B0BDE8F08F00202B
:1002B0000146F9E72DE9F04D81EA030404F0004B13
:1002C00021F0004514464FF0000A23F0004150EAA7
:1002D000050220D054EA01021DD0C5F30A57024698
:1002E000C5F31303C1F31300C1F30A5640F480159C
:1002F00043F48013A7EB0608101BD64608F2FD381E
:1003000073EB050002D308F1010801E092185B418C
:10031000B8F1000F03DA00200146BDE8F08D00209F
:100320004FF48011064684460EE0171B73EB050759
:1003300005D3121B63EB050306434CEA010C490885
:100340004FEA300092185B4150EA0107EDD152EAC2
:10035000030012D082EA040083EA0501084305D0B5
:10036000101BAB4106D20122002306E000224FF011
:10037000004302E06FF0010253101AEB06004CEB51
:10038000085110EB0A0041EB0B01BDE8F04D00F005
:1003900056B80EB5C10F80EAE0700844CA070021C4
:1003A00040F233438DE80E000A460B4600F056F843
:1003B00003B000BD70B5C1F30A5201F0004500243E
:1003C000C1F3130140F2FF3341F480119A4201DA84
:1003D000002070BD40F233439A42A2F2334203DC64
:1003E000524200F01CF800E090402C43F1D0404213
:1003F00070BD30B50B46014600202022012409E0E3
:1004000021FA02F59D4205D303FA02F5491B04FACD
:1004100002F52844151EA2F10102F1DC30BD202AAC
:1004200004DB203A21FA02F00021704721FA02F39E
:10043000D040C2F12002914008431946704710B5E0
:10044000141E73F1000408DA401C41F100019218F7
:100450005B411A4301D120F0010010BD2DE9F04DA0
:1004600092469B4611B1B1FA81F202E0B0FA80F2F5
:100470002032904600F052F804460F4640EA0A0047
:1004800041EA0B0153465A46084313D0114653EA3A
:10049000010019D0C8F140025046FFF7C0FF0546E1
:1004A0000E4650465946424600F038F8084305D0FB
:1004B000012004E020463946BDE8F08D00200543C8
:1004C00046EAE0762C4337430A986305E40AA0EB3A
:1004D00008000022FD0A44EA47540A3002D50020F1
:1004E0000146E9E7010510196941DDE908450019F0
:1004F0006941BDE8F04DA2E7064C074D06E0E06813
:1005000040F0010394E8070098471034AC42F6D35A
:10051000FFF73EFEF41D0008141E0008202A04DB2D
:10052000203A00FA02F1002070479140C2F1200306
:1005300020FA03F3194390407047FEE770B5464C2C
:1005400000210846216061602172A172E174621885
:10055000491CD0720829FAD3404900202218D27AC7
:100560000A54401C0828F9D33D4D3B4A0021284637
:1005700000F05CFA2068C0F30711582961D1E17BD3
:10058000A27C237C01EB0261627C120402EB032259
:10059000114400F00F033348334A012B06D00C2BD3
:1005A00017D0042B28D0022B39D04AE0E37A432B12
:1005B00047D1237B692B02D0402B05D041E0627BE1
:1005C000602A3ED101603CE0607B222839D1116075
:1005D00037E0E37A432B34D1237B692B02D0402BC5
:1005E00005D02EE0627B602A2BD1416029E0607B40
:1005F000222826D1516024E0E37A432B21D1237BAA
:10060000692B02D0402B05D01BE0627B602A18D1F9
:10061000816016E0607B222813D1916011E0E37ABB
:10062000432B0ED1237B692B02D0402B05D008E051
:10063000627B602A05D1C16003E0607B222800D183
:10064000D16006490120491E08702846BDE8704067
:10065000022100F051B80000BC0000200100002081
:10066000006400403401002078010020F0B585B01E
:10067000009000208DF808008DF8090004468DF8E0
:100680000A2068460A5D0319641CDA72082CF9D343
:10069000094E0146304600F021FA05464FF6FF7735
:1006A00000E0641C2946304600F06AFA012801D0B7
:1006B000BC42F6D105B0F0BD0064004010B50D4B52
:1006C000002200BF02EB820453F8244084420CD184
:1006D00002EB820003EB80000279CA70027A0A7191
:1006E000027B4A71008A088010BD521C122AE9D38D
:1006F00010BD00008C1C000830B508231024042213
:10070000B1F5007F1DD010DC202929D007DC01299C
:1007100021D0042922D0082900D1C46030BD40294D
:1007200020D0B1F5807FF9D10BE00025B1F5004F65
:1007300006D008DCB1F5806F03D0B1F5006FEDD1C4
:100740008561426030BDB1F5803F0DD0B1F5003F0D
:10075000F8D1446030BD0549816030BDC36030BD13
:10076000036130BD046130BD436030BD0101010053
:1007700070B58AB00121022000F06EFB4FF44050AA
:10078000079002208DF820008DF821000024294ECA
:100790008DF8224001258DF8235007A9304600F03E
:1007A00026FA09220C21304600F072FA09220D21A6
:1007B000304600F06DFA0121480600F059FB1E4E4C
:1007C000304600F03BF8684600F078F98DF80840B4
:1007D0008DF809508DF806408DF80A408DF80740D5
:1007E0008DF80B408DF8024069464FF4FA70FFF720
:1007F00065FF6946304600F0A5F88DF816408DF883
:1008000017408DF81850ADF80C40ADF81040ADF819
:100810000E40ADF81240ADF814408DF8195003A801
:1008200000F022F801220221304600F083F80AB0DD
:1008300070BD00000004024000640040094910B58A
:1008400088424FF0010101D14C0601E04FF0806475
:10085000204600F019FB2046BDE81040002100F0C2
:1008600013BB000000640040F0B5827A0121914082
:100870002E4A136843F0010313602C4B1C331C6891
:100880008C431C60294D067B294C0C35A6B92E687B
:100890008E432E604688C78846EA0746877A04EB6F
:1008A000C707C7F840660688878846EA0746877AFA
:1008B00004EBC707C7F84466067B012E12D12E68E9
:1008C0000E432E60867A056804EBC6064FEA35456E
:1008D000C6F84056867A456804EBC6044FEA3545AB
:1008E000C4F84456114CC57A241D002D256806D045
:1008F0000D4325600D4C0589143415B104E08D437A
:10090000F7E725688D4325600589012D02D125680B
:100910000D432560407B012802D118680843186008
:10092000106820F001001060F0BD0000006600407B
:1009300000600040002A426901D00A4300E08A4377
:100940004261704710B50368002223F00203036080
:10095000036843F0010303604FF6FF7300E0521C8D
:100960004468E40701D19A42F9D14268D2073ED0E7
:100970008A79012A02683CD022F080020260CA799A
:10098000012A026838D022F0400202600A7A012A65
:10099000026834D022F0200202604A7A012A0268FA
:1009A00030D022F0100202608A7A012A02682CD02C
:1009B00022F008020260CA7A012A026828D022F0D6
:1009C000040202608A78CC78920742EA04620C79C9
:1009D00042EA04424C79098842EA0452491E0A4319
:1009E000C261016821F001010160002114E00020D2
:1009F00010BD42F08002C1E742F04002C5E742F07C
:100A00002002C9E742F01002CDE742F00802D1E728
:100A100042F00402D5E7491C4268D20701D099424E
:100A2000F9D14068C007E2D1012010BD10B500EB3C
:100A30000113D3F8B04114F004041472D3F8B04198
:100A400034D0E408C2F80440D3F8B04104F0020402
:100A50005472D3F8B44104F00F049472D3F8B44143
:100A6000240AD474D3F8B841D472D3F8B841240A14
:100A70001473D3F8B841240C5473D3F8B841240E3E
:100A80009473D3F8BC41D473D3F8BC41240A1474D2
:100A9000D3F8BC41240C5474D3F8BC311B0E9374AE
:100AA00039B1016941F02001016110BD640D14608C
:100AB000CAE7C16841F02001C16010BD0021817109
:100AC000C171017241728172C1728170C170032162
:100AD00001710221417101210180704730B5024648
:100AE000002093685B0108D49068000101D50120C3
:100AF00003E09068C00037D5022002EB0012D2F864
:100B0000803103F00103C2F880310B7A73B3D2F85D
:100B100080414D681C434B7A43EAC5031C43C2F82D
:100B200080418B7A03F00F038B72D2F8843123F06B
:100B30000F03C2F88431D2F884318C7A2343C2F88F
:100B40008431CB7ACC6843EA0423C2F88831CB7B6A
:100B5000096943EA0121C2F88C11D2F8801141F0F1
:100B60000101C2F8801130BD042030BDD2F88031BF
:100B70004C7A23430C8843EA4453C2F88031D0E7CF
:100B8000002221B1012905D0022906D112E0826894
:100B9000114801E08268114802401149501A8A4206
:100BA00014D00ADCA2B16FF0806010180FD00228B8
:100BB0000CD10FE082680B48EEE7B0F5007F09D05A
:100BC0000949401803D0B0F5003F03D0002070471A
:100BD0000220704701207047030000040003000852
:100BE00000010008000003100001FFF77047F0B596
:100BF0000023012403270D6804FA03F215409542EF
:100C000042D1D0F800C05E0007FA06F52CEA050CC8
:100C1000C0F800C091F804C0D0F800E00CFA06FC5F
:100C20004CEA0E0CC0F800C091F804C0BCF1010FF2
:100C300002D0BCF1020F1FD1D0F808C02CEA050C7D
:100C4000C0F808C091F805C0D0F808E00CFA06FC1E
:100C50004CEA0E0CC0F808C0D0F804C02CEA020C14
:100C6000C0F804C0426891F806C00CFA03FC1FFAF1
:100C70008CFC42EA0C024260C268AA43C260CA7994
:100C8000C568B2402A43C2605B1C102BB3D3F0BDD1
:100C90004B07DB0E9A40C90810B500EB8100016AD2
:100CA0000F249C40A1430162016A1143016210BDFF
:100CB00041837047FEE700001CB50121022000F0CF
:100CC000CBF8C020012400908DF8044000208DF85E
:100CD000060002208DF805008DF80740694604489B
:100CE000FFF785FF0348C0F89842C0F89C421CBD3E
:100CF00000040240008040427CB50121022000F047
:100D0000ABF80720012400908DF8044002258DF8EF
:100D1000055069460848FFF76AFF0121202000F0CE
:100D20009BF8E00200908DF804408DF8055069466C
:100D30000248FFF75CFF7CBD000402400014024043
:100D400010B5094C01212046FFF7B2FF02212046D1
:100D5000FFF7AEFF04212046FFF7AAFFE114BDE82C
:100D600010400248FFF7A4BF0004024000140240F4
:100D7000FEE77047F8B500214FF0006000F060F822
:100D80004FF4A066304600F051F825208DF80000A1
:100D900000248DF801408DF8024001258DF80350A4
:100DA000684600F011F814208DF80000304600F07D
:100DB0003DF88DF801408DF802408DF803506846EB
:100DC00000F002F8F8BD000030B50F22C4780178B9
:100DD0000123FCB1144C246801F1E02104F4E06427
:100DE000C4F5E064C4F30724C4F10405E240447888
:100DF000AC408578154025432A0181F8002400780D
:100E000000F01F018B404009800000F1E020C0F895
:100E1000003130BD01F01F0083404809800000F11F
:100E2000E020C0F8803130BD0CED00E002490843FD
:100E300002490860704700000000FA050CED00E070
:100E4000024A1140014302480160704780FFFF1FC2
:100E500008ED00E070470000044A0029116801D045
:100E6000014300E0814311607047000030380240C8
:100E7000044A0029116801D0014300E08143116058
:100E80007047000040380240044A0029116801D030
:100E9000014300E0814311607047000020380240A8
:100EA000044A0029116801D0014300E08143116028
:100EB0007047000044380240044A0029116801D0FC
:100EC000014300E081431160704700002438024074
:100ED00070B5204A1168204C11F00C0104D0661046
:100EE000042903D0082903D004601BE0066019E040
:100EF0001849091F0B68C3F380550B6803F03F03C3
:100F000015B1B6FBF3F301E0B4FBF3F30C68096829
:100F1000C4F388146343C1F30141491C4900B3FB86
:100F2000F1F1016011680F2303EA11110B4B5C5CB6
:100F30000168E14041601468072505EA94241C5DBE
:100F400021FA04F48460126805EA52329A5CD140B6
:100F5000C16070BD083802400024F400AC000020DD
:100F6000704700000CB500202749019000900A68E6
:100F700042F480320A604FF4A0630A6802F400323F
:100F80000092019A521C0192009A12B9019A9A4257
:100F9000F3D10A68920334D5012000901A484030FA
:100FA000026842F0805202601848026842F48042AF
:100FB00002601548083002680260026842F400428C
:100FC0000260026842F4A0520260031F104A1A60D5
:100FD0000A6842F080720A600A689201FCD50D4AE4
:100FE00040F205611160016821F0030101600168B0
:100FF00041F0020101600168C1F381010229FAD1C7
:101000000CBD00900CBD0000003802400070004094
:1010100008544007003C02404FF0E02104280869D2
:1010200003D020F004000861704740F00400FAE7A4
:1010300000B500F03DF806484168491C4160B1F533
:10104000FA7F03D3012101700021416000BD00003F
:10105000A0000020124810B5016841F47001016041
:101060001048016841F0010101600E4A0021083278
:10107000116002680C4B1A400260031D0B4A1A6093
:10108000026822F48022026006480C300160FFF7FB
:1010900069FF03494FF000608039086010BD00000F
:1010A00088ED00E000380240FFFFF6FE103000241B
:1010B00003488168002902D08168491E8160704719
:1010C000A000002070B51C4C40F225552946204652
:1010D00000F004F900B3A3882046194A174956685E
:1010E0008B5553685B1C53605368022B0CD35368B9
:1010F0000B4413F8013C012B06D15368194411F835
:10110000011C012900D111705168192901D9002150
:101110005160294600F016F840F22775294620460E
:1011200000F0DCF8002805D029462046BDE87040D4
:1011300000F008B870BD00000010014088010020D8
:10114000980000200A0A01219140C943018070479C
:1011500010B5028A4C8822F470630A8822438C8876
:10116000C9880C4322431A43028210BD002101802A
:1011700041808180C18070470029818902D041F47B
:10118000005101E021F400518181704770B588B0B1
:1011900001210920FFF760FE01211020FFF780FEEA
:1011A000294D284600F054F8684600F025F906A8B5
:1011B000FFF7DCFF02218DF814108DF815100024C4
:1011C0008DF8164001208DF8170040021F4E049044
:1011D00004A93046FFF70BFD072209213046FFF72F
:1011E00057FD2815049004A93046FFF700FD07229B
:1011F0000A213046FFF74CFD06A92846FFF7A8FF55
:101200004FF4E1300090ADF808400C20ADF80440F8
:10121000ADF80A00ADF80640ADF80C406946284626
:1012200000F094F8012240F22551284600F075F8AC
:1012300040F226612846FFF785FF01212846FFF787
:101240009BFF08B070BD000000100140000002408C
:101250001C4910B5884206D101211020FFF72CFE51
:101260000021102028E01849884202D101214C04B5
:1012700010E01649884202D101218C040AE0144989
:10128000884202D10121CC0404E0124988420AD1EB
:1012900001210C052046FFF7F7FD2046BDE8104070
:1012A0000021FFF7F1BD0C49884209D1012120201E
:1012B000FFF702FE00212020BDE81040FFF7FCBD33
:1012C00010BD0000001001400044004000480040F4
:1012D000004C0040005000400014014030B501F0C7
:1012E0001F0201240025C1F3421304FA02F2012B6C
:1012F0000FD0022B0FD0838A4FEA112100881342AE
:1013000004FA01F400EA040001D000B101252846E6
:1013100030BD8389F0E7038AEEE710B5C1F34213CD
:1013200001F01F040121A140012B07D0022B07D09F
:101330001430002A026805D00A4304E00C30F8E7B4
:101340001030F6E78A43026010BD00007FB5044606
:10135000008A0D4620F44051E88808432082A08985
:1013600041F20C618843A9882A8911436A890243A2
:101370001143A181A08A20F44071A8890843A0826A
:101380006846FFF7A5FD1A48844202D019488442F6
:1013900001D1039800E00298A189090400EBC00183
:1013A00001EB0010296801D5490000E08900B0FB7D
:1013B000F1F26420B2FBF0F109010B096FF018059E
:1013C0006B4302EB8302A3891D044FF0320306D561
:1013D00003EBC202B2FBF0F000F0070005E003EB04
:1013E0000212B2FBF0F000F00F00084320817FBD35
:1013F00000100140001401404FF41651016000211B
:101400008180C18001810C22428181817047FEE789
:101410000FB4084B10B504A902AA039800F01CF8F9
:10142000044602A9002000F0C1F8204610BC5DF877
:1014300014FB0000AD15000802E008C8121F08C127
:10144000002AFAD170477047002001E001C1121F45
:10145000002AFBD1704700002DE9FF4F89B09B4661
:101460000446002506E025280BD05A460B999047E4
:10147000641C6D1C20780028F5D10DB02846BDE80D
:10148000F08F0027B8460122474900E0074314F8CF
:10149000013F203B02FA03F00842F7D120782E28C2
:1014A00019D114F8010F47F004072A280ED06FF065
:1014B0002F022078A0F1300109290CD808EB88010F
:1014C00002EB410100EB0108641CF2E70A98641C7E
:1014D00050F8048B0A9020780028CED0642808D0D9
:1014E000692806D075281ED05A460B9990476D1C66
:1014F00058E00A994FF00A0901C90A91002802DA56
:1015000040422D2102E0390504D52B218DF8201011
:10151000012103E0F90704D02021F7E78A4608AE4D
:101520000DE00021FAE70A994FF00A0901C90A9172
:10153000F7E74946FEF75DFF303106F8011D002848
:10154000F7D1ADEB060000F12009780701D44FF088
:101550000108C84502DDA8EB090000E00020804634
:10156000002706E008A85A46C05D0B9990476D1CFD
:101570007F1C5745F6DB04E030205A460B99904714
:101580006D1CB8F10001A8F10108F5DC05E016F8C2
:10159000010B5A460B9990476D1CB9F10001A9F156
:1015A0000109F4DC641C65E7092801000A68531C82
:1015B0000B6010707047002242F2107305E00021AA
:1015C000491C89B29942FBD3521C8242F7D370471F
:1015D00010B504466FF00400FFF71EFD0648E10851
:1015E00001EB41020170C2EBC1114FF6FF7202EA3A
:1015F000C101418010BD00000A00002010B5022288
:1016000004490020FFF732F8BDE810400220FFF740
:10161000D2BF00001500002010B504462820FFF7B7
:10162000CAFF11480222014644700020FFF71EF84D
:101630002820FFF7C0FF4FF4C0600B492018044674
:101640004FF0080201F14501FFF710F82820FFF7DD
:10165000B2FF0549204608224D31FFF707F8BDE8E3
:1016600010402820FFF7A7BF130000202DED0C8BA2
:1016700082B0FFF78BFDFFF77DFBFFF779F8FFF7EF
:101680001BFBFFF739FBA820FFF7A2FF0220FFF7A3
:1016900092FF01200021FFF7BFFF0C200021FFF780
:1016A000BBFF04200021FFF7B7FF02200021FFF756
:1016B000B3FFDFF85CB40F200BF108018BF80600D4
:1016C0008871083101F1080A88718AF80600022041
:1016D000FFF771FF0822594640F20160FEF7C6FF8E
:1016E0000220FFF768FF0822AAF1100140F20C6007
:1016F000FEF7BCFF0220FFF75EFF0822AAF10801F7
:1017000040F20460FEF7B2FF0220FFF754FF082208
:10171000514640F20260FEF7A9FFDFEDFEBAB0EEDF
:101720006B8ADFEDFD8AB7EE00BA4FF000089FED3F
:10173000FBCADFEDFBCA9FEDFBDAAAF1700900BF1F
:1017400038EE4B8AB5EEC08AF1EE10FA05D2A9F850
:101750000A80A9F80E80A9F81280F5EEC08AF1EE91
:1017600010FA02DD78EECB8A01E0FFF7E9FAEE48E5
:101770000178012963D1414680F800800020EB4BBD
:10178000EB4CEC4A03E01D5C2554401CC0B21568CC
:10179000A842F8D310684D46C2B289F800200B2A3F
:1017A0004DD3A970501E0EE0635C532B09D1631812
:1017B0005E784A2E05D19E78542E02D1DB78552BC7
:1017C00004D0491CA970C9B28142EDDBC8B20B300C
:1017D000904234D86018807A012830D1687810B1EE
:1017E000012814D029E0FFF709FF01200021FFF7AD
:1017F00013FF0C200021FFF70FFF04200021FFF74B
:101800000BFF02200021FFF707FF01206870A87876
:1018100020444179027901EB02212981E981C179D2
:10182000827901EB0221A9816981417A007A01EB79
:10183000002080B2288268826863B0EE6B8ABD495E
:10184000C1F8008064226FF0C7014846A9F80A2059
:101850008A4200DA4181B0F90E20C82A01DDC8228F
:10186000C281B0F90E208A4200DAC18190ED080AE7
:10187000B0F91210CCEE000A01EE101AB8EEC11A3F
:10188000F4EEC10AF1EE10FA04D2FDEEE00A10EE19
:10189000901A4182CCEE800AB0F9121001EE101AB3
:1018A000B8EEC11AF4EEC10AF1EE10FA04DDFDEE55
:1018B000E00A10EE901A4182B0F90A20B0F9143013
:1018C000D11A01F16404C82C1BD9002901D40A469D
:1018D00000E09A1A6424624300EE902AF8EEE01ABF
:1018E00000EE901AF8EEE00A81EEA01A00EE903AAF
:1018F000F8EEE00A71EE200AFDEEE00A10EE901A12
:101900004181B0F90E20B0F91630D11A01F164040A
:10191000C82C1BD9002901D40A4600E09A1A642475
:10192000624300EE902AB8EEE01A00EE901AF8EE4C
:10193000E00AC1EE201A00EE903AF8EEE00A71EEED
:10194000A00AFDEEE00A10EE901AC181CDEE000A69
:10195000B0F91240B0F91820A11A01D40B4600E0EA
:10196000131B01EE103AB8EEC11AF4EEC10AF1EE03
:1019700010FA1BD2002901D40B4600E0131B01EE24
:10198000103AB8EEC11A20EE811A00EE901AF8EE65
:10199000E00AC1EE201A00EE902AF8EEE00A71EE9D
:1019A000A00AFDEEE00A10EE901A4182B0F90A405A
:1019B0008482B0F90E20C282131B00EE903AB0F977
:1019C00012100183B8EEE01A00EE901A2244F8EEED
:1019D000E00A00EE201AD0ED070A21EE202A01EEDF
:1019E000102A80ED092AF8EEC11A01EE101AB8EE9D
:1019F000C11A40EE011A01EE103AF8EEC12A01EECA
:101A0000101A61EEA01AB8EEC11AC0ED0A1A40EE23
:101A1000412A01EE102AB8EEC13A01EE101A62EE28
:101A2000A02AB8EEC11AC0ED0B2A00EE413ABDEE75
:101A3000C20A10EE102ABDEEE10A63EE200A150A72
:101A400010EE103AB1EE620AC0ED0C0ABDEEC00A0B
:101A5000826310EE101AB1EE600AC0E90F31BDEEDC
:101A6000C00A2B4810EE104A0830C9F844408BF8E1
:101A700004208BF80550150C8BF80650120E8BF8CD
:101A8000072003711A0A42711A0C82711A0EC27170
:101A900008300A0A017142710A0C8271090EC17183
:101AA0008AF80440210A8AF80510210C8AF80610E9
:101AB000210E8AF807100220FFF77DFD40F2016534
:101AC000082213492846FEF7D1FD0220FFF773FDD7
:101AD0000F4940F20C67082208313846FEF7C6FD70
:101AE0000220FFF768FD0A49EC1C0822103120464D
:101AF000FEF7BCFD0220FFF75EFD0549A61E082289
:101B000018313046FEF7B2FD0220FFF754FD13E016
:101B1000680000200000FA440000C8430000484369
:101B2000000048C30000C84298000020880100203F
:101B3000D00000209C000020082246492846FEF7DD
:101B400095FD0220FFF737FD082242493846FEF78F
:101B50008DFD0220FFF72FFD08223E492046FEF7AB
:101B600085FD0220FFF727FD08223A493046FEF79F
:101B70007DFD0220FFF71FFD364908220831284667
:101B8000FEF774FD0220FFF716FD324908220831E6
:101B90003846FEF76BFD0220FFF70DFD2D490822A8
:101BA00008312046FEF762FD0220FFF704FD2949B7
:101BB000082208313046FEF759FD0220FFF7FBFCF2
:101BC0001A20FFF7F8FC244CE068FEF7E2FB9FEDDB
:101BD000239B53EC192BFEF76DFB9FED22AB53ECCF
:101BE0001A2BFEF7F5FAFEF7E5FB0746A068FEF7AD
:101BF000D0FB53EC192BFEF75DFB53EC1A2BFEF7D1
:101C0000E7FAFEF7D7FB06466068FEF7C2FB53EC27
:101C1000192BFEF74FFB53EC1A2BFEF7D9FAFEF700
:101C2000C9FB05462068FEF7B4FB53EC192BFEF701
:101C300041FB53EC1A2BFEF7CBFAFEF7BBFB024637
:101C40002B460AA104F11000CDE90067FFF7E0FB85
:101C500076E500008800002034010020104B059A32
:101C6000E4FF20410000000000408F4053504545F4
:101C70004444545525642C25642C25642C25644447
:101C8000545553504545440D0A000000050000001E
:101C9000000000000C00000001000000C201000074
:101CA0000A00000000000000050000000100000024
:101CB000900100000F000000000000000C00000078
:101CC0000100000096000000140000000000000069
:101CD0000500000001000000C8000000190000001D
:101CE0000000000005000000070000007000000078
:101CF00028000000000000000500000001000000B6
:101D00006400000032000000000000000500000038
:101D100007000000380000003E0000000000000046
:101D20000C00000001000000240000005000000032
:101D3000000000000500000001000000320000006B
:101D40006400000000000000050000000700000023
:101D50001C0000007D000000000000000C000000DE
:101D60000100000012000000C80000000000000098
:101D700005000000070000000E000000FA0000004F
:101D8000000000000E000000040000000800000039
:101D900090010000000000000E00000004000000A0
:101DA00005000000F4010000000000000E0000002B
:101DB00004000000040000009A020000000000007F
:101DC00004000000010000000800000020030000E3
:101DD0000000000007000000020000000E000000EC
:101DE000E8030000000000000E00000004000000F6
:101DF00002000000141E000800000020BC000000CB
:101E000038140008D01E0008BC000020EC040000BC
:101E1000481400080000000000000000000000005E
:101E200000000000000000010F010F000000000092
:101E300000000000000000000000000000000000A2
:101E40003900D345B81E153F000000000000000017
:101E50000000000000000000000000000000000082
:101E60000000000000000000000000002F60600083
:101E7000030000002B4060001F00000023FF6000F3
:101E80000000000023FF60000000000023FF60004E
:101E90000000000023FF600000000000A0402200BE
:101EA0007F0E0000A06960007F0E000000000000AF
:101EB0000000000000000000000000000000000022
:101EC00000000000010203040102030406070809E0
:040000050800018965
:00000001FF
