:020000040000FA
:100000006806002025020000D7070000A7030000B3
:10001000D5070000EF0200003D09000000000000CD
:10002000000000000000000000000000F5070000D4
:10003000F102000000000000D9070000DD08000008
:100040004902000049020000490200004902000084
:100050004902000049020000490200004902000074
:100060004902000049020000490200004902000064
:100070004902000049020000490200004902000054
:100080004902000049020000490200004902000044
:100090004902000049020000490200004902000034
:1000A0004902000049020000490200004902000024
:1000B0004902000049020000490200004902000014
:1000C0004902000049020000490200004902000004
:1000D00049020000490200004902000049020000F4
:1000E00049020000490200004902000049020000E4
:1000F00049020000490200004902000049020000D4
:1001000049020000490200004902000049020000C3
:1001100049020000490200004902000049020000B3
:1001200049020000490200004902000049020000A3
:100130004902000049020000490200004902000093
:100140004902000049020000490200004902000083
:100150004902000049020000490200004902000073
:100160004902000049020000490200004902000063
:100170004902000049020000490200004902000053
:10018000490200004902000000F002F800F03AF8CD
:100190000AA090E8000C82448344AAF10107DA45E2
:1001A00001D100F02FF8AFF2090EBAE80F0013F0FA
:1001B000010F18BFFB1A43F001031847F0090000B4
:1001C000100A0000103A24BF78C878C1FAD8520744
:1001D00024BF30C830C144BF04680C6070470000C1
:1001E0000023002400250026103A28BF78C1FBD840
:1001F000520728BF30C148BF0B6070471FB51FBDF5
:1002000010B510BD00F039F81146FFF7F7FF00F008
:10021000A9FB00F057F803B4FFF7F2FF03BC00F0AE
:100220005FF800000C48016841F4700101600B4860
:1002300080470B480047FEE7FEE7FEE7FEE7FEE7E4
:10024000FEE7FEE7FEE7FEE7FEE700000548064999
:10025000064A074B7047000088ED00E0ED080000FB
:100260008901000068000020680600206802002064
:1002700068020020704770477047754600F02CF800
:10028000AE4605006946534620F00700854618B083
:1002900020B5FFF7DBFFBDE820404FF000064FF030
:1002A00000074FF000084FF0000B21F00701AC46AB
:1002B000ACE8C009ACE8C009ACE8C009ACE8C009CA
:1002C0008D46704710B50446AFF300802046BDE868
:1002D0001040FFF7A0BF0000004870470400002056
:1002E00001491820ABBEFEE7260002007047FEE77A
:1002F0007047F0B50023012403270D6804FA03F2C8
:100300001540954242D1D0F800C05E0007FA06F5CC
:100310002CEA050CC0F800C091F804C0D0F800E049
:100320000CFA06FC4CEA0E0CC0F800C091F804C0B0
:10033000BCF1010F02D0BCF1020F1FD1D0F808C0F0
:100340002CEA050CC0F808C091F805C0D0F808E008
:100350000CFA06FC4CEA0E0CC0F808C0D0F804C039
:100360002CEA020CC0F804C0426891F806C00CFAEE
:1003700003FC1FFA8CFC42EA0C024260C268AA43EA
:10038000C260CA79C568B2402A43C2605B1C102BA8
:10039000B3D3F0BD41837047018370470AB1018335
:1003A000704741837047FEE72DE9FC5F0121022081
:1003B00000F014FA01248DF8044000208DF80600A6
:1003C00003258DF805508DF8070000946946FB4819
:1003D000FFF78FFF0121202000F000FA8DF8044084
:1003E0008DF806408DF805500020DFF8D4B32603C1
:1003F0008DF80700009669465846FFF77AFF0121FD
:10040000202000F0EBF98DF804408DF806408DF8BF
:100410000550002067038DF807000097694658468D
:10042000FFF767FF0121202000F0D8F9E0028DF8E6
:10043000044000908DF806408DF8055000208DF89E
:10044000070069465846FFF754FF0121402000F09D
:10045000C5F98DF804408DF806408DF80550002050
:10046000DFF860838DF80700009669464046FFF785
:1004700040FF0121402000F0B1F98DF804408DF8D3
:1004800006408DF8055000208DF80700009769465A
:100490004046FFF72EFF0121402000F09FF98DF824
:1004A00004408DF806408DF805500020A6038DF815
:1004B0000700009669464046FFF71BFF01214020D8
:1004C00000F08CF98DF804408DF806408DF8055049
:1004D0000020E7038DF80700009769464046FFF7C4
:1004E00008FF0121202000F079F98DF804408DF8F3
:1004F00006408DF8055000208DF8070000966946EB
:100500005846FFF7F6FE0121202000F067F98DF82C
:1005100004408DF806408DF8055000208DF8070046
:10052000009769465846FFF7E4FE0121402000F09D
:1005300055F98DF804408DF806408DF805500020DF
:100540008DF80700009469464046FFF7D2FE01216E
:10055000402000F043F98DF804408DF806408DF8F6
:100560000550002002268DF8070000966946404697
:10057000FFF7BFFE0121102000F030F98DF8044094
:100580008DF806408DF805500020DFF83C9280275A
:100590008DF80700009769464846FFF7AAFE01213B
:1005A000102000F01BF920028DF8044000908DF817
:1005B00006408DF8055000208DF807006946484632
:1005C000FFF797FE0121102000F008F98DF8044094
:1005D0008DF806408DF8055000204FF400788DF816
:1005E0000700CDF8008069464846FFF782FE0121EA
:1005F000102000F0F3F88DF804408DF806408DF8D7
:10060000055000204FF4806A8DF80700CDF800A057
:1006100069464846FFF76DFE0121022000F0DEF832
:100620008DF804408DF806408DF8055000204FF0FD
:1006300040098DF80700CDF8009069465F48FFF744
:1006400058FE0121022000F0C9F88DF804408DF811
:1006500006408DF8055000208DF807000097694688
:100660005648FFF746FE0121202000F0B7F88DF82C
:1006700004408DF806408DF8055000208DF80700E5
:10068000009469465846FFF734FE0121202000F00F
:10069000A5F88DF804408DF806408DF8055000202F
:1006A0008DF80700009669465846FFF722FE0121A3
:1006B000082000F093F8102000908DF804400020EE
:1006C0008DF806008DF80550404F8DF807006946FB
:1006D0003846FFF70EFE0121082000F07FF82020A9
:1006E0008DF8044000908DF806408DF805500020EC
:1006F0008DF8070069463846FFF7FBFD0121082009
:1007000000F06CF800208DF804008DF806408DF89C
:1007100005508DF80700CDF8009069463846FFF780
:10072000E8FD0121082000F059F88DF804408DF80B
:1007300006408DF8055000208DF8070000966946A8
:100740003846FFF7D6FD0121082000F047F80020C9
:100750008DF804008DF806408DF805508DF80700DF
:10076000009469463846FFF7C4FD0121084600F0B1
:1007700035F88DF804408DF806408DF805500020BE
:100780008DF80700CDF8008069461148FFF7B1FDEC
:100790000121022000F022F88DF804408DF8064077
:1007A0008DF8055000208DF80700CDF800A06946AF
:1007B0000248FFF79EFDBDE8FC9F000000040240D8
:1007C000001402400018024000100240000C0240D9
:1007D00000000240FEE7704770470000044A00290D
:1007E000116801D0014300E08143116070470000AF
:1007F00030380240704700000CB5002027490190B6
:1008000000900A6842F480320A604FF4A0630A68DC
:1008100002F400320092019A521C0192009A12B91D
:10082000019A9A42F3D10A68920334D501200090CC
:100830001A484030026842F080520260184802684C
:1008400042F4804202601548083002680260026883
:1008500042F400420260026842F4A0520260031FA8
:10086000104A1A600A6842F080720A600A689201AF
:10087000FCD50D4A40F205611160016821F00301C9
:100880000160016841F0020101600168C1F381016A
:100890000229FAD10CBD00900CBD000000380240C6
:1008A0000070004008544007003C0240B0F1807FD7
:1008B00001D30120704720F07F414FF0E020491E16
:1008C0004161054AF02182F8141D00218161072150
:1008D00001610020704700000FE000E0024801883D
:1008E000491E018070470000000000200F4810B52D
:1008F000016841F0010101600C4A002108321160D9
:1009000002680B4B1A400260031D0A4A1A60026813
:1009100022F48022026005480C300160FFF76CFF72
:1009200005494FF00060086010BD0000003802402B
:10093000FFFFF6FE1030002408ED00E0FEE70000A7
:1009400010B5064C20800648FFF7B0FF208800282D
:10095000FCD14FF0E021086110BD00000000002034
:1009600040900200FFF720FD8A4C01212046FFF74E
:1009700013FDA514884EDFF824926F004FF4006831
:100980004FF4804A4FF4004B01212046FFF702FD4F
:10099000002229463046FFF701FD00223946304645
:1009A000FFF7FCFC002241463046FFF7F7FC00222F
:1009B00029464846FFF7F2FC002239464846FFF731
:1009C000EDFC002251464846FFF7E8FC002259465C
:1009D0004846FFF7E3FC002251463046FFF7DEFCB5
:1009E000002259463046FFF7D9FC00220121484633
:1009F000FFF7D4FC002202214846FFF7CFFC00227B
:100A000080216748FFF7CAFC00224FF480716448D8
:100A1000FFF7C4FC00224FF400716148FFF7BEFCF1
:100A200000224FF480615E48FFF7B8FC00224021AD
:100A30002046FFF7B3FC002280212046FFF7AEFCE2
:100A4000002201213046FFF7A9FC00220221304696
:100A5000FFF7A4FC002210215248FFF79FFC002260
:100A600020215048FFF79AFC002202214D48FFF751
:100A700095FC00224FF400714B48FFF78FFC0022D9
:100A80004FF480612046FFF789FC40F6B830FFF74D
:100A900057FF01212046FFF77FFC012229463046FF
:100AA000FFF77CFC012239463046FFF777FC012234
:100AB00041463046FFF772FC012229464846FFF7BF
:100AC0006DFC012239464846FFF768FC0122514679
:100AD0004846FFF763FC012259464846FFF75EFC93
:100AE000012251463046FFF759FC01225946304653
:100AF000FFF754FC012211464846FFF74FFC012244
:100B000002214846FFF74AFC012280212448FFF7D2
:100B100045FC012211022248FFF740FC012251024C
:100B20001F48FFF73BFC012291021D48FFF736FCEE
:100B3000012240212046FFF731FC0122802120467E
:100B4000FFF72CFC012211463046FFF727FC01225B
:100B500002213046FFF722FC012210211148FFF745
:100B60001DFC012220210F48FFF718FC0122022161
:100B70000C48FFF713FC012251020B48FFF70EFC53
:100B8000012291022046FFF709FC40F6B830FFF73A
:100B9000D7FEF9E6000402400014024000180240AB
:100BA00000100240000C024000000240CC0B00008C
:100BB0000000002004000000C4010000D00B000071
:100BC0000400002064060000E001000000000000B6
:04000005000001896D
:00000001FF
