:020000040800F2
:10000000A80500209D0100084F0F0008B70C00084C
:100010004D0F00083B050008AF1600080000000067
:100020000000000000000000000000003D1100087A
:10003000E90B000800000000311000080D12000854
:10004000C1010008C1010008C1010008C101000888
:10005000C1010008C1010008C1010008C101000878
:10006000C1010008C1010008C1010008C101000868
:10007000C1010008C1010008C1010008C101000858
:10008000C1010008C1010008C1010008C101000848
:100090003D050008C1010008C1010008C1010008B8
:1000A000C1010008C1010008C1010008C101000828
:1000B000C1010008C1010008C1010008C101000818
:1000C000C1010008C1010008C1010008C101000808
:1000D000C101000865130008C1010008C101000842
:1000E000C1010008C1010008C1010008C1010008E8
:1000F000C1010008C1010008C1010008C1010008D8
:10010000C1010008C1010008C1010008C1010008C7
:10011000C1010008C1010008C1010008C1010008B7
:10012000C1010008C1010008C1010008C1010008A7
:10013000C1010008C1010008C1010008C101000897
:10014000C1010008C1010008C1010008C101000887
:10015000C1010008C1010008C1010008C101000877
:10016000C1010008C1010008C1010008C101000867
:10017000C1010008C1010008C1010008C101000857
:10018000C1010008C1010008DFF80CD000F0B4F98B
:100190000048004775190008A805002009480168B3
:1001A00041F4700101600848804708480047FEE7B5
:1001B000FEE7FEE7FEE7FEE7FEE7FEE7FEE7FEE717
:1001C000FEE7000088ED00E0311200088901000818
:1001D0002DE9FE4F81EA030404F0004421F00041C0
:1001E00000944FF0000B23F0004350EA01045ED06E
:1001F00052EA03045BD0C3F30A54C1F30A552C44FA
:10020000A4F2F3340194A0FB0254C1F3130141F4AE
:100210008011C3F3130343F4801301FB024400FB7A
:10022000034E840A970A44EA815447EA8357A4FBA1
:10023000076802958D0A05FB07854FEA932C04FB9E
:100240000C542705029D4FEA065847EA1637B5EBCE
:1002500008056EEB070C870E920E47EA811742EAFB
:100260008312A7FB0201B6EB0B0164EB00042B0D1C
:1002700043EA0C335E1844EB1C50DA465146E7FB68
:100280000201C5F313044FEA0B3343EA14534FEA58
:100290000432019C43EA0603A4F10C040294009C7E
:1002A000CDE900B400F0DAF803B0BDE8F08F00202B
:1002B0000146F9E72DE9F04D81EA030404F0004B13
:1002C00021F0004514464FF0000A23F0004150EAA7
:1002D000050220D054EA01021DD0C5F30A57024698
:1002E000C5F31303C1F31300C1F30A5640F480159C
:1002F00043F48013A7EB0608101BD64608F2FD381E
:1003000073EB050002D308F1010801E092185B418C
:10031000B8F1000F03DA00200146BDE8F08D00209F
:100320004FF48011064684460EE0171B73EB050759
:1003300005D3121B63EB050306434CEA010C490885
:100340004FEA300092185B4150EA0107EDD152EAC2
:10035000030012D082EA040083EA0501084305D0B5
:10036000101BAB4106D20122002306E000224FF011
:10037000004302E06FF0010253101AEB06004CEB51
:10038000085110EB0A0041EB0B01BDE8F04D00F005
:1003900056B80EB5C10F80EAE0700844CA070021C4
:1003A00040F233438DE80E000A460B4600F056F843
:1003B00003B000BD70B5C1F30A5201F0004500243E
:1003C000C1F3130140F2FF3341F480119A4201DA84
:1003D000002070BD40F233439A42A2F2334203DC64
:1003E000524200F01CF800E090402C43F1D0404213
:1003F00070BD30B50B46014600202022012409E0E3
:1004000021FA02F59D4205D303FA02F5491B04FACD
:1004100002F52844151EA2F10102F1DC30BD202AAC
:1004200004DB203A21FA02F00021704721FA02F39E
:10043000D040C2F12002914008431946704710B5E0
:10044000141E73F1000408DA401C41F100019218F7
:100450005B411A4301D120F0010010BD2DE9F04DA0
:1004600092469B4611B1B1FA81F202E0B0FA80F2F5
:100470002032904600F052F804460F4640EA0A0047
:1004800041EA0B0153465A46084313D0114653EA3A
:10049000010019D0C8F140025046FFF7C0FF0546E1
:1004A0000E4650465946424600F038F8084305D0FB
:1004B000012004E020463946BDE8F08D00200543C8
:1004C00046EAE0762C4337430A986305E40AA0EB3A
:1004D00008000022FD0A44EA47540A3002D50020F1
:1004E0000146E9E7010510196941DDE908450019F0
:1004F0006941BDE8F04DA2E7064C074D06E0E06813
:1005000040F0010394E8070098471034AC42F6D35A
:10051000FFF73EFE80210008A0210008202A04DB0E
:10052000203A00FA02F1002070479140C2F1200306
:1005300020FA03F3194390407047FEE770B5464C2C
:1005400000210846216061602172A172E174621885
:10055000491CD0720829FAD3404900202218D27AC7
:100560000A54401C0828F9D33D4D3B4A0021284637
:1005700000F05AFA2068C0F30711582961D1E17BD5
:10058000A27C237C01EB0261627C120402EB032259
:10059000114400F00F033348334A012B06D00C2BD3
:1005A00017D0042B28D0022B39D04AE0E37A432B12
:1005B00047D1237B692B02D0402B05D041E0627BE1
:1005C000602A3ED101603CE0607B222839D1116075
:1005D00037E0E37A432B34D1237B692B02D0402BC5
:1005E00005D02EE0627B602A2BD1416029E0607B40
:1005F000222826D1516024E0E37A432B21D1237BAA
:10060000692B02D0402B05D01BE0627B602A18D1F9
:10061000816016E0607B222813D1916011E0E37ABB
:10062000432B0ED1237B692B02D0402B05D008E051
:10063000627B602A05D1C16003E0607B222800D183
:10064000D16006490120491E08702846BDE8704067
:10065000022100F051B80000BC0000200100002081
:10066000006400403401002078010020F0B585B01E
:10067000009000208DF808008DF8090004468DF8E0
:100680000A2068460A5D0319641CDA72082CF9D343
:10069000094E0146304600F01FFA05464FF6FF7737
:1006A00000E0641C2946304600F068FA012801D0B9
:1006B000BC42F6D105B0F0BD0064004010B50D4B52
:1006C000002200BF02EB820453F8244084420CD184
:1006D00002EB820003EB80000279CA70027A0A7191
:1006E000027B4A71008A088010BD521C122AE9D38D
:1006F00010BD00001820000830B508231024042283
:10070000B1F5007F1DD010DC202929D007DC01299C
:1007100021D0042922D0082900D1C46030BD40294D
:1007200020D0B1F5807FF9D10BE00025B1F5004F65
:1007300006D008DCB1F5806F03D0B1F5006FEDD1C4
:100740008561426030BDB1F5803F0DD0B1F5003F0D
:10075000F8D1446030BD0549816030BDC36030BD13
:10076000036130BD046130BD436030BD0101010053
:1007700070B58AB00121082000F05CFC03200790CE
:1007800002208DF820008DF821000024284E8DF8DD
:10079000224001258DF8235007A9304600F025FAA4
:1007A00009220021304600F071FA09220121304669
:1007B00000F06CFA0121480600F048FC1D4E30465E
:1007C00000F03AF8684600F077F98DF808408DF8A7
:1007D00009508DF806408DF80A408DF807408DF8D5
:1007E0000B408DF8024069464FF4FA70FFF766FF40
:1007F0006946304600F0A4F88DF816408DF8174091
:100800008DF81850ADF80C40ADF81040ADF80E4022
:10081000ADF81240ADF814408DF8195003A800F05F
:1008200021F801220221304600F082F80AB070BDA2
:10083000000C024000640040094910B588424FF0A6
:10084000010101D14C0601E04FF08064204600F028
:1008500009FC2046BDE81040002100F003BC000068
:1008600000640040F0B5827A012191402E4A13685D
:1008700043F0010313602C4B1C331C688C431C6039
:10088000294D067B294C0C35A6B92E688E432E6067
:100890004688C78846EA0746877A04EBC707C7F841
:1008A00040660688878846EA0746877A04EBC707CA
:1008B000C7F84466067B012E12D12E680E432E60C7
:1008C000867A056804EBC6064FEA3545C6F84056F9
:1008D000867A456804EBC6044FEA3545C4F84456A9
:1008E000114CC57A241D002D256806D00D432560C6
:1008F0000D4C0589143415B104E08D43F7E72568E4
:100900008D4325600589012D02D125680D432560A1
:10091000407B012802D1186808431860106820F055
:1009200001001060F0BD0000006600400060004063
:10093000002A426901D00A4300E08A4342617047BD
:1009400010B50368002223F002030360036843F03C
:10095000010303604FF6FF7300E0521C4468E40794
:1009600001D19A42F9D14268D2073ED08A79012A50
:1009700002683CD022F080020260CA79012A026833
:1009800038D022F0400202600A7A012A026834D08C
:1009900022F0200202604A7A012A026830D022F056
:1009A000100202608A7A012A02682CD022F0080222
:1009B0000260CA7A012A026828D022F0040202608A
:1009C0008A78CC78920742EA04620C7942EA0442BF
:1009D0004C79098842EA0452491E0A43C2610168FF
:1009E00021F001010160002114E0002010BD42F05F
:1009F0008002C1E742F04002C5E742F02002C9E7A9
:100A000042F01002CDE742F00802D1E742F00402C2
:100A1000D5E7491C4268D20701D09942F9D1406814
:100A2000C007E2D1012010BD10B500EB0113D3F8CF
:100A3000B04114F004041472D3F8B04134D0E40887
:100A4000C2F80440D3F8B04104F002045472D3F861
:100A5000B44104F00F049472D3F8B441240AD4745E
:100A6000D3F8B841D472D3F8B841240A1473D3F838
:100A7000B841240C5473D3F8B841240E9473D3F8BE
:100A8000BC41D473D3F8BC41240A1474D3F8BC41DC
:100A9000240C5474D3F8BC311B0E937439B1016922
:100AA00041F02001016110BD640D1460CAE7C16806
:100AB00041F02001C16010BD00218171C17101723E
:100AC00041728172C1728170C17003210171022172
:100AD000417101210180704730B5024600209368C2
:100AE0005B0108D49068000101D5012003E0906803
:100AF000C00037D5022002EB0012D2F8803103F09B
:100B00000103C2F880310B7A73B3D2F880414D688B
:100B10001C434B7A43EAC5031C43C2F880418B7ADD
:100B200003F00F038B72D2F8843123F00F03C2F865
:100B30008431D2F884318C7A2343C2F88431CB7A61
:100B4000CC6843EA0423C2F88831CB7B096943EAC5
:100B50000121C2F88C11D2F8801141F00101C2F8D4
:100B6000801130BD042030BDD2F880314C7A23434F
:100B70000C8843EA4453C2F88031D0E7002221B107
:100B8000012905D0022906D112E08268114801E04E
:100B90008268114802401149501A8A4214D00ADC76
:100BA000A2B16FF0806010180FD002280CD10FE0B6
:100BB00082680B48EEE7B0F5007F09D0094940187C
:100BC00003D0B0F5003F03D00020704702207047EB
:100BD0000120704703000004000300080001000822
:100BE000000003100001FFF77047F0B50023012457
:100BF00003270D6804FA03F21540954242D1D0F85C
:100C000000C05E0007FA06F52CEA050CC0F800C02B
:100C100091F804C0D0F800E00CFA06FC4CEA0E0C87
:100C2000C0F800C091F804C0BCF1010F02D0BCF1C3
:100C3000020F1FD1D0F808C02CEA050CC0F808C07C
:100C400091F805C0D0F808E00CFA06FC4CEA0E0C4E
:100C5000C0F808C0D0F804C02CEA020CC0F804C0E8
:100C6000426891F806C00CFA03FC1FFA8CFC42EAB9
:100C70000C024260C268AA43C260CA79C568B24029
:100C80002A43C2605B1C102BB3D3F0BD4B07DB0EB5
:100C90009A40C90810B500EB8100016A0F249C40FE
:100CA000A1430162016A1143016210BD0AB10183CF
:100CB000704741837047FEE71CB50121022000F018
:100CC000B9F9C020012400908DF8044000208DF86F
:100CD000060002208DF805008DF80740694604489B
:100CE000FFF783FF0348C0F89842C0F89C421CBD40
:100CF00000040240008040422DE9FC470121102001
:100D000000F098F94FF4F0600124DFF86091009052
:100D10008DF8044002278DF8057069464846FFF7B4
:100D200064FF0121202000F085F9E002DFF8408116
:100D300000908DF804408DF8057069464046FFF735
:100D400054FF0121202000F075F98DF80440A00324
:100D50008DF80640032500908DF8055000268DF88B
:100D6000076069464046FFF740FF0121202000F060
:100D700061F98DF80440E0038DF8064000908DF88D
:100D800005508DF8076069464046FFF72EFF0121A8
:100D9000402000F04FF98DF804408DF80640DFF850
:100DA000D4808DF8055000948DF807606946404660
:100DB000FFF71BFF0121402000F03CF98DF80440B3
:100DC0008DF806408DF8055000978DF8076069464C
:100DD0004046FFF70AFF0121102000F02BF98DF8A3
:100DE000044080208DF8064000908DF805508DF865
:100DF000076069464846FFF7F8FE0121102000F021
:100E000019F98DF8044020028DF8064000908DF805
:100E100005508DF8076069464846FFF7E6FE012158
:100E2000102000F007F98DF8044060028DF80640AC
:100E300000908DF805508DF8076069464846FFF729
:100E4000D4FE0121102000F0F5F88DF80440A00236
:100E50008DF8064000908DF805508DF807606946C2
:100E60004846FFF7C2FEBDE8FC87000000100240C4
:100E7000001402400018024010B5164C01229103E4
:100E80002046FFF713FF0122D1032046FFF70EFF94
:100E9000114C012211462046FFF708FF01220221D2
:100EA0002046FFF703FF0D4C012280212046FFF76B
:100EB000FDFE012211022046FFF7F8FE0122510239
:100EC0002046FFF7F3FE20460122BDE810409102C4
:100ED000FFF7ECBE00140240001802400010024070
:100EE00010B5174C00224FF480412046FFF7DEFE7C
:100EF00000224FF400412046FFF7D8FE114C00229B
:100F000001212046FFF7D2FE002202212046FFF7F2
:100F1000CDFE0D4C002280212046FFF7C7FE0022A7
:100F2000A1152046FFF7C2FE002261152046FFF7FB
:100F3000BDFE002221152046BDE81040FFF7B6BED9
:100F4000001402400018024000100240FEE7704703
:100F5000F8B500214FF0006000F060F84FF4A06693
:100F6000304600F051F825208DF8000000248DF85F
:100F700001408DF8024001258DF80350684600F0CD
:100F800011F814208DF80000304600F03DF88DF87F
:100F900001408DF802408DF80350684600F002F8D9
:100FA000F8BD000030B50F22C47801780123FCB1F0
:100FB000144C246801F1E02104F4E064C4F5E06419
:100FC000C4F30724C4F10405E2404478AC408578BA
:100FD000154025432A0181F80024007800F01F0104
:100FE0008B404009800000F1E020C0F8003130BDA6
:100FF00001F01F0083404809800000F1E020C0F8A4
:10100000803130BD0CED00E0024908430249086020
:10101000704700000000FA050CED00E0024A1140A4
:10102000014302480160704780FFFF1F08ED00E0A8
:1010300070470000044A0029116801D0014300E014
:10104000814311607047000030380240044A002993
:10105000116801D0014300E0814311607047000036
:1010600040380240044A0029116801D0014300E0E1
:10107000814311607047000020380240044A002973
:10108000116801D0014300E0814311607047000006
:1010900044380240044A0029116801D0014300E0AD
:1010A00081431160704700002438024070B5204A27
:1010B0001168204C11F00C0104D06610042903D0F3
:1010C000082903D004601BE0066019E01849091FD5
:1010D0000B68C3F380550B6803F03F0315B1B6FBF3
:1010E000F3F301E0B4FBF3F30C680968C4F388146C
:1010F0006343C1F30141491C4900B3FBF1F10160B5
:1011000011680F2303EA11110B4B5C5C0168E1408D
:1011100041601468072505EA94241C5D21FA04F453
:101120008460126805EA52329A5CD140C16070BD99
:10113000083802400024F400AC0000207047000092
:101140000CB500202749019000900A6842F48032D3
:101150000A604FF4A0630A6802F400320092019A18
:10116000521C0192009A12B9019A9A42F3D10A686C
:10117000920334D5012000901A484030026842F0B2
:10118000805202601848026842F4804202601548AA
:10119000083002680260026842F40042026002689D
:1011A00042F4A0520260031F104A1A600A6842F01B
:1011B00080720A600A689201FCD50D4A40F205610E
:1011C0001160016821F003010160016841F0020132
:1011D00001600168C1F381010229FAD10CBD0090C0
:1011E0000CBD000000380240007000400854400769
:1011F000003C02404FF0E0210428086903D020F0B1
:1012000004000861704740F00400FAE700B500F000
:101210003DF806484168491C4160B1F5FA7F03D3A7
:10122000012101700021416000BD0000A0000020EC
:10123000124810B5016841F470010160104801685E
:1012400041F0010101600E4A00210832116002687C
:101250000C4B1A400260031D0B4A1A60026822F40C
:101260008022026006480C300160FFF769FF0349E5
:101270004FF000608039086010BD000088ED00E08C
:1012800000380240FFFFF6FE10300024034881685A
:10129000002902D08168491E81607047A0000020AB
:1012A00070B588B001210420FFF7C4FE0121C804F5
:1012B000FFF7CCFE294D284600F01AF9684600F0E9
:1012C000EBF906A800F0A2F802218DF814108DF8B1
:1012D000151000248DF8164001208DF817008002AB
:1012E0001F4E049004A93046FFF77FFC08220A2114
:1012F0003046FFF7CBFCE814049004A93046FFF712
:1013000074FC08220B213046FFF7C0FC06A92846D2
:1013100000F06EF84FF416500090ADF808400C2025
:10132000ADF80440ADF80A00ADF80640ADF80C4049
:101330006946284600F05AF9012240F22551284614
:1013400000F03BF940F22661284600F04BF80121FD
:10135000284600F061F808B070BD0000004C004065
:101360000008024070B51C4C40F225552946204625
:1013700000F004F900B3A3882046194A17495668BB
:101380008B5553685B1C53605368022B0CD3536816
:101390000B4413F8013C012B06D15368194411F892
:1013A000011C012900D111705168192901D90021AE
:1013B0005160294600F016F840F22775294620466C
:1013C00000F0DCF8002805D029462046BDE8704032
:1013D00000F008B870BD0000001001408801002036
:1013E000980000200A0A01219140C94301807047FA
:1013F00010B5028A4C8822F470630A8822438C88D4
:10140000C9880C4322431A43028210BD0021018087
:1014100041808180C18070470029818902D041F4D8
:10142000005101E021F400518181704770B588B00E
:1014300001210920FFF7FEFD01211020FFF71EFE0C
:10144000294D284600F054F8684600F025F906A812
:10145000FFF7DCFF02218DF814108DF81510002421
:101460008DF8164001208DF8170040021F4E0490A1
:1014700004A93046FFF7B9FB072209213046FFF7E0
:1014800005FC2815049004A93046FFF7AEFB07229F
:101490000A213046FFF7FAFB06A92846FFF7A8FF06
:1014A0004FF4E1300090ADF808400C20ADF8044056
:1014B000ADF80A00ADF80640ADF80C406946284684
:1014C00000F094F8012240F22551284600F075F80A
:1014D00040F226612846FFF785FF01212846FFF7E5
:1014E0009BFF08B070BD00000010014000000240EA
:1014F0001C4910B5884206D101211020FFF7CAFD12
:101500000021102028E01849884202D101214C0412
:1015100010E01649884202D101218C040AE01449E6
:10152000884202D10121CC0404E0124988420AD148
:1015300001210C052046FFF795FD2046BDE810402F
:101540000021FFF78FBD0C49884209D101212020DD
:10155000FFF7A0FD00212020BDE81040FFF79ABD55
:1015600010BD000000100140004400400048004051
:10157000004C0040005000400014014030B501F024
:101580001F0201240025C1F3421304FA02F2012BC9
:101590000FD0022B0FD0838A4FEA1121008813420B
:1015A00004FA01F400EA040001D000B10125284644
:1015B00030BD8389F0E7038AEEE710B5C1F342132B
:1015C00001F01F040121A140012B07D0022B07D0FD
:1015D0001430002A026805D00A4304E00C30F8E712
:1015E0001030F6E78A43026010BD00007FB5044664
:1015F000008A0D4620F44051E88808432082A089E3
:1016000041F20C618843A9882A8911436A890243FF
:101610001143A181A08A20F44071A8890843A082C7
:101620006846FFF743FD1A48844202D019488442B5
:1016300001D1039800E00298A189090400EBC001E0
:1016400001EB0010296801D5490000E08900B0FBDA
:10165000F1F26420B2FBF0F109010B096FF01805FB
:101660006B4302EB8302A3891D044FF0320306D5BE
:1016700003EBC202B2FBF0F000F0070005E003EB61
:101680000212B2FBF0F000F00F00084320817FBD92
:1016900000100140001401404FF416510160002178
:1016A0008180C18001810C22428181817047FEE7E7
:1016B0000FB4084B10B504A902AA039800F01CF857
:1016C000044602A9002000F0C1F8204610BC5DF8D5
:1016D00014FB00004D18000802E008C8121F08C1E2
:1016E000002AFAD170477047002001E001C1121FA3
:1016F000002AFBD1704700002DE9FF4F89B09B46BF
:101700000446002506E025280BD05A460B99904741
:10171000641C6D1C20780028F5D10DB02846BDE86A
:10172000F08F0027B8460122474900E0074314F82C
:10173000013F203B02FA03F00842F7D120782E281F
:1017400019D114F8010F47F004072A280ED06FF0C2
:101750002F022078A0F1300109290CD808EB88016C
:1017600002EB410100EB0108641CF2E70A98641CDB
:1017700050F8048B0A9020780028CED0642808D036
:10178000692806D075281ED05A460B9990476D1CC3
:1017900058E00A994FF00A0901C90A91002802DAB3
:1017A00040422D2102E0390504D52B218DF820106F
:1017B000012103E0F90704D02021F7E78A4608AEAB
:1017C0000DE00021FAE70A994FF00A0901C90A91D0
:1017D000F7E74946FEF70DFE303106F8011D0028F7
:1017E000F7D1ADEB060000F12009780701D44FF0E6
:1017F0000108C84502DDA8EB090000E00020804692
:10180000002706E008A85A46C05D0B9990476D1C5A
:101810007F1C5745F6DB04E030205A460B99904771
:101820006D1CB8F10001A8F10108F5DC05E016F81F
:10183000010B5A460B9990476D1CB9F10001A9F1B3
:101840000109F4DC641C65E7092801000A68531CDF
:101850000B6010707047002242F2107305E0002107
:10186000491C89B29942FBD3521C8242F7D370477C
:1018700010B504466FF00400FFF7BCFC0648E10811
:1018800001EB41020170C2EBC1114FF6FF7202EA97
:10189000C101418010BD00000A00002070B54FF466
:1018A0000775B0FBF5F1CCB2B0FBF5F105FB110605
:1018B00004E0284600F00CF8641EE4B2002CF8D1D5
:1018C000002E04D03046BDE8704000F001B870BD75
:1018D0000B49498848434FF0E021486100228A6162
:1018E000086940F0010008610869C30701D0C0031E
:1018F000FAD5086920F0010008618A61704700008C
:101900000A00002010B5022204490020FEF7AEFEB6
:10191000BDE810400220FFF79EBF00001500002028
:1019200010B504462820FFF796FF11480222014611
:1019300044700020FEF79AFE2820FFF78CFF4FF43A
:10194000C0600B49201804464FF0080201F1450120
:10195000FEF78CFE2820FFF77EFF0549204608226F
:101960004D31FEF783FEBDE810402820FFF773BF1E
:10197000130000202DED0C8B82B0FFF757FDFFF711
:10198000E7FAFEF7F5FEFFF797F9FFF7B5F9A8209C
:10199000FFF76EFF0220FFF75EFF40F6B830FFF75B
:1019A0007DFF00F00BFB01200021FFF7B9FF0C20A9
:1019B0000021FFF7B5FF04200021FFF7B1FF02204F
:1019C0000021FFF7ADFFDFF85CB40F200BF1080139
:1019D0008BF806008871083101F1080A88718AF8CD
:1019E00006000220FFF737FF0822594640F2016047
:1019F000FEF73CFE0220FFF72EFF0822AAF110019D
:101A000040F20C60FEF732FE0220FFF724FF0822AE
:101A1000AAF1080140F20460FEF728FE0220FFF759
:101A20001AFF0822514640F20260FEF71FFEDFED6A
:101A3000FEBAF3EE048AB0EE6B8AFFF751FAB7EE06
:101A400000BA4FF000089FEDF9CADFEDF9CA9FED2B
:101A5000F9DAAAF1700900BF38EE4B8AB5EEC08AF8
:101A6000F1EE10FA05D2A9F80A80A9F80E80A9F8BB
:101A70001280F5EEC08AF1EE10FA02DD78EECB8A24
:101A800001E0FFF7F9F942F21070FFF707FF00F0ED
:101A9000ADFAE9480178012963D1414680F8008018
:101AA0000020E64CE64DE74A03E0235C2B54401C43
:101AB000C0B213689842F8D310684C46C3B289F894
:101AC00000300B2B4DD3A170581E0EE06A5C532AD8
:101AD00009D16A1856784A2E05D19678542E02D12B
:101AE000D278552A04D0491CA170C9B28142EDDBDD
:101AF000C8B20B30984234D86818807A012830D1A7
:101B0000607810B1012814D029E0FFF7FBFE012016
:101B10000021FFF705FF0C200021FFF701FF042043
:101B20000021FFF7FDFE02200021FFF7F9FE012052
:101B30006070A07828444179027901EB022121816B
:101B4000E181C179827901EB0221A1816181417A30
:101B5000007A01EB002080B2208260826063B0EEE8
:101B60006B8AB849C1F80080B9F90A204FF4966130
:101B700048468A4200DD4181B0F90A30B24A9342B8
:101B800000DA4281B0F90E308B4200DDC181B0F93C
:101B90000E10914200DAC28190ED080AB0F91210DD
:101BA000CCEE000A01EE101AB8EEC11AF4EEC10A2A
:101BB000F1EE10FA04D2FDEEE00A10EE901A418226
:101BC000CCEE800AB0F9121001EE101AB8EEC11A6C
:101BD000F4EEC10AF1EE10FA04DDFDEEE00A10EEBB
:101BE000901A4182B0F90A30B0F91420991A01F123
:101BF0006404C82C1BD9002901D40B4600E0D31A79
:101C00006424634300EE903AF8EEE01A00EE901A76
:101C1000F8EEE00A81EEA01A00EE902AF8EEE00A53
:101C200071EE200AFDEEE00A10EE901A4181B0F943
:101C30000E30B0F91620991A01F16404C82C1BD992
:101C4000002901D40B4600E0D31A6424634300EE5C
:101C5000903AF8EEE01A00EE901AF8EEE00A81EE03
:101C6000A01A00EE902AF8EEE00A71EE200AFDEECE
:101C7000E00A10EE901AC181CDEE000AB0F91240D0
:101C8000B0F91830E11A01D40A4600E01A1B01EE3F
:101C9000102AB8EEC11AF4EEC10AF1EE10FA1BD206
:101CA000002901D40A4600E01A1B01EE102AB8EE02
:101CB000C11A20EE811A00EE901AF8EEE00AC1EE89
:101CC000201A00EE903AF8EEE00A71EEA00AFDEE5E
:101CD000E00A10EE901A4182B0F90A408482B0F90D
:101CE0000E30C3821A1B00EE902AB0F91210018345
:101CF000B8EEE01A00EE901A2344F8EEE00A00EE87
:101D0000201AD0ED070A61EE201A01EE103AC0ED5C
:101D1000091AB8EEC12A01EE101AB8EEC11A00EE87
:101D2000012A01EE102A22EE203AB8EEC12A01EE75
:101D3000101A80ED0A3AB8EEC11A00EE412A01EEFF
:101D4000103AF8EEC12A01EE101A22EE202AB8EE5F
:101D5000C11A80ED0B2A40EE412ABDEEE10A10EED9
:101D6000104ABDEEC30A62EEA00A250A10EE101A50
:101D7000B1EE420AC0ED0C0ABDEEC00A846310EE5B
:101D8000102AB1EE600AC0E90F12BDEEC00A254864
:101D900010EE103A0830C9F844308BF804408BF844
:101DA0000550250C8BF80650240E8BF80740017166
:101DB0000C0A44710C0C8471090EC1710830110AAF
:101DC00002714171110C8171110EC1718AF80430D8
:101DD000190A8AF80510190C8AF80610190E8AF8E3
:101DE00007100220FFF737FD40F2016508220D4978
:101DF0002846FEF73BFC0220FFF72DFD094940F283
:101E00000C66082208313046FEF730FC0220FFF74E
:101E100022FD0449EC1C082210312046FEF726FC66
:101E2000022013E0680000200000FA4400009644FD
:101E3000000096C40000C8429800002088010020DD
:101E4000D00000209C00002050FBFFFFFFF703FDA7
:101E5000A71E08224B493846FEF708FC0220FFF770
:101E6000FAFC4849082208312846FEF7FFFB022009
:101E7000FFF7F1FC4349082208313046FEF7F6FB34
:101E80000220FFF7E8FC3F49082208312046FEF710
:101E9000EDFB0220FFF7DFFC3A4908220831384603
:101EA000FEF7E4FB0220FFF7D6FC3649082210318A
:101EB0002846FEF7DBFB0220FFF7CDFC3149082264
:101EC00010313046FEF7D2FB0220FFF7C4FC2D494B
:101ED000082210312046FEF7C9FB0220FFF7BBFCA9
:101EE0002849082210313846FEF7C0FB0220FFF7D0
:101EF000D5FC1A20FFF7AFFC234CE068FEF749FA47
:101F00009FED229B53EC192BFEF7D4F99FED21ABEB
:101F100053EC1A2BFEF75CF9FEF74CFA0746A06863
:101F2000FEF737FA53EC192BFEF7C4F953EC1A2BD2
:101F3000FEF74EF9FEF73EFA06466068FEF729FA0C
:101F400053EC192BFEF7B6F953EC1A2BFEF740F9B8
:101F5000FEF730FA05462068FEF71BFA53EC192B02
:101F6000FEF7A8F953EC1A2BFEF732F9FEF722FA26
:101F700002462B4609A104F11000CDE90067FFF7E6
:101F800097FB69E58000002034010020104B059A82
:101F9000E4FF20410000000000408F4053504545C1
:101FA0004444545525642C25642C25642C25644414
:101FB000545553504545440D0A0000001CB5FFF729
:101FC0006FF901210846FFF735F84FF48070009053
:101FD00001208DF8040002208DF8050069460248B2
:101FE000FEF703FE1CBD00000000024070B5094D65
:101FF0004FF48074002221462846FEF757FE022047
:10200000FFF74CFC21462846BDE870400122FEF750
:102010004DBE00000000024005000000000000006E
:102020000C00000001000000C20100000A000000D6
:102030000000000005000000010000009001000009
:102040000F000000000000000C0000000100000074
:1020500096000000140000000000000005000000D1
:1020600001000000C800000019000000000000008E
:1020700005000000070000007000000028000000BC
:1020800000000000050000000100000064000000E6
:102090003200000000000000050000000700000002
:1020A000380000003E000000000000000C000000AE
:1020B00001000000240000005000000000000000AB
:1020C0000500000001000000320000006400000074
:1020D0000000000005000000070000001C000000D8
:1020E0007D000000000000000C0000000100000066
:1020F00012000000C8000000000000000500000001
:10210000070000000E000000FA00000000000000C0
:102110000E00000004000000080000009001000014
:10212000000000000E000000040000000500000098
:10213000F4010000000000000E0000000400000098
:10214000040000009A0200000000000004000000EB
:102150000100000008000000200300000000000053
:1021600007000000020000000E000000E80300006D
:10217000000000000E00000004000000020000004B
:10218000A021000800000020BC000000D8160008B4
:102190005C220008BC000020EC040000E8160008E7
:1021A000000000000000000000000000000000002F
:1021B000000000010F010F000000000000000000FF
:1021C000000000000000000000000000D424714561
:1021D000B81E153F000000000000000000000000D5
:1021E00000000000000000000000000000000000EF
:1021F00000000000000000002F60600003000000ED
:102200002B4060001F00000023FF60000000000062
:1022100023FF60000000000023FF600000000000BA
:1022200023FF600000000000A04022007F0E00009D
:10223000A06960007F0E00000000000000000000A8
:10224000000000000000000000000000000000008E
:0C22500001020304010203040607080950
:040000050800018965
:00000001FF
